:100000004D424E014D3448500005040001002200CD
:100010006000000000C000000000000000000000C0
:100020000000EEEE000000000000000000000000F4
:1000300001000005000000000000000000000000BA
:100040000200020100002B000000000000AC0000D4
:10005000030002012B00300000AC0000001400007F
:1000600000380020ED020000000000000000000049
:100070000000000000000000000000000000000080
:100080000000000000000000000000000000000070
:10009000000000000000000000000000B5010000AA
:1000A000E1010000FD010000B9010000CD010000E8
:1000B00000000000002934D00123002210B488423F
:1000C0002CD301242407A14204D2814202D2090187
:1000D0001B01F8E7E400A14204D2814202D24900A8
:1000E0005B00F8E7884201D3401A1A434C08A0424B
:1000F00002D3001B5C0822438C08A04202D3001BE1
:100100009C082243CC08A04202D3001BDC082243F7
:10011000002803D01B0901D00909E3E7101C10BC1B
:100120007047002801D00020C04307B4024802A154
:100130004018029003BDC046D90000000029F0D04D
:1001400003B5FFF7B9FF0EBC4243891A1847C046F2
:10015000002941D010B4041C4C40A44601230022C5
:10016000002900D54942002800D5404288422CD3BE
:1001700001242407A14204D2814202D209011B01B9
:10018000F8E7E400A14204D2814202D249005B00B8
:10019000F8E7884201D3401A1A434C08A04202D320
:1001A000001B5C0822438C08A04202D3001B9C0861
:1001B0002243CC08A04202D3001BDC0822430028C3
:1001C00003D01B0901D00909E3E7101C6446002C89
:1001D00000D5404210BC7047002806D003DB002049
:1001E000C043400801E08020000607B4024802A195
:1001F0004018029003BDC046190000000029EBD052
:1002000003B5FFF7A7FF0EBC4243891A1847C04643
:100210007047C046FEE70000034B01225A70A0233E
:100220000022DB051A707047D8100020034B012212
:100230009A70A0230022DB059A707047D810002026
:1002400008B5044B01221A70034B0022DA7700F044
:1002500057FD08BDD81000200800005038B5802593
:10026000ED052B79DBB2002B0CD130490B604B60D4
:100270002B89081C9BB28B608A680C30103107F008
:1002800017FC47E0012B0DD1284BD968002941D03C
:100290005A68186982423DDA5A68501C58602B7AB5
:1002A0008B5437E0022B30D1204CE368002B2AD04E
:1002B000226821698A420CDA22689B5C1BBAEB60D7
:1002C000A3682068C01880B207F04EFC2368013391
:1002D00017E0A2682368201C211CD2180C301031B2
:1002E00007F0E6FBE368002B0DD0A16822688A18AE
:1002F000A2601B781BBAEB60A06880B207F034FCE8
:100300000123236006E0EB6004E0032B02D1074BDE
:1003100000225A60C0468023DB0501221A70C046C5
:1003200002221A7000221A7038BDC046EC0200206A
:1003300080230222DB05FF321A600421024AFF31CA
:10034000118000221A70704706000040F8B5A02303
:10035000DB059B684A4A1F21DBB21160D12B0BD011
:10036000D02B01D80133DBB2A022D2059168FF2047
:10037000814319439160F1E70023424A42499A18A8
:100380008A4204D24149C95804331160F5E7404B11
:10039000404A191D043B934203D200221A600B1CF1
:1003A000F6E7EFF308823C4B191D043B9A4203D950
:1003B0003A4818600B1CF7E7FFF7BAFF384939488D
:1003C000053989B280B204F0C9FD374C374D01239D
:1003D0005B4223716371A371E3712B1C3C331A7868
:1003E0002B1C3D331B781B02134398423FD107F06F
:1003F00047FB2F4B2F4918882F4A88420BD06E7D20
:1004000018882B7D36023343984204D113889BB25F
:1004100023711B0A637113888B421BD0EE7DA87D6C
:10042000138836023043834214D100200423013B59
:10043000DBB2FF2B07D0214EEF18F65C3F79B742B5
:10044000F5D10120F3E7002804D013889BB2A371F3
:100450001B0AE371637922791B0213438B4206D096
:10046000E279A37912021A43124B9A4204D1144B37
:1004700002221A6062B6FEE700F082F8F7E7C04693
:100480002800005000000020EC0200207CA40000A6
:10049000F0020020D410002020110020CDCDCDCDC1
:1004A00000C0000000000000DC100020C0BF000001
:1004B000FEAB0000FFFF0000BEBF000000AC00006C
:1004C00000E100E0014B18607047C046E4100020D6
:1004D000014B18687047C046E4100020014B1860BB
:1004E0007047C046E8100020014B18687047C046AE
:1004F000E8100020014B18687047C046000000203B
:1005000038B5114C256805F0FFF8A862256805F09C
:10051000FFF8E862256805F0FFF86861256805F0D6
:10052000FFF8A861256805F013F9084923680968F0
:100530001A1CE8320631E861116002221A67D033D2
:1005400003221A6038BDC04600000020E8100020D9
:1005500008B502F091FE021E05D10749A9230B71CF
:1005600007F036FAFEE7054B1B6803CB04F06EFD7F
:10057000FFF7C6FF08BDC0466B050020D80200206B
:1005800037B507F0B7F86C460734207009F0A6FDC0
:1005900009F010FE02F014FEFFF7DAFF07F0AAF8E8
:1005A000051C0E2800D90E25E8B2034B8200D35853
:1005B000211C98472570F1E7040000200F4B3221E1
:1005C0001B680022D9676420191D9A670431886767
:1005D000CA6702208031086001204860181C012190
:1005E000943049420160826001618261A83304381D
:1005F0000160826001611A607047C04600000020FF
:10060000F7B500AF3960786005F052FB83000A331C
:10061000DB08DB006946C91A8D46041C684605F0F4
:100620004FFB63000833DB086D46DB00EA1A954692
:10063000684605F063FB00226E46111C013C06D3A0
:10064000A300EB58C9186300F35AD218F6E72C4CF4
:10065000022025682B1C8C331C1C0C3C266801389E
:10066000632E0ADD002626600126B44676429E608F
:1006700000261E6166464640AE6726680136266043
:100680001C698C4200D219619E688E4200D9996023
:100690001C68012C09DD1B4E00241C609E611C623D
:1006A00001262C1C08344640E6671C681E6A01348B
:1006B0001C60964200D21A629C69944200D99A61E9
:1006C000043B0028C8D10E4E7C6833683E68996FA1
:1006D000BD468A009A18111C983190320968126838
:1006E0008A1A22801A1C0832D26F92009B181A1C98
:1006F000A832A03312681B68D31A3380F7BDC046F6
:1007000000000020FFFF0000F0B585B01F1C0AAB01
:100710001B78151C01910393041C04F099FB1E4BDC
:10072000281C1B680021DA68920009F0E3FD019E95
:10073000002E0CD0201C05F023F9184B281C1B6838
:10074000391C5A69002307F0ADFB013EF0E7002C8D
:100750000FD1124B1B685F69DB69029304F0C2FF83
:10076000061C04F0C9FF0299031C321C381C07F058
:1007700081FA281C0021019A07F0E8FB039B012B5A
:1007800008D1002C06D1054B201C1D6805F02AFA63
:10079000EC35286005B0F0BDD80200200000002034
:1007A000F0B589B0059106920793049007F044FADA
:1007B000234B80791B6802905A699B6905985A43BC
:1007C0000021920009F096FD029F013F7A1C2BD078
:1007D000049805F0D5F81A4B1E6872690192019BC6
:1007E000013B0393F1D3B469164B059AE518039BBB
:1007F0006343ED18AD005519013C13D3B368019A5A
:100800005343E3180133069A9B0098582B68181835
:100810002860002F04D10299FFF74CFC00042860E7
:10082000043DE9E7039AD9E7079B012B06D1064B64
:1008300004981C6805F0D6F9F034206009B0F0BDCA
:10084000D8020020FFFFFF3F0000002030B5214DFF
:1008500085B02B681A1CCE321178663A002904D173
:10086000191CB0310978002901D0002111701478C9
:10087000002C1DD0D96E002001919A6B164902926E
:100880001B6B01AA039303234B707C235B42CB7049
:1008900010230B7107F09CF82B680024DA6E196F97
:1008A0008A4202DC0132DA6610E0DC6601240DE0E7
:1008B0009A6B1B6B0949019202930920642301AAD8
:1008C0000B71039407F084F82B68DC66201C05B0DC
:1008D00030BDC046000000208C00002093000020A6
:1008E000F0B593B004AF3A61F86007F0B1F96C4E1F
:1008F00069463368B8601C68796004346400221C5F
:100900000832D208D200881A5A688546043252004A
:10091000131C0833DB08DB00C01A04AD854604A9AC
:100920007961081C002109F0E5FC221C281C00212B
:1009300009F0E0FC5B4CF86823685A69191CDB6914
:100940000090281D01907869303104300290386998
:1009500003F0C2FB336838609A6891001A68236814
:1009600001324A435869002109F0C4FC2068436DF4
:100970006430036008F0D0FBBA682368127B5869C2
:10098000019500927A69191C02925C313A69303300
:1009900003F008FD7B689D4607F066F9051C07F02B
:1009A00047FC2B79002B0CD074300378002B08D136
:1009B00022683023FF33D35C012B02D0012004F0E6
:1009C00061FC336838495A6818684A709A68CB786D
:1009D0007F250870AB4302208024034364422343F5
:1009E000CB7053238A700B7101323B6952009A1805
:1009F000012006F0EDFF381C00212022183009F0FC
:100A000079FC3368186859689A6838767976BA76C6
:100A10000533DB7F3969FB767B7F0220AB430132F4
:100A2000034352008A181C437C77391C0092002231
:100A300001201831131C06F091FF02F0C5FB02F0F3
:100A4000E1FBFFF703FF002826D1164C2368586905
:100A500005F03EF82568281C291C5C31303003F075
:100A600083FC23682866186E04F090FF04F0F4FD00
:100A70003A68002A07D12368F8681A1C30321B68CC
:100A8000396907F05FF9022004F02AFC206864301D
:100A900008F042FB052000E00420BD460FB0F0BD89
:100AA000D80200200000002064050020F0B594006A
:100AB000231C0A3385B0DB08DB006946C91A02AF84
:100AC0008D4602AA061C7A60101C0021221C09F027
:100AD00011FC231C0833DB08DB006946C91A8D466C
:100AE00002AD281C221C002109F004FC0C4C301C17
:100AF0002368D96A9A6A5C3300910193291C7B6848
:100B000008F02CFB301C02F0E9FB2368301C9A6AC9
:100B1000DB6A291C00937B6807F08EFDBD46F7BD9C
:100B20000000002070B50C1C151C1E1C07F0E0FF17
:100B30000B4B201C1B68996ADA6A08F0DDF8201C50
:100B400008F0BEFC201C08F0D1F9291C321C201C26
:100B500008F06EFA291C201C03F02EFA70BDC04666
:100B60000000002038B509F065FA051C012009F0E5
:100B700075FA041C281C04F053F9201C04F05CF9DD
:100B800038BD38B509F050FB09F05CFA051C0020AF
:100B900009F064FA041C281C04F042F9002004F057
:100BA00041FF201C04F048F904F04EFB38BD10B59D
:100BB000A4B08C22041C002101A809F09BFB01A811
:100BC000211C08F075FA08F09FFA01A8211C02F018
:100BD000EBFB24B010BD0000F8B5071C07F028FBA4
:100BE000434E34682379002B02D0012B2AD063E0D6
:100BF000404A211C1268EC310D68011D1278C96F42
:100C00002260002905DC21693B4B994202D023690F
:100C100001332361236993424EDD0830C36F002BFB
:100C20004AD1221C74321370391CA2690420FFF7C8
:100C3000B7FD04F07FFB012004F0A2FE04F0D2FC1B
:100C400001232CE02B4B1F687B782360231CF0339F
:100C50001D682069198B0130FFF7D0FA002906D1F1
:100C60002369002B03DD231CEC331B68ED18231CC8
:100C7000FF33DB7A012B04D0231CE4331B88002BC9
:100C800005D03B782360EC342568002307E0226917
:100C9000194B9A4210D02369013323610CE031686B
:100CA0000022081CFF30C2720B710A6113490E3317
:100CB000101C0B7106F08CFE3368186805F05EF8A6
:100CC000041C281C05F07EF8241A002C09DD33686A
:100CD000186805F053F8041C281C05F073F8201A56
:100CE00000E0012004F0CEFA04F0EEFAF8BDC046B0
:100CF00000000020E8100020FFFFFF7F6B050020B0
:100D000008B5084B30221B68FF329A5C002A08D1D4
:100D10001B790420012B02D0002B02D1022004F009
:100D200007FE08BD00000020F0B587B006F09CFF6C
:100D3000071C07F07DFA031DDA6FA44B002A07D1C8
:100D400088300468621E9441E4B2002C05D000E0B3
:100D500001241A680021B83205E01A68B832116817
:100D6000FE2901DC013111601B6800211A1CCC3204
:100D700015881180183A029511708C4204D094495C
:100D80000968C97C002958D0181CB3300178C9B251
:100D9000002908D003785BB2022B00D00123137026
:100DA000002303700EE11E1CB0363578002D09D0EB
:100DB000012515701A1CB132BC33017031701170ED
:100DC000196000E1002C38D1191CBC310D68002DD0
:100DD00008DD013D012D01D00D602EE003230C60E4
:100DE0001370F0E01A1CE83212681188794A9142B7
:100DF00023D01A1CC8321188774A1268D2888A42D6
:100E00001BD8734D2868027C181CB83000689042CB
:100E100013DB05AA1180CA331B8870495380022353
:100E20004B70CB70201C15230B7106F0D1FD674B66
:100E30002A681B68527CBC331A60654E3368987C04
:100E4000002800D0BEE0614D002C22D12A689B7F93
:100E5000C43212689A4214DB61491223201C221CFE
:100E60000B7106F0B5FD2A683068131CC033196891
:100E700001311960C07F814203DB1C60B432022360
:100E800013702A680023111CB231C4320B70136036
:100E90003DE02B681A1CBC3210602A321278002AFE
:100EA00035D0191CC831098805AA1180CA331B889E
:100EB0004A49538002234B70CB7019230B7106F003
:100EC00087FD2B683268191CC8310D88908B163944
:100ED000854214D2181CCA300588108D85420ED266
:100EE000908D029D85420ADA097800290FD1C4331A
:100EF0001968927F91420ADA0131196007E00122F4
:100F00000A70191C0022C431C0330A601A602F4EC7
:100F10003268131CE6331B78002B53D13B79002B2E
:100F20004ED0131CB0331D78002D4BD1284F106BC1
:100F30003B683A689B8A118B9C463B68528BDB8AE4
:100F40000093634606F032FE3B6803909B8C326848
:100F50009C463B68106BDB8C3A68118C528C00937A
:100F6000634606F023FE33681A1CC8321188039AC0
:100F7000CA33914207DA1A88824204DA3A68029840
:100F8000528D904210DB05AA11801B8813495380B3
:100F900002234B70CB70002017230B7106F018FD55
:100FA00033680122B1331A7033681A1CB1321278D7
:100FB000002A07D0002C05D0B03301221A7002E0BD
:100FC000B13213700125281C07B0F0BD00000020CD
:100FD000E4100020FFFF0000E81000208C0000203B
:100FE0006B050020F0B58FB000AF786303F012FFFF
:100FF000061C03F027FF386103F018FF9F4B786051
:101000001B686846DC68231C0E33DB08DB00C01A53
:1010100085466D463D637279A218131C0E33DB08BA
:101020005500DB00C01A2B1C0E33DB08DB00F86216
:101030008546C01AC11A85468D4678626846786131
:101040000021F86A09F056F9012149422A1C786A00
:1010500009F050F98A492A1C786909F04BF9221CD9
:10106000386B396909F004F97C6B002C11D1854C7F
:10107000B379082023707379211C6370A3707F23D8
:101080005B42E3703A6BD223237106F0A1FCB37983
:10109000CBE040250024BD61FC6100210122386BBA
:1010A00005F0D2F8032004F06BFC744B75491B6803
:1010B0001D6858689A680423CB7051230B71724BDA
:1010C0008A701B6801325B69920048709A1802208E
:1010D0000D7006F07DFCB479BC62BC6A013C3C62D8
:1010E00000D291E07379013B7B637C6B013400D1CA
:1010F00087E03D6A73797C6B6B437D69E3185B0025
:101100005A5B624B9A4278D003F084FE5E4BBC6A15
:101110001A685A4B7D6B1B6852699B686343EB18D6
:1011200001339B003C6AD25A437978696343EB18D8
:101130005D00AC46011C61440C883C60944204D8BC
:101140007D6A101B6446285323E07D6A2C1C64448E
:10115000251CFC6000242C5F013415D0FD6AEC18BE
:10116000257868B2B860013001DA013503E0B8686B
:10117000002809DD013D02235B420B80FB692570DD
:1011800001339BB2FB612CE0FD6AEC182578002D41
:1011900001D10A800CE06DB2681C05D13968FD6888
:1011A0008A1A2A80002202E0012D01D1FF2222703A
:1011B000FC6AE1180A7850B2002806DC7D6A6446B1
:1011C000285F013007D0002A05D13C6B0132E3567D
:1011D0003E2B05DD05E03D6BEB56002B01DD013AB2
:1011E0000A7073793C6A7D6B6343FC6AEB183D6956
:1011F000E15CEA5C3C6B8A18E2547D6B013D7D63E7
:1012000073E73D6ABD6268E71C4BFD691B68DA68DD
:101210001B69D3189D4200DB29E7BB69013BDBB2A8
:10122000BB61002B00D038E721E7013B0FD3727977
:10123000013AFAD371793D6B5943891869187D6871
:10124000E8185F300D78007828180870F0E7386BE0
:101250000021012204F0F8FFB3790820237073798C
:10126000211C6370A3707F235B42E3703A6B1D23E4
:10127000237106F0ADFBBD460FB0F0BDD8020020D3
:10128000FFFF00006405002000000020FEFF0000BA
:1012900010B5041C03F0CAFD543000784342584195
:1012A0002040FFF79FFE10BDF0B5434C8DB000AF5E
:1012B0002668B960051C06F033FA3023FF33216835
:1012C000F054CA5C3D4C002A10D123680A20986271
:1012D000F4312820D8620A7008F000FF08F06AFF95
:1012E000FFF736F904F00AFC482216E006F0B0FCDD
:1012F0000026067008F026FF236803CB03F0A6FE45
:10130000FFF7FEF8236802221A620A229A62282254
:10131000DA621E611A685B685A439200131C0A3332
:10132000DB08DB006846C01A85466B46FB60236815
:10133000186859689C6A414389000A31E600C90867
:10134000C9006846331C401AA4000833C11A231C84
:101350000833DB08DB0085468D467860C91A68468D
:1013600078618D463961F868002108F0C3FF321CAE
:101370007869002108F0BEFF221C3869002108F0BE
:10138000B9FF00237B627B697868F968BB620A4B0E
:10139000F861386939621B683021F862FF315A5CA4
:1013A000074B9100CC583B1C281CB9681C33A04744
:1013B000BD460DB0F0BDC04600000020D8020020A0
:1013C0004000002010B5041C06F026FA06F092F941
:1013D000A042FBD008F05CFEFFF7BAF806F040F838
:1013E00010BD000070B5051CFFF7BCFBFFF77CF8D3
:1013F000224B041C1B68DE8806F042F9002004F032
:1014000011FB04F0D7FA1E4B1B6831331B78002BFD
:1014100004D00020E080291C00F0FEFA04F040F91E
:10142000C0B206F021FBFFF76BF80120FFF730FF99
:1014300006F0F2F906F0FAF9052815D004D80028CC
:1014400014D003280AD806E006280AD0021C113A54
:10145000D2B2022A0AD801F027FC07E005F06AF9A7
:1014600004E003F0F1FE01E003F0DCFE06F042F9D7
:10147000A842DFD0FFF785FBE68070BDE8100020B2
:10148000E410002010B5041C06F0C6F90120FFF797
:10149000FFFE06F02FF9A042FBD010BD10B5041CD2
:1014A00006F0BAF901F0FEFB06F024F9A042FBD0E9
:1014B00010BD10B5041C06F0AFF904F0A7FB06F050
:1014C00019F9A042FBD010BD10B5041C06F0A4F918
:1014D0000220211C00F0A0FA06F00CF9A042FBD07B
:1014E00010BD10B5041C06F097F90120211C00F076
:1014F00093FA06F0FFF8A042FBD010BD10B5041C13
:1015000006F08AF9002004F03BFA04F099FA06F09C
:10151000F1F8A042FBD010BD10B5041C06F07CF918
:10152000002003F085FD002004F02AFA04F088FA78
:1015300006F0E0F8A042FBD0012003F079FD10BDD9
:10154000F0B5A3B002AF386106F066F9002008F0EC
:1015500065FE08F02FFE002004F064FA5C4C69463A
:1015600023685D6818681B694543EB180733DB087F
:10157000DB00C91A8D4602AAFA6103F04BFC03F0A6
:1015800061FC03F053FCFB695D19181C291C7D618B
:1015900004F0CEFB23686C465A681B69D3189B0085
:1015A0000A33DB08DB00E41AA54602ACBC6106F096
:1015B00033F9381C00212022203008F09BFE444CD7
:1015C00020202368012519681A79C155212022217C
:1015D000C255CA550533DB7F25202322D355C35D71
:1015E0007F229343FA692B43C1190B7000920022AA
:1015F000131C0420053906F0B1F979692A1CF86931
:1016000004F022FE002004F0BBF92568B8696E687A
:101610002B69B4009B199C462E4B04191968BC60B9
:10162000002363450CDA9A00B34203DACC69B86947
:10163000A45802E04C6AB868A45884500133F0E71B
:101640003C1C4034201C0021202208F053FE296855
:10165000AB6821706670A3700535EA7F7F26E27063
:1016600062790425B2432A4362711A4A013312682F
:101670009B005269211CD3180022203400930220C1
:10168000131C06F06BF9201C0021202208F032FE0A
:10169000012323700E4B211C1B6810201A7905337F
:1016A0006270A270DB7FBA69E3706379B3431D4354
:1016B000657100920022131C06F050F906F01AF82A
:1016C0003C69A04200D174E7BD4621B0F0BDC046E0
:1016D000D80200200000002010B5041C06F09CF881
:1016E00006F008F8A042FBD010BD0000F0B58BB0AA
:1016F00000AFB86103F08EFB06F09EFA584C6E46C0
:1017000023689D68DB687D625A00111C0E319B00C6
:10171000C9080E33C900DB08DB00761AB546F61A95
:101720006D4600216846B5467D61FE6008F0E2FD29
:10173000002004F025F97E6A4A4A20681568B20044
:1017400052420368BA60321C5A439100F961B107F2
:10175000711A79609107891A3A62013B23D3446870
:101760003E6A3219261C5E437618B400FE68920069
:1017700034193C61FC69A2420BD03C690426A418D0
:10178000A4466C697642A458B44466463460043A70
:10179000F0E7BE683A6AA419FC617C6A7E68121B95
:1017A0003A628919D9E7BC690B2C55D1002004F0A5
:1017B000E7F82B4B19682B4B08681C687B6AB861EB
:1017C00043439A003A629A07D21A3A61FB6184460F
:1017D00066464A68013EB4462ED365465543FE69C7
:1017E0002148B318121852197E6938695200B2188C
:1017F0002D18FE68AD0075199B003D603E6AB3422E
:101800000ED03D68E818656904380668E858301A53
:101810000025565F864200DA1080043B023AEDE76D
:10182000BD6876193E627D6AFE69761BFE617D6841
:101830003E6976193E61CBE70C49B8697E23D2B286
:101840005B4208704A708A70CB70012052237A691B
:101850000B7106F0BDF8A9E7BD460BB0F0BDC04660
:10186000D802002000000020FFFFFF7F6405002059
:1018700010B5041C05F0D0FF201CFFF737FF05F062
:1018800039FFA042F8D010BDF0B5037887B0041C32
:10189000012B34D103F0BEFA1A4E071C6468356878
:1018A00005F04CFFFF35A87104AD281C05F080FF42
:1018B000684605F049FFFE37201C69460F2208F0F4
:1018C000D7FCBB89002B03D01A0A237162716B808D
:1018D00033682178DA1DFF321170FF33049A98794A
:1018E0006B6805F05FF93368FF33DC796408201C0E
:1018F00005F0ECF9201C05F06BFB04F0FFF801206B
:1019000007B0F0BD0000002008B5416803780A4A1E
:101910000A4812680068E83206301060002B03D0D5
:10192000C9B2002000F078F803F0BAFEC0B206F0A9
:101930009BF8022008BDC04600000020E8100020EF
:10194000007908B5002804D10120FFF7A1FC03208D
:1019500004E00138434243410520C01A08BD00009D
:1019600070B5047A0678456806F072F9002C06D046
:101970000123012C06D104F0C1F8002302E0012369
:10198000042400E00524044A70B21268291C9269FC
:10199000FEF706FF201C70BD00000020F0B5037AA2
:1019A00085B0056806790293077B06F051F9052496
:1019B0000390012F02D104F0A1F80324039B2A68AD
:1019C0005978AB68029D70B20095FEF79DFE201C11
:1019D00005B0F0BD031C10B59A680C1C007859685E
:1019E000DB6800F01FFB207010BDF0B5846887B085
:1019F00007784668656805910F22C168684608F057
:101A000037FC231C381C311C2A1C01F069F8059B8B
:101A1000187007B0F0BD0000F0B5CB4C9DB000AF22
:101A2000F86320687960407A43000133FB6578638E
:101A300003F026FE236878665B7AFF22D31A984269
:101A400000DD7B66786E7C6B041B3C636C4603F0A8
:101A50001FFEBC65FC6D684665002B1C0833DB0867
:101A6000BA4CDB00C01A012363707C235B423A1C32
:101A70008546E370211CB1230020643223716E4639
:101A800005F0A6FF0023211C3C6B5A001819FC6DC1
:101A90000133B052A342F7DB0223CB70321CE4B215
:101AA000632300204C700B717C6405F091FF2B1CAC
:101AB000BC6D0833A546DB08DB006846C01A8546C6
:101AC000C01A6C468546BC65386404F0F1F8F861CC
:101AD000012003F067FC00212A1C386C08F00AFC86
:101AE000B86D00212A1C08F005FCFC6D6846A400B6
:101AF000231C0A33DB08DB00C01A8546C01AFC62CF
:101B000078626C468546C01A8546BC626C46BC61EC
:101B1000FC69A400BC600024FC640021FA6AB86A75
:101B200008F0E8FB786AFF21FA6A08F0E3FB00247A
:101B3000854BBC641B68BC6C1B7A9C4251DA3C6BC5
:101B40000026E4B2201C7C6103F0AFFD03F078FDB9
:101B500003F01EFCBC697D6A3C62BC6AF86D01360C
:101B6000F217C30F86425341DBB23B61002B06D113
:101B700079698819C0B203F098FD03F061FD6B46E6
:101B8000FB60BB686A460A33DB08DB00D01A854677
:101B90006A467A6504F094F80020031CFA699342BF
:101BA00005DA796D9A008A5801338018F6E72368C0
:101BB000984200D920602968884200D2286003F04A
:101BC000DBFB3A6A043501C23A62FB6838699D461C
:101BD0000434002802D103F0DBFBBFE7BC6C013406
:101BE000A6E700255A4E2C1CB96A7A6AA300C85889
:101BF000D358C01A864204DD3B6B061CE318BB6356
:101C00003C65854200DA051C03F0B6FBB96DFA6D40
:101C100063000134C8529442E6DB281C03F0ACFB9D
:101C2000494B1B68DB88984206DAFC6B012C03D019
:101C30007C6EBC637C6B3C65FEF7C0FCFC6B012CCE
:101C400021D13A6C0023BC6D5900615A108888423A
:101C500000D21180FC6D01330232A342F3DB3C6DF4
:101C600063003C6C1A5BFC6C131CA24200D2231C68
:101C700036499BB27C6CFB64002002234C70CB7015
:101C800008713A6C19E0F86B304C022808D1796C75
:101C9000042300206170E3702071211CBA6927E0E1
:101CA000281C03F069FB7A6C80B2F864627002232E
:101CB0000020BA6DE3702071211C05F089FE3C6D97
:101CC0006823DC53BC6B6A20C4533C6D6E216300F7
:101CD000BC6D6C201B5BFC6CC353CC531B490423B1
:101CE0004B700223CB703A1CB2230B710020683278
:101CF00005F06EFE174E3C6D32686300111CE83132
:101D0000BC6D09681B5B09888B4227D9002925D047
:101D100008F08AFA041C08F0B1F9C379051C002BFD
:101D200006D0012005F094FE3368E8331D6027E0FB
:101D3000002C25D1084B1B689B7C002B20D1012057
:101D400005F07AFE1CE0C046E81000208C00002060
:101D5000FFFFFF7F00000020E4100020E732127830
:101D6000002A0DD00E4C2068C2889A4208D9002063
:101D700005F06EFE0B4B22681B680632E8331A60D2
:101D8000FC6B002C06D1BC6BE0B203F08EFCBD46B0
:101D90001DB0F0BD7B68063B012B00D8BDE6F2E725
:101DA000E810002000000020F0B585B000920391FB
:101DB000029008F039FA061C05F00EFD071C05F02C
:101DC00013FD724D01902B681A1CE4321278BA424E
:101DD00020D0002F08D06E4900203B23021C0B713D
:101DE000022605F0F5FD10E00199052400290DD12A
:101DF00067493C23381C3A1C0B7105F0E9FD2B6840
:101E0000E6331E78731E9E41F6B201242B68E4333C
:101E10001F701DE01A1CE532127801998A4216D013
:101E2000002906D1E6331E78731E9E41F6B23A238E
:101E300001E03923022656490020021C0B7105F0EF
:101E4000C7FD2B68019AE5331A70012400E00524D0
:101E500005F058FC071C05F0B7FC009B032B02D0D3
:101E6000002F03D107E00124002F36D0002005F019
:101E700051FC012431E02B68E4331F88002F2CD162
:101E80000099012902D0022904D00EE0009805F043
:101E9000D3FD0AE0381C05F0CFFD2B68E7331B7833
:101EA000002B02D0381C05F0D3FD05F0BFFD2B68D8
:101EB000071CE6331B7883420FD0002802D0112381
:101EC000012601E01223061C31490020021C0B717F
:101ED00005F07EFD2B68E6331F7008F0A5F9B042CF
:101EE00038D008F0A1F908F0ADF8071C301C08F054
:101EF000A9F8009008F098F9301C08F08FF908F064
:101F000059F9244B1B68DB7C002B0FD0012C0DD022
:101F1000009B3A1C563256330298039905F0E6FFAF
:101F2000002003F02DFDFEF749FB06E02B680020A2
:101F3000CE33187003F076FD0124002005F088FDF3
:101F40002B6800211A1CE7321170134AE83312681B
:101F500006321A6008F068F908F090F8C379002B8F
:101F600008D005F06FFD2B68E7331A78824201D064
:101F70001870012405F040FC051C06F059F903799E
:101F8000AB4200D00571201C05B0F0BD0000002060
:101F90006B050020E4100020E8100020F0B51D1CA7
:101FA0009BB004236F460E936B680024061C073712
:101FB00001203C70029403940494059406900796C3
:101FC000089409940A940B940C940D940F93109414
:101FD00011941295139414901592169617911895C2
:101FE0001993A20002AB240118190C4B391CD358C9
:101FF0009847041C05F094FB094B1A683023FF3303
:10200000D35C834204D0E868FEF7D1FD1BB0F0BD7D
:1020100005F070FBB042E4D0F5E7C0464C0000206C
:1020200000000020F0B5554F8FB001933B68151CA0
:102030001A1C0024FF321C71D4721C61061C009112
:1020400006F0FCF84E4B019A1B680794089409941B
:102050000C940D9406950A950B929A885878FA215B
:1020600050438900FEF774F8009A3C681378FE34F8
:102070006081B34203D005F0CFFB009B1E703B682C
:1020800000229A6005F0EAFC041C03F009FBA04260
:1020900006D0201C03F009FB03226B46DA7257E0DE
:1020A00038490020A623021C0B7105F091FC019811
:1020B000FEF792FD39686C46081CC830CA31FEF73D
:1020C0009FFA314B31491B6802205B680B344B701F
:1020D0000423CB705B230B713B68DA6905F078FC55
:1020E0003B682B491A1CC83212880C2003921A1C18
:1020F000CA321288CC3304921B8803AA05930123A9
:102100000B7105F065FC3A68211C1079214A8300A7
:10211000D318000106AA10189B6998473B68B4229F
:102120009A562868A968FFF73FFE052800D020705E
:10213000194B1A68194B9A4202D003F067FDFEE76B
:102140003B68174A9968914202D09A6801329A60B6
:102150006C460B342378052B02D020780FB0F0BDED
:1021600005F0DEFA30233A68FF33D35C8342F4D1C2
:1021700005F0C0FAB04200D184E7EEE7000000208D
:10218000E81000206B050020D80200208C00002001
:10219000930000204C0000201C110020CDCDCDCD9F
:1021A000FFFFFF7FF7B5434C151C236801911A1CF4
:1021B000B1321278061C002A23D01A1CE63212789B
:1021C000002A1ED11A1CCE321178002919D1B03341
:1021D0001B78002B15D10123137002F027FE071C7A
:1021E00002F018FE3A1C031C56325333301C01997E
:1021F00005F07CFE03F090FB022003F099FBFEF754
:10220000DDF923681A1CCE321278002A4FD01A1C2E
:10221000294F0020B03210703A680190126A011CF8
:10222000013A0ED30E265643B446AC446646B688F1
:10223000002EF5D036B20131B042F1DA301C0192F5
:10224000EEE71A1CE6321278002A13D1012911DDBB
:1022500005F0EEFF01230430C3673B681B6A013BB6
:102260000AD3019EB342FAD00E225A430021AA1883
:102270009180F4E7002904D023680022D4331A6047
:1022800008E01A1CD432D03311681B68994201DC73
:10229000013111602368191C1A1CD431D03209682D
:1022A0001268914205DDB03301221A7001E0D43387
:1022B0001A60F7BD00000020D8020020F0B5764D6E
:1022C00099B02A6802AF1368926839605200991C6D
:1022D000514301335208396153430831C908046836
:1022E0006E4EC9006846401A85460133306802A91F
:1022F0005B00CB1879612C2200213030BB6007F0E5
:10230000F9FF00213A69786907F0F4FF381C0021D1
:102310002022183007F0EEFF2B687F211A685868DA
:102320003A769A687876BA760533DB7F0132FB76A7
:102330007B7F92008B4304210B437B773368391CEE
:102340005B6902209A1800920022131C183105F0D4
:1023500005FB2068A1687A69BB68FEF7C1FAB8601E
:10236000052800D086E02E686A46F36A7A601A0172
:10237000131C08336946C81A854602A97961081CEE
:10238000002107F0B7FFF26A7869E168FEF78EFB7B
:102390002B6868469A6A0E235A43131C0833DB08DD
:1023A000DB00C01A854602AD0021281C07F0A2FF01
:1023B00023697869291CE268FEF7B4FBFEF7B4FCD8
:1023C000374B1B68DB7C002B04D12068A1682A1CDA
:1023D000FFF7E8FEE168281C00F0E6FF07F0CAF905
:1023E00083000733DB08DB006946C91A2A4B8D4698
:1023F0001C6802AAA36AFA607B610E22013B534368
:10240000ED18061C043538617B69013B7B610FD3F5
:1024100000202B5E002B09DD3969FA68013988003C
:1024200039611018291D042207F022FF0E3DEBE749
:102430003D1C383500212022281C07F05BFF616815
:102440002068A368697015492870AB700968053465
:10245000E27FC96A0133EA705B007E22CB185242E8
:102460006A710093F2B20320291CFB6805F076FA2A
:102470007A68954603F030F903F04EFA02F05AFFFD
:10248000012003F07DFA03F0ADF8B8683B68BD4663
:10249000187017B0F0BDC046D80200200000002020
:1024A000E4100020F0B5A1B00192052214925A6800
:1024B00000241592019A0125061C6F4604A81D915F
:1024C0001B490F37089509900C951195169518938F
:1024D00006251B921E931F903F23201C221C3C703C
:1024E0000A940B940D960E940F94109412941394D6
:1024F000179419951A941C960B7105F069FAA200AD
:1025000008AB240118190B4B391CD3589847041CED
:1025100005F006F9084B1A683023FF33D35C834279
:1025200003D105F0E7F8B042E9D021B0F0BDC046D4
:102530006B0500206C00002000000020174BF0B558
:102540001B6885B01E689B68B41C5B005C4300AFD1
:10255000221C5B08FB600832114BD208B86079601E
:102560001868D2006946891A8D462C220021303025
:1025700007F0C0FE221C6846002107F0BBFEFA6887
:10258000731C534301336D465B006A46EB18B86811
:102590007968FEF7A5F9BD4605B0F0BDD802002068
:1025A00000000020F0B589B004921A1C120C0E1C19
:1025B00099B2059303910292041C05F01FFE071CBB
:1025C00002F028FC051C022C33D104231E4035D018
:1025D00046793B680398191C70430193FDF7B8FDD9
:1025E000C343DB1718406B46C4B2188A039B01999A
:1025F00018187043FDF7ACFDB04200DD301CAD791A
:102600007F68C6B20298391C68430197FDF7A0FDA8
:10261000C343DB1718406B46C7B2588A029B019927
:1026200018186843FDF794FDA84200DD281CC2B2CB
:1026300007E0002446798279271C02E0341C321C12
:10264000371CFF23381C1A40184012021C40240477
:10265000104336062043304309B0F0BDF0B595B0C5
:1026600002AF38613B1C786E6C331B7806780C1C0B
:10267000BA617B60CA4D002E00D0AFE01378082B02
:1026800018D103F03BFA2B6805209A693969331C8D
:10269000FEF786F803F032FA2268A36801210620CB
:1026A0000096FEF731F803F029FAB96905220E7099
:1026B0003A6108E26846B860052003F061F9B94B59
:1026C00068461B689A6951005A6901324A43131CD3
:1026D0000833DB08DB00C01A854602A97961081CB3
:1026E000311C07F007FE2B683A699969786905F093
:1026F0006DFCF86105F082FDFA692E1C012A0ED1ED
:102700002B68FF335979002909D1E0301A7A007813
:10271000904201D8197212E001321A7221E0336836
:102720000022FF335A711A729F4B38691B6879690E
:1027300033331A7805F0F8FCFB69012B11D103F053
:10274000DDF9062003F01CF9786EB9690022012337
:1027500003700A709549A323101C0B7105F038F91A
:1027600037E0914D32682B68FC3233331B781268A6
:102770005B009A420EDD03F0C1F9A36822680024D1
:10278000009406200121FDF7BFFF3368FC331C6075
:1027900003F0B4F9824B86491B68FC331A688A42FD
:1027A00001D001321A6004F01BFE04F0B7FD2B6863
:1027B0003333187802F072FD002002F091FD786842
:1027C00002F073FF04F0CEFD02F042FBBA6EC4309B
:1027D0000260BB6805209D46386174E1724B1B683E
:1027E000598F343379601B78BB60BA682B68101C32
:1027F0001A6002F053FD062003F09AF82068A168E1
:10280000FFF79CFE3861052800D05CE1654D684605
:102810002E683860F16A0A01131C0833C01A854615
:1028200002A9F960081C002107F064FDF26AF8684B
:10283000E168FEF73BF92B6868469A6A0E235A4313
:10284000131C0833DB08DB00C01A854602A9F961B6
:10285000081C002107F04EFDF868F969E268236959
:10286000FEF760F9FD6900264E4B1B689B6A9E428D
:1028700011DAE268F300D3182A88A91C1A806A8842
:10288000281C5A80EA880136DA80AA880E359A8098
:1028900006F0C8FEE8E7BB69396E1A78F86906F0F9
:1028A00095FFB969421ED2B208703D4B012A03D888
:1028B0001A680021FC325160032809D007280DD086
:1028C000012800D0FDE01B680022FC335A60F8E0CC
:1028D000386E07F063FA041E0ED000E0182404F0EE
:1028E00027FF314B1B681B6C18400123A340184085
:1028F000431E9841404204407A68B868FA21504328
:102900008900FDF725FC264E051C33681A1CFF3292
:102910009279022A07D1FC335B68834203DDB869F0
:1029200008230370002405F069FC396E381C0B681D
:1029300024301A88BA845B88FB8406F0A1FE3368D1
:10294000FF339A79022A35D1DB795A071FD5182C23
:102950001DD1381C283004F02BFFB98D24203B5E9C
:10296000FA8D994228DA388D0918994224DD2621FA
:102970007B5E9A4220DA798D52189A421CDD012042
:1029800004F008FFB88CF98C04F0F8FE89E09A078F
:1029900010D51A2C0ED1012004F0E2FE81E0C046D1
:1029A00000000020D8020020E41000206B05002069
:1029B000FFFFFF7F002C74D1454B1B681A1CFF32B0
:1029C00091790122022905D1191CFC314968A942DB
:1029D00000DC0022B8690178082956D1D2B2002A59
:1029E00053D004F011FF002830D00224381C221CE0
:1029F0003849203007F03CFC381C211C203004F002
:102A000077FF052004F0A4FF381C00212022283085
:102A100007F070FC396E28220B7B2D21D35529231A
:102A2000DC55CB5D7F2293432A20C4551C43802371
:102A30005B421C433B6ECA191B681470391C002290
:102A4000009305202831131C04F088FF02F064FF76
:102A5000012002F017FC786E00241D4B04701B68E7
:102A6000201C1A1CFC3254601460FF3301225A717E
:102A700004F076FE201C04F08DFE1749A223201CD2
:102A8000221C0B7104F0A4FF18E0FC335A681349B0
:102A90008A4201D001325A6002F03EFF02F01CFE71
:102AA0000CE0282202212923D019D155DC5504F04D
:102AB0001FFF02F031FF012002F0E4FB3868854679
:102AC00001E0002418E73869BD4613B0F0BDC046E8
:102AD0000000002030A300006B050020FFFFFF7FF7
:102AE000F0B5EBB00B936B46363300240D1C0A9205
:102AF0001C70061C02F08EF9079002F0A9F9031C65
:102B0000C43305901F6805F099FB6B4637331C22D0
:102B100013A8211C1C7007F0EDFB1AAB13935D4B3F
:102B20001A68FF329379022B10D1D2791A420DD054
:102B3000594BFA201B6880001B8F584303F042F961
:102B400002F0A0FB02F0C0FB02F0C6FD53490020DA
:102B5000A223021C0B7104F03BFF2B78B34202D07E
:102B600004F05AFE2E704B4B00221B689A6004F052
:102B700075FF041C02F094FDA04204D0201C02F05A
:102B800094FD04245CE013AB00936A46153B0B995B
:102B9000363201930390002302970A98FFF75EFDF7
:102BA0000FAD041C281C04F0CFFD10AB1B880622BF
:102BB000099370AB19782B7811401A4091423ED19D
:102BC00059073DD502F044F92D78079B06900895EA
:102BD000FE339D89002D00D1099D04F0AFFD10AB9F
:102BE0001D806946CB8F2A043E311A43CB888D88DD
:102BF0001B042B430899FFF7D5FC069A0E900EABE9
:102C0000FF321D20002110565956884217D11E2030
:102C1000012110565956884211D11F2151560222C6
:102C20009A5691420BD120220699FF32DB788A56C0
:102C30005BB2D31A5A4253415B421C4000E000246D
:102C4000144D174A2B689968914202D09A68013254
:102C50009A60052C0DD104F063FD2A683023FF3300
:102C6000D35C834207D104F045FDB04200D17EE73A
:102C700001E0042C04D0059BC4331F6002F09AFECF
:102C80006B4637331B78002B01D002F045FE201C29
:102C90006BB0F0BD00000020E41000206B050020A8
:102CA000FFFFFF7F70470000F0B5A7B000AFF864EA
:102CB00002F0B0F8D74B69461C68B86365682268B3
:102CC00068006A43521953000833DB089200DB00A6
:102CD000C91A131C0A33DB088D46DB00C91AB86415
:102CE0006846F8638D463963081C002107F002FB33
:102CF000636822689E005A43D3189A00131C0A3353
:102D0000DB08DB006846C01A85466B46FF217B6204
:102D100007F0F0FA6068236838625843396A6A46F7
:102D200043180733DB08DB00D21AF96C954678614B
:102D3000013968460022AD00F862F9617A6416290B
:102D400010D80123B44A8B40134206D1B34A134230
:102D500008D0B34B1B682E3302E0B14B1B683033F5
:102D60001B787B64BB6C786CAD085B08B6080138D7
:102D7000BD613B61FE6078637A6B013200D189E00E
:102D8000F969022903D9FB6C113B012B7ED8002085
:102D900002F0F6FD9F4BA34A1E6815683368BC6DB0
:102DA0007B65BB62BB6A013BBB646CD37468013C4E
:102DB000611C65D0BA6AB36869695343E31801338B
:102DC000FA6C9B005858032A2AD004DC012A06D04A
:102DD000022A0BD0EBE7FB6C113B012BE7D8E9692A
:102DE000A3005B58C01AC343DB171840BA6CBB6919
:102DF000396B5343E3189B0059583A6B401898506D
:102E00007B6B002BD3D1B96C3B694B43E3185B0060
:102E1000796C3B64FDF74EF93A6CFB6BD052C6E718
:102E2000B96CBB694B43396BE218920052583A6453
:102E3000824200D23864396C3A6BE3189B00995097
:102E4000BB6CFA68796A5A43A3189B007A605A5897
:102E50009446824200D984467B68786AE1188900EA
:102E600062460A50386C7F21831AFD2B01D85B081B
:102E7000D9B2FB6AB86C1A193B6A4343D15496E73E
:102E8000BA6CBA628EE7B86CBC657865796B01394B
:102E9000796371E7FB6B00217B635E4B1A221B6831
:102EA00018691E6878645D680533DB7F381C5C3008
:102EB000BB6207F01FFABA6B05235C21CB5553792F
:102EC0005D20C35593795E21CB53537AB86B602252
:102ED000D353837AFA6C6221CB53032A00D18AE060
:102EE00004DC012A14D0022A15D09DE0FB6C112BC2
:102EF00000DA99E0122B18DD132B00D094E07A69E8
:102F0000F86A8118002203F09FF90023BB6272E087
:102F1000F86B00F0ABF9F86B00F0A9F9381C002150
:102F20001A225C3007F0E6F97EE0F86C11280AD12D
:102F3000691E3C1C00220123B9643962BE63583407
:102F40007A62FB6209E0701E3C1C01210022B8631A
:102F50003862BD6454347962FA627E657B6D591EB5
:102F600079647965002B33D0BD65BA6D531EBB659E
:102F7000002AF3D0786C796A3E694218B8694243F6
:102F8000F86AC1188A18396B92005058796CBA697E
:102F90004E434A4384469A18386B9200125821686F
:102FA000386A9E19760081420EDA6146FA208B1A41
:102FB0008000891858434910002900DC0121FDF7E1
:102FC000C7F8FA6BB052D0E7F86B00233352CCE766
:102FD000FA6CF86B112A02D100F04BF901E000F015
:102FE00049F9381C5C3000211A2207F083F90023CC
:102FF000BE6B7B6419E0F86A00217863381C5C3092
:103000001A2207F077F9F96C032910D1786B00F0D8
:103010002FF90CE0D8020020040040000300030058
:10302000E410002000000020BD64022301E0BD6424
:103030000123BA6C3C1C7834796C6270627921711E
:103040007F21B86A8A4313438022E0705242381CC1
:10305000391C13435C311A227E3063712670A570CF
:1030600007F006F9201C796B04F0E8FBBD4627B099
:10307000F0BDC046F0B54F4B85B01B6800AF9A69F4
:10308000396001684568796051005A6901324A43E4
:10309000131C0833DB08DB006946C91A8D46F9604A
:1030A000081C002107F026F9434CF86823682A1C05
:1030B000996904F08BFF414EB860012822D102F0DB
:1030C000E1F82568BA682B1CFF33DA723368286987
:1030D000DB78BB602B1CFE335B89191CFB60FDF7A2
:1030E0008DF8BA688A4209DCFB6828699B1AF9687E
:1030F000BB60FDF783F8BA688A420DDC74350123A2
:103100002B7009E03368281C5A78F96805F00CF830
:1031100023680022FF33DA72FDF706FE2368FF33CF
:10312000DB7A002B07D002F0D7FA02F0F5FB002083
:1031300002F026FC37E002F0CFFA02F0EDFB02F0DD
:10314000F9F8012002F01CFC02F04CFA25682B1C57
:10315000FE3359892869FDF751F8F960002907D134
:103160002B69002B04DD02F0E5F8F86802F008FC9A
:1031700025682B1CFE3359892869FDF73FF8336811
:10318000DB7899420FD12B698B420CDD2B1C7433F9
:103190001E78002E07D179680868696904F026FE58
:1031A000236874331E703A680523BD46137005B05A
:1031B000F0BDC046D802002000000020E81000202A
:1031C00008B504F0EBF908BD0C4B10B51B681A6B81
:1031D000002A03DD996B5218D10F0BE000218A42BF
:1031E00008D1074909680A24085F9C6B01218442C1
:1031F00000DB111C6833197010BDC04600000020B0
:10320000E810002010B504F0F9FF164B164A1B68B1
:10321000196B0A2914DD041C84342488A1420FDAB6
:1032200064248230614300889C6B6043C14207D5AF
:10323000191CE6310978002902D11168013100E03A
:10324000002111601068191CF431012803DD0120F0
:103250000870002010600A78002A02D0683300222B
:103260001A7010BD000000206806002070477047EB
:10327000704770477047000008B502F09BFB01F0F3
:1032800013FF01F0C3FE01F077FE0F4B1B681A7AA3
:103290000E4B1B68FC33002A01D0022200E00322FF
:1032A0000B49DA6100230B700A49A0220B700A490E
:1032B000D2050B709363D36B9B0E9B06D36362B6F0
:1032C00003F05CF808BDC046F41000208400002024
:1032D00029000050280000502A00005038B5041C76
:1032E000FDF708F9051C04F089FF291CF4310B785F
:1032F000002B24D0124B00221B68DB6A013B07D352
:10330000180120180825405F0028F7D10122F5E7B1
:103310000C4B1B68186B002811D19D6B002D0ED132
:10332000F833002A0AD01A68FE2A01DC01321A603A
:103330001B68052B03DD00230B7000E01A6038BD0D
:10334000D80200200000002070B5051C0C1C161CC3
:1033500004F096FA002802D001280AD023E00E20BB
:103360004643AD19EA88FF23FE2A00D8D3B2637121
:1033700019E00E2070432818C288FF23FE2A00D8C7
:10338000D3B263710B220A238256C3560921D31A82
:103390000822415682568A1A934202DDA371E271D5
:1033A00001E0A271E37170BDF0B5B74B8FB01B683F
:1033B00004909E68DF68069602971E695F6905960D
:1033C000079700919F6904F061FAB04B01261B68D2
:1033D000E5331B780396002B5AD00026009D049CF1
:1033E00003960196AA4B019E1B681B6A9E424FDA08
:1033F0002B880AA803806B88438006F041F90420DB
:10340000235E002B3EDD238809AE33806388301CA9
:10341000738006F035F90021735E069A9A420ADA43
:103420000298984207DD0221725E059E964202DAFA
:10343000079E964224DC04202A5E002A1DDD954A60
:10344000019E12689420921980001218127952B2CB
:10345000012A12DD069EF21B9A420EDA029EF21932
:103460009A420ADD09AB059E02201B5EF21B9A42BE
:1034700003DA079EF2199A4202DC0023A38001E0DE
:1034800001260396019E0835013601960E34A9E700
:103490000127049D019700247D4B1B681B6A9C42F9
:1034A00000DB4CE1009E0AA83388038073884380C8
:1034B00006F0E6F8002C0ED1774B2C211A68FF316C
:1034C0008A4204DC0121521819711A6003E01C6061
:1034D000DC801C811C710427EB5F002B00DCE1E029
:1034E0006A4F90223B68FF32586C904200DDD9E071
:1034F0001A6B6A4B9A4200DDD4E02B8809AE338008
:103500006B88301C738006F0BBF80020325E624B83
:1035100094461A89D98805920222B05E0290002C46
:1035200018D109B26646891B07310E2912D80598B1
:10353000029902B2521A07320E2A0BD81A79002ABF
:1035400008D03A68E6321278002A03D101229A7232
:103550001C6002E0504B00229A724E4B9622196872
:10356000920009198B189B795BB2002B18DD4A4B2E
:103570009A7A002A14D00627DE5F03204643664469
:10358000F717BF0FBE1909AAB610168008269B5F51
:10359000029F5843C019C3179B0F18188010508002
:1035A00009AA10880AAB683184465E8818880978B1
:1035B0003B4B52881B68002901D1413300E0423364
:1035C000009F19780423FB5E002B11DD36B213B285
:1035D0009B1BDE179B1973408B4209DA674600B2CA
:1035E0003BB21B1AD8171B1843408B4200DA96E0F7
:1035F000039E002E00D192E00BAE33788021494229
:103600001943287BDF231940012318404023194325
:1036100010230001994301430F23019F994339432C
:103620003170614608B27778001218409F4311B29A
:103630000912384303400901F270AA88194363460E
:10364000B370131C12B27170FF2A00DDFF23311C0E
:10365000221C04983371FFF777FE301C04F020F928
:103660000C4B009E1B680422B25E1B196833002AB3
:1036700001DD012200E000221A702B88009F3B80B0
:103680006B887B804BE0C0461011002000000020BA
:10369000D8020020E002002030040020973A000009
:1036A0000C110020009F0423FB5E002B37DD0C2251
:1036B0000BA8002106F01EFE274B9A7A012A04D19E
:1036C000D9880AAA11801B8953800BA8037840214E
:1036D0000F22019E0B439343417833430370914380
:1036E0000AAB0127DF571E888C465988DB781740C4
:1036F0005BB21B01029363461F43029B17403B438F
:103700004370154B0022DE8086709A721981C17059
:1037100004F0C6F82B88009E33806B887380AB88DA
:10372000009E019AB380EB88371CF38001320F238F
:1037300008371A4001340E3500970192ACE6074B6A
:103740001B681A1DD26F191C743108330A70DA67AE
:1037500004F0BAF80FB0F0BD30040020E002002001
:10376000F0B5B54B9FB01A6830230B901091FF3322
:10377000D35C0D93B14B0D9C1B680693B04B1B683B
:103780001B6A0293012C03D1AE4B1B68E13302E0AC
:10379000AD4B1B6838331B78029D0F930E235D439E
:1037A0000B9F00247F19029A0E950C973B1C0394E3
:1037B0000A940E3B013A0BD3D988039D8D4200DA5F
:1037C00003910427D95F0A9C8C42F2DA0A91F0E750
:1037D0009D4B01211B680B9F1A1C4E321278029DD3
:1037E00091401A1C4F3212785033891A1A78013DD1
:1037F0008B1ADBB211930E9B07950E3BFB181C1C1A
:103800000493029B069D90270933BF00EA199B0091
:10381000079DD318043409930595059F013700D1FE
:10382000C7E00027E35F002B00D1BAE0864B0D9F75
:103830001B681A1C43321578002F04D11A1C6088AB
:1038400002CA14330BE00D9F012F0BD17D4B608812
:103850001B681A1CF8320D331168FF33043204F070
:10386000B6F9061CFCF746FEF4300278764B002AC7
:1038700005D01A6829321278964200DA161C1A68A6
:10388000131C44331B78002B01D1642349E02B1C0B
:103890006E4F069DEF191297787B1390002820D168
:1038A0000021675E64217943CF2080008C4629186F
:1038B0001D1C7543AC4512DDB74210DC8D68AC466B
:1038C0000125AC4467468F605E4F3F6880373F7884
:1038D000BC4506D112984573139D8D6001E0002010
:1038E0008860069F59483D18697B002913D000273E
:1038F000E15FCF20069F8C4680003918B44508DD73
:1039000088680F9F01308860B84204D10020687336
:1039100000E000208860069D4C4FE919497B002992
:10392000B3D0069D9027BF00E919059D4819057D74
:103930000027E05F002D03D00F9F6DB2BD4220DC59
:1039400064214143734399420EDB131C40331B78BF
:10395000039D61886B439B11994205DBD36B0A9FE2
:103960007B439B1198421CDA099D069F90200023FF
:103970008000638023802B603B185A68013A5A60AC
:103980000FE028321278324D724368435343984215
:1039900007DA099D0023638023802B604B68013B7D
:1039A0004B60059F099D013F043D05970E3C09951D
:1039B00033E7069C9025AD00079E63190022029F05
:1039C0005A609A191432109C0E9E05920B9DFA00B3
:1039D000A2180392AA190C3A0292079A079F6C3216
:1039E00052009A1804320D92079A902074325200B5
:1039F0009B1808330E930C237B438000069C1B18F6
:103A0000E3180893079F013700D1CCE20C9D0C9F6F
:103A10000A3D0026AB5F0E3F0995002B00D167E2FF
:103A2000059C0F9A237806320133DBB259B29142DA
:103A300010DC237012E0C04600000020E0020020ED
:103A4000D8020020101100200C1100203F030000BC
:103A5000102700000F9B059D04332B70059E00234B
:103A6000F356012B09D1049C039B2288083B029D3D
:103A70001A80039B2A88063B1A80AF4B1B681A1CCE
:103A80009C321278012A4DD19D331B78079E9E42AD
:103A900048DAAA4B1B681A1CE6321288002A41D168
:103AA000CE331C78002C3DD1A54B049D1B68002211
:103AB000AA5E191C90310968029E4A43191C12140F
:103AC0009431169209680022B25E079D4A43D020C5
:103AD00068431214059E179218941994A03000227E
:103AE0001818B25618A916AB00F04CFD07993420EF
:103AF000D02660434E43924D80192A68A03010189A
:103B0000211C16AA00F09CFEA2001AAB0134D05072
:103B1000042CEBD12868A0368019391C18AA00F0B3
:103B2000FDFFCAE1059C00256557012D00DCC4E1BD
:103B3000A81C0321FCF762FB039C0A91083C022DA0
:103B400046D1804B0025625F18687D4B0668196876
:103B5000B4464E690969039D4910511A063D4068F3
:103B60000027EB5FCF170138C91900027940401ACE
:103B70007F280ADD76109E1BF0176746013F361836
:103B80003F024640BF1B7F2F11DC049E029F002096
:103B9000305E0021795E801AC91A04F079FF0B2883
:103BA00005D92388049C23802B88029D2B80032326
:103BB000013B089F049E5A00BA183088111C5A31E4
:103BC000029C0880218860321180002BF0D110E027
:103BD000079D06236B430A9E069FF31821885A4AC5
:103BE0005B00FB189952039A063A1188A8229200AA
:103BF0009952059C00256557032D00DC47E1079F7E
:103C000006267E430A9F5048BC19069F64003C1953
:103C1000205A032110900A980430FCF7EFFA891912
:103C20004900A82379189B00E05A474ACB5A8F5A7B
:103C300012909C46042D16D1039B049D083B002046
:103C4000285E00215B5E029DC01A039BC21780188C
:103C5000063B504000215B5E0022AA5ED31ADA17B1
:103C60009B18534013E0049D0020285E0D9D002307
:103C7000EB5E029DC01A0022AA5E0E9DC1170023B2
:103C8000EB5E4018D31A4840D9175B184B40049D8F
:103C9000C0182B880D9D07992B80029D2B4A2B88DD
:103CA0000E9D2B80069D6B189B181978284A0029B9
:103CB00006D0116856310988884208DC002105E0E9
:103CC000116858310988884201DB012119701B787D
:103CD000002B3FD112688021131C543212885233BA
:103CE0001B8800924A0003F061FF174F049D061CD9
:103CF0000021695EE05F029F0B1ADD175A196A40C6
:103D000000257D5FA827BF009446E25FAD1AEA1741
:103D1000AD18554065442B1C321C05F035FD049B45
:103D2000321C1880E05F029C2B1C0021615E05F0B4
:103D30002BFD029D288086E010110020000000204D
:103D4000E0020020D80200209A02000012030000C6
:103D50000C110020109C129DA1B2CF1B3FB2FB0F93
:103D6000DF197F10AAB213976746D31B1BB2049CBE
:103D7000DD0FEB180025645F029F5B100B94139C12
:103D8000149300203F5E0B190B9D149C15971BB2DA
:103D9000EB1A1219159DDF1712B2DB19AA1A7B4014
:103DA000D717D2197A409B180024802B01DD1C1CE8
:103DB000803C0A9803210530FCF720FA7B4B069DD6
:103DC0001F68109A89193B1C4F3349001E786918E7
:103DD00010B25D78764A119B58438B5E7343C018CE
:103DE0000B9B6B43C0183B1C4E331A785137104164
:103DF0000A9012983B7807B211984743A820800098
:103E0000095E4E43BE19159F14997D437519139E83
:103E1000594373430A9F1141134115418022F818F9
:103E20006D18231C0B99D20005F0AEFC049E029F76
:103E300030808022231C0021795E281CD20005F0EE
:103E4000A3FC029C2080039B099E043B0021715E21
:103E50000025585F554D431A2F68DC171B19634026
:103E60003A22BA5E05F090FC099E039B0C9C3080C0
:103E7000023B083C188821882B683A27DA5F431AEE
:103E8000DD175B196B4005F07FFC208015E0039B7C
:103E9000049E083B0022B25E0027DB5F049CD3181F
:103EA0005B102380039B029D063B0022AA5E002636
:103EB0009B5F029FD3185B103B80059C0023E35659
:103EC0000F9DAB4204DC0123099E5B42338006E078
:103ED000069F902080003B185A6801325A60069C69
:103EE0009025AD00079E63199B1900229A773EE04A
:103EF000059F0022BA560F9CA24230DD0399043977
:103F000000254A5F002A32D0069E9027BF00079DF9
:103F1000F2195419A07F0130C0B2A077234C40B2EF
:103F2000246839342478A04202DD059E33701EE0F7
:103F3000039B049F083B1B88029C3B80039B099DBD
:103F4000063B1B8823800B882B80039B023B198830
:103F50000C9B083B198053680133536007E0069FB0
:103F6000079C144D059E3A19521933701370079E21
:103F7000059F013E039C049D07960C9E013F083C53
:103F80000E3D0E3E05970394029F0D9C04950C96E2
:103F90000E9D089E0E3F023C023D0C3E02970D9482
:103FA0000E9508962EE51FB0F0BDC0460C110020FE
:103FB0009A0200001203000008B5FFF7D1FB08BD0C
:103FC000F0B58FB0059007910A920B930024404BF7
:103FD0001B68DB6A9C4278DA059F2301FB180820E6
:103FE0001B5E002B6FD0079FA300FB180327DF5732
:103FF00008979B78013F5BB206930497089F04984B
:1040000001370997B8425EDC069E013E069B0133EC
:104010009E4255DC2E4B04991B6801319A680A9F19
:104020005143481C80193D5C013D47D3DB6A9D42EA
:1040300044DAAC4242D0079FA300DB5F254F40002B
:104040003F687F8EBC46149FC05B834236DC069F70
:104050006046C91943430131149F4900C95B9B1154
:104060008B422BDA099F7A43B2180132149F520017
:10407000D25B934222DAA54202DB2B1C251C1C1CBE
:10408000059821010DAF41180A31381C042206F0B1
:10409000EFF8059A29015118381C0A3104F058F933
:1040A00000970A9F231C01970B9F05980297149F66
:1040B000079903972A1C04F069F92C1C0236A5E71E
:1040C000049F023799E7013481E70FB0F0BDC04685
:1040D000D80200200C110020F0B593B00C920C1CFB
:1040E0001190FCF7F5F9FCF7FFF9974B07251B68D2
:1040F0001A7B0895062A00D80892944A1268F4326E
:104100001278002A05D11E7A07960A215F5E06976B
:1041100006E08F4B1B681D7A07950A27DE5F06961F
:104120008C4D8D492B680C9F1A685E680A709A68DE
:1041300004238A7001329200CB70BA1851230220F6
:104140004E700B7103F044FC0023A21DD3770232A2
:10415000D3777F26631DDE77E31DDE777B4B1B68FD
:10416000E5331A78002A08D129680B684968013BB1
:104170000139C9B2DBB2099103E00E210991102384
:1041800001220A92704A2E68126800270492734A2C
:104190005BB21268B4460E92714A05971268381CD9
:1041A0000F920A994AB2934200DA96E009995D00AB
:1041B0004AB20B95002A00DA8DE06646B6685D1CAF
:1041C0007543049E0135AD180C9FA9000095357804
:1041D000C95967467E68002D09D0371C5F430E9D84
:1041E000AD18ED5D0F9F6943BF68794309135E43C6
:1041F000189D9619B6007659119F360C711A009EBB
:104200007500E953002953DB049E0E257557A9421A
:1042100013DB27684D1B7D19256065690F27013564
:104220006561F757351C0E26AE576568B94201DC4B
:104230008E1B00E0BE1BAE196660E668B14204DD6D
:10424000D7B2DDB210970D95E160089EB1421BDB3D
:10425000251C08351F26AE57964200DAEA77E51D81
:104260001F26AE57964200DDEA77A51D1F26AE57E2
:104270009E4200DAEB77651D1F26AE579E4200DD99
:10428000EB77059F013705978DB21A9F5600019570
:10429000BD5B019F40187D192F1C1A9DAF53199DBE
:1042A0000B9EAF5B019EF519199F0B9EBD5310E04D
:1042B000049F10257D57A94206DCA6684D1B751981
:1042C000A560A5690135A5612769B94200DA2161B8
:1042D000401A013A6EE7013B63E71E4B01251B685C
:1042E000D968FBF735FF1F497C235B42221CCB704A
:1042F000E06176231C32281C0B714D7003F068FBC3
:10430000059EA21D26621F21631D51561F229A562B
:10431000134B1B68914201DB1D7101E000221A71F1
:10432000109F231C0D9D28331F705D70E668079F4A
:104330000120BE4205DA2369069DD80FEA179D4287
:104340005041C0B213B0F0BD0011002000000020A9
:1043500008110020D802002064050020041100206C
:10436000DC0200208C0000200B4B09681A68302307
:10437000FF33D35C094A1268507B48438011002BFD
:1043800001D1137B04E0012B05D1054B1B68DB79C0
:10439000984200DA181C704700000020001100202D
:1043A00008110020F0B597B01E1C5D4F1CAB1B78A8
:1043B0000A923A6806900C1C0B9303215156202058
:1043C000411A022010564900091A4910554DC9B228
:1043D00005912B68907A19781B790090D27A05980C
:1043E0000192029072681D9805F04EFD38682B68A6
:1043F0007268067A19791B780096407A059E0190BA
:1044000002961E9805F040FD002124220DA805F01B
:1044100071FFA3687F22180A190C00260C932272E0
:10442000A27240B25AB249B21B162F686672E67287
:1044300005900791089304960598824251DC1D9DD2
:104440005300EB180993079B089E501CB34246DCAF
:10445000B9680A9D4143591801314E00755F5900F2
:10446000AC461E9D664669180989761A0999B446B4
:104470000E896546A91B0B9EB14213DD0B256557BE
:104480009D4200DAE3720A2565579D4200DDA37262
:1044900009256557954200DA6272082565579542ED
:1044A00000DD2272CD1F072D08D80DADED5C012671
:1044B000AC46B44466460DADEE5401E0002904DD7F
:1044C000049D8D4202DA049100E00021BE68069D41
:1044D000704318180130800041510133B4E7021CC9
:1044E000AAE70CA80DA9069A00F076FB0D4E0E491E
:1044F0003368049D5A68256018684A709A68069D5A
:104500008A707C2301325B4292000870CB70AA183B
:10451000832305200B7103F05BFA17B0F0BDC04692
:1045200014110020D802002064050020114B70B542
:10453000444201209C421BDC201C0F49FBF708FE73
:104540000D49421C0D1C5543661BF317F6185E40BF
:104550000A4B4000C05A52007043094EAD19641B0B
:10456000E51764196C40D55A6C430019FBF7F0FD50
:1045700070BDC0466F1101001027000032A300007B
:10458000F0D8FFFFF0B50F1CAC49D3B00E68049013
:104590009E36012A25D11C685868049B0021FA2206
:1045A0001A63013100221C60D8605A601A619A6057
:1045B0005A619A61DA611A625A629A62DA62343333
:1045C0000429ECD1049DC8232A1CDB000432AB6112
:1045D000EB64AB65D3678832136093609362536377
:1045E000D3630024A20000239219181C1A255D43EE
:1045F00004994D192D6BD15A023369434018082B89
:10460000F4D1FA218900FBF755FD38530234082C08
:10461000E8D10AA80021102205F06CFE0025342301
:104620006B4304980EA9C3181B6B00240693EB0080
:10463000F31805932B0159180791059A069B105BF7
:10464000395B5843FBF736FD079963002822C850B1
:10465000D218694652582833101802345850082C82
:10466000EBD10135042DDAD11EA80021D0220EADE8
:10467000002605F03FFE20AC079506960023049A1D
:104680001E1C181C079F1568F95810334D4340191C
:10469000D568343269437618402BF3D1069F6946BA
:1046A000BB0028335D58271C291CFBF751FD083F30
:1046B0003860291C301CFBF74BFD069E6060002E05
:1046C00035D00023049A1E1C181C079FF958576800
:1046D00010334F43C0191769343279437618402B91
:1046E000F3D1291CFBF734FD271F3860291C301C2F
:1046F000FBF72EFD069EA060012E18D00023049A21
:104700001E1C181C079FF958976810334F43C01997
:104710005769343279437618402BF3D1291CFBF7C3
:1047200017FD291C2060301CFBF712FDE060069D80
:10473000079E01350436069534340796042D9DD125
:1047400026AC0027BA000EABD01801920023049AC1
:104750009C4606930793059308930993C15895695E
:10476000069E4D43AC44D56910334D437619156A06
:1047700006964D43079E7619556A07964D43059E4A
:104780007619956A05964D43089E7619D56A08965E
:104790006943099E343276180996402BDED101997F
:1047A0000AA80D586046291CFBF7D2FC261C083EBF
:1047B0003060002F1BD0291C0698FBF7C9FC261F70
:1047C0003060291C0598FBF7C3FC6060012F0ED0F8
:1047D000291C0798FBF7BCFC291C20600898FBF7F4
:1047E000B7FC291CA0600998FBF7B2FCE060013718
:1047F0003434042FA6D1049B00211EAA8D585218D0
:1048000056689768D0681D605E60156956699F603C
:104810009769D8601D615E619F61D069156A566AAB
:10482000976AD26A3431D8611D625E629F62DA6231
:104830003433D029E1D153B0F0BDC046101100206F
:10484000F0B5B44B91B0041C94461B68012912D0FA
:1048500007DC00291BD1BE339F881D780297DB88B7
:1048600014E002290DD0032911D1BE331F8ADD784F
:1048700002975B8A0AE0BE331F895D7802975B89E5
:1048800004E0BE339F899D780297DB890693012D52
:1048900061D0002D4DD0022D7BD1A76863682068C0
:1048A0001911DB1908977A110A93676923690918A6
:1048B000E0688A181911DB1909180D920B937A1107
:1048C000A36A8A180C92DE0FE26AF6187110206A49
:1048D000D60FB61876100997C718BF190197A069A7
:1048E000E7693F18206A0397C70F3F1803987F10A6
:1048F000C719E0693F18606A3F1801987F1803974D
:10490000C70F3F1803987F10C7190497606AE769BB
:104910003F187818216A676A4018F918C018C91832
:1049200080199B18891803900E910793029BD61843
:104930003BE02768A0690D97E7682E1C0C97029F43
:1049400007953F1804970E950195039509950B95CA
:1049500008950A9529E0676820683B110A9727693E
:104960001B18E0683A111218E0690C92A269616A9A
:104970000D930B97029B4700BF1800267F18401825
:10498000C918049703900E91079601960996089608
:104990000BE0002607960E9601960396049609965C
:1049A0000B960C9608960A960D9667463F680D98EA
:1049B0003F1A60464368029704980C9FDB1BC71799
:1049C0003F0F05933F18069B3F11FF18391C8001CC
:1049D000FBF7BEFB039906908801391CFBF7B8FB77
:1049E000019A0F90391C9001FBF7B2FB0D9B0699C1
:1049F0009A02029B4B43D3189B1223600A9B0F9988
:104A00009A01029B4B43D3181B019B126360089BC6
:104A10000C999A01029B4343D3181B019B12A3607C
:104A20008A02059B06994B43D2189212E2600B9AB8
:104A30000F999301059A4A439B181B019B1223610E
:104A4000099B06999A01059B4343D3181B019B12AE
:104A500063618023049ADB005B1A5A43D117890DE6
:104A60008A189212A261002D05D1E5612562656266
:104A7000A562E56239E0039A5A43D117890D8A1875
:104A80009212E2610F9A03995242514304920E9A94
:104A90008C469202111C61440392CA17920D9446EF
:104AA000614489126162022D1BD10199019A4B4325
:104AB000D917890DCB189B122362049B07995A437F
:104AC0008B02D318DA17920DD318019AB60250430D
:104AD000301AC617B60D30189B128012A362E0621E
:104AE00003E000232362A362E3620298059B404334
:104AF0005B43C0186423391C5843FBF729FB401063
:104B00004042FFF713FD044B391C5843FBF720FBD1
:104B100011B0F0BD1011002010270000F7B50024DF
:104B2000051C0191171C0093261C009962003B5B39
:104B30008858FA2158431A236343EB1818638900F5
:104B4000FBF7B8FA02348619082CEED100242F198D
:104B5000386B311CFBF7AEFA002801D0386301E056
:104B600001233B633434D02CF1D10024201C261CBB
:104B7000221C2B6B2968013259430818E9689E19D9
:104B8000594334350C19042AF3D1311CFBF7E0FAF0
:104B9000311C051C201CFBF7DBFA041C002D01D086
:104BA000002806D10A490020FA23021C0B7102F0EA
:104BB0000FFF084B1B681A1C98329C3312681B6845
:104BC00055435C43019A2D14241415805480F7BD7D
:104BD0006B050020E0020020F0B5574B93B000AF0A
:104BE000B9621968161C4A6838640868131C434384
:104BF0005B000833DB08DB006C46E41AA546F8636B
:104C00003B6C68467863DB783C6C5BB27B62A47873
:104C1000550064B294463C63FD62221C786A82426D
:104C200058DCB86A835C082B52D93C6C0023E356ED
:104C3000604658430125655710187C6B40003D6263
:104C400020180025F861BD633D6AAB4240DC0624B4
:104C5000002B09D0886858438018800034583018D9
:104C6000456880686419241888680133786158435E
:104C700080188000355830186419F860FD6B806822
:104C8000013DB86020185C1EAC4211D07C695D1CEF
:104C90006543AD18AD00BD61755940197864B869B8
:104CA0007C6C35186868AD6824187C64641900E071
:104CB000841DF86845680320684304190D204443A7
:104CC000FD69B86B24122C52FC6A0019B863BBE76B
:104CD0000132A3E76246D3079A1A3B6BBA633D6C75
:104CE0000322AA56934223DCBC6AE25C082A1DD93F
:104CF0003D6C0022AA5664465443B86B7D6B241861
:104D0000E41864002C197C640020FD6A3C6C401996
:104D100001256557AA4209DC8D68013255437C6C38
:104D20005D190135245AAD00AC51EEE70133D6E7E9
:104D3000BD4613B0F0BDC046D8020020F0B5304FDC
:104D400085B0019038680A1C031CFF3302909E79DD
:104D50000B1C143303930023022E2AD1029CFF3430
:104D6000E479344225D01478012C07D10D7D651BE0
:104D7000E8172D184540072D0DD108E0052C12D15C
:104D80000D7D641BE01724184440012C07D1541AF0
:104D90000E2C12DD13E05578002D06D00DE054786E
:104DA000002C0CD009E0022C07D0033C012C06D8C3
:104DB00003E010780C7DA04201D00133DBB2039DEB
:104DC0000132AA42C8D10022022B15D80198012332
:104DD00003700B7D591EC9B2062901D8094A525CDD
:104DE0003868FF308179022906D1C079084203D0A2
:104DF000063B022B00D81A22101C05B0F0BDC0469D
:104E00000000002042A30000014B18607047C0461C
:104E1000F4100020014B18687047C046F4100020C1
:104E2000014B18607047C046F0100020014B186815
:104E30007047C046F0100020014B18607047C04614
:104E4000EC100020014B18687047C046EC100020A1
:104E5000014B18687047C04684000020F7B50E4B20
:104E600019688B795F1E15D34A79013A10D34D79B1
:104E7000561CAC1C019401242540019C65195D431E
:104E80007419064DA40064192568C5402560ECE737
:104E90003B1CE7E7F7BDC046F4100020004000507F
:104EA0008D23013B002B01D0C046FAE7044B1022B2
:104EB0001B78DBB21807C00F134018437047C04679
:104EC0002B0000500F4BF7B518261E700E4BA02775
:104ED0001E70FFF7E5FFFF050B4B01AC00252C37DB
:104EE00060701D703E70FFF7DBFF064B20703D7059
:104EF0001D7023786278181C504040001340034313
:104F0000D8B2FEBD2A0000502D00005010B50D4B48
:104F100000201B78AA2B12D10B4B1C780B4B64B2D0
:104F200018780B4B40B219780A4B20181A780A4BA4
:104F300049B21B7840188018C01A43425841C0B289
:104F400010BDC04650000200510002005200020095
:104F50005300020054000200550002008023DB02CF
:104F60000022188059809A80C046024B188880B26F
:104F70007047C04606000400154BC02292009858A6
:104F80001449014099509958FF2081434020014322
:104F900099509858104901408020000401439950CD
:104FA000985880210002000A090601439950022204
:104FB0001A6001221A60082104221A601960FC3369
:104FC00000215960054B19690A431A617047C046B0
:104FD00000E100E0FF00FFFFFFFF00FF00ED00E049
:104FE00013B5094A042413780021DBB21C43019154
:104FF0000198F421FF31884205DC1370C04614701B
:1050000001990131F3E713BD0D00005082B0002279
:10501000019201AB55221A70392252429A70012234
:10502000DA70019AA023DB059A6102B07047000094
:105030000122A023DB0510400206034998690840BD
:10504000104398617047C046FFFFFFFE82B0002208
:10505000019201220A40891801303F2201AB104021
:10506000C9B21870481C023102408900D9705A70C8
:10507000019AA023DB05DA61196A024A0A401A6222
:1050800002B07047FFCFFFFF0002064B000A013855
:10509000002258609A6005221A60C0461A68D1033F
:1050A000FCD5704710E000E0F0B5534F85B03B6889
:1050B0001A1C503215780232196D127853331E784B
:1050C0000F231407994312092D0701922D0F0B1C72
:1050D00080222B4352001343484A0395484D134006
:1050E000484A2B4048491340240F0B4001992204A1
:1050F00013430A0545493607360F0B400096134304
:105100003206434E029433401343424AA024E4053E
:105110001340E360FFF764FF3B68E26851331B789C
:105120001540DB069B0FDB021D43E560E268802330
:105130009B001343E360E26880239B011343E36019
:10514000029C039DFFF7E2FE002813D0324F882017
:1051500039781E34C9B2FAF7FBFF39784443C9B233
:105160008820FAF7F5FF0F3545431E3C00230F3D1D
:105170009C4203DB231E0F2B00DD0F230F229542E1
:1051800000DD151CA024E4051F491A40E368120441
:105190000B401343E360EB43E268DB171D400F2332
:1051A0009A431D401543E560E368F0229343802253
:1051B0001343E360E368154A18481340E360E3686B
:1051C0003340E360FFF760FFE26880235B05134331
:1051D000E3600099E2680B0616401E43E660104843
:1051E000FFF752FF019B09491A05E3680B4013437F
:1051F000E36005B0F0BDC046F0100020FFF9FFFFEE
:10520000FFE7FFFFFFDFFFFFFFFFF0FFFFFF0FFFE5
:10521000FFFFFFF0FFFFFFEF54000200FF0F000051
:10522000FF6F0000064A074B12680120FC32D2696A
:1052300019789040021C0A43D2B21A707047C046D7
:1052400084000020290000500549064B09681A789F
:10525000FC31C9690120884082431A707047C046FA
:105260008400002029000050044B1878044B1B6870
:10527000FC33DB69184101231840704729000050B6
:1052800084000020044B82B0019001AA188092781B
:105290009A7002B07047C0462400005007B500F075
:1052A0006DFD064B019001AA188092789A70044B0C
:1052B00000221A70034B0122DA7707BD2400005048
:1052C000D810002008000050034B00221A70034B36
:1052D0000122DA777047C046D8100020080000503D
:1052E00072B6084B1B5C002B03D1C04662B630BFC0
:1052F000F6E762B6A023DB059968034A0A409A6084
:105300007047C046D8100020FFFFF9FF72B6074B68
:105310001B5C002B02D1C04662B6F7E762B6A02341
:10532000DB059968024A0A409A607047D81000204D
:10533000FFFFF9FFA023DB055A680121120E586810
:105340009143034A090602400A435A607047C04627
:10535000FFFFFFFE08B5074B1B681A1C5732127877
:1053600058331B785200013250439940FAF7F0FE4F
:1053700008BDC046F010002008B5044B1B685A3326
:10538000197849000131FFF7E5FF08BDF010002052
:1053900008B5A0230120DB055870FFF7A1FFFFF738
:1053A000C9FF08BDF7B5A026041CF605042808D0DF
:1053B00005280ED15A4B1B681A1CE4321768E833D3
:1053C00005E0574B1B681A1CEC321768F0331B685A
:1053D00021E0544B1B685F6C9B6C7361FBF78AF890
:1053E000E7300378002B17D004F01EFF04F046FED0
:1053F00081787F2211408904019171690B1C4A490F
:105400000B40019919437161C178474B0A4071699A
:1054100092040B4013437361A023DB051F611E69D7
:105420001F231E40FFF772FD00280AD03F4B882043
:1054300019780436C9B2FAF78BFE46430023043EBE
:1054400003D4331E1F2B00DD1F23A022D205108A98
:105450001F210B40884303431382032C34D005DC07
:10546000012C2DD013DC002C11D030E0052C0AD0FB
:1054700005DB062C2BD12A4B1D68FA3527E0284B7B
:105480001D68F43523E0264B1D68F7351FE0FBF758
:1054900031F8031CCE331B78002B03D0204B1D6842
:1054A000533514E0E7300378002B05D004F0BCFE40
:1054B00004F0E4FD051D0AE01A4B1D68563506E0B0
:1054C000184B1D68593502E0164B1D685C35A0234A
:1054D000DB05596928783F22104091430143596107
:1054E00068781F215D6908401149C00229400143C5
:1054F00059611049640009680C19211C9A31087817
:10550000596810409143014359609B342178586891
:105510000A401102084A02400A435A60F7BDC046D9
:10552000F4100020F0100020FFFF03FE54000200E2
:10553000FF07FFFF84000020FFC0FFFF244BF7B5EB
:105540001A68244B1B6859331B785B069B0E01932A
:10555000131C4933197800238D005519581E5B1808
:10556000002B27D053181B184A331B788024D318DC
:105570005E78A023DB055F68E4033C435C60019C2C
:10558000B606240400945F68B60EBC46124F64460B
:105590002740009C27435F60C04624367600840085
:1055A000F65A2C19C83426605E680C4C34405C6096
:1055B000031CD3E7131C493309491B78C8324B70CD
:1055C0000423CB700F20B0230B7102F001FAF7BD5A
:1055D00084000020F0100020FFFFC0FFFFFFBFFF8E
:1055E0008C000020F7B5FFF7A9FF134B00241D68BE
:1055F0002B1C49331E78731C9B005B420093B30045
:10560000EB180193009B043C9C4208D0019B0121B4
:105610001F19C8373868FFF79DFE3860F2E7074961
:105620002A1C0423CB70C832B0230F204E700B719C
:1056300002F0CEF9F7BDC046840000208C000020A7
:10564000044B00225A70A023DB055A7001221A7005
:105650007047C046D8100020A023DB059968064A91
:105660000A40802189020A439A60044A002191700D
:1056700001229A707047C046FFFFF9FFD810002042
:10568000024B1B68C03318687047C0468400002076
:10569000024B1B68C03318607047C046840000206E
:1056A000A023DB059868C0B2704730B5A023DB05A6
:1056B0009B68DBB283420ED001DA013300E0013B8C
:1056C000A022D2059568FF211C1C8D430C40291C8B
:1056D00021439160EEE730BD08B50020FFF700FEE2
:1056E00008BD0000034B1B68573318784000013099
:1056F0007047C046F0100020024B1B6858331878E2
:105700007047C046F010002000487047001000505D
:10571000004870470020005000487047004000508B
:10572000084B01201B685B799A1C0340D318064A7A
:1057300012689532107801385843044B8000C01825
:105740007047C046F4100020840000200040005044
:10575000074B01201B685B799A1C0340D318054A4C
:105760001268913210785843034B8000C01870477C
:10577000F41000208400002004400050F0B585B0F3
:1057800000AFFAF7B7FE5F4B1988031CCC331A88B9
:105790008A181A805C4B1B681A78BB6053B2042BC2
:1057A00027D15A4B1C68231CF6331B78FB60FFF78C
:1057B000B7FF0222561EB44600D2A0E06379013B37
:1057C00015D365790121AE1C0D407119514301318A
:1057D000CD18AD007D60BD68EE185E3636787D6808
:1057E000891989000958FE68F1402950E7E76246A7
:1057F000E0E7052B21D1454B1C68231CF9331B78AE
:10580000BB60FFF78DFF0423591EF96077D36279DF
:10581000013A10D36179551C7D6001258E1C294009
:10582000711859437D68BE686D18AD004519296827
:10583000F1402960ECE7FB68E6E7002A45D0022B3F
:105840000BD1CE300378002B03D0304B1B6855337F
:1058500038E02F4B1B68583334E0032B03D12C4B1B
:105860001B685E332EE0012B27D16D467D60FFF76C
:105870006FFF264B69461B68061C5C79A5002B1C34
:105880000A33DB08DB00C91A8D466B46FB60013C1E
:105890000BD3B9680B195E331B789B009859FFF73F
:1058A0006BFDFA68A300D050F1E72A1C301CF968A0
:1058B00004F0DEFC7D68AD4607E0062B05D1134BF6
:1058C0001B68FC331878FFF7C9FA114B1B68553376
:1058D0001B78002B13D00D4B1A685379013B0ED364
:1058E000517901258C1C294061189479581C614319
:1058F000084E40188000801900210160EEE7BD4687
:1059000005B0F0BD7000005084000020F4100020AD
:10591000F01000200040005008B5A0230120DB0556
:105920005870FFF7DDFCFFF705FDFFF727FF08BD07
:1059300070B5041C104E114D11D10120FFF732FD3E
:10594000336801221A70A023DB056C705C701A703A
:10595000FFF7E2FFFFF7EEFCFFF744FE0224201CF6
:10596000FFF720FD336800221C70A023DB056A705E
:105970005A7001221A7070BD84000020D8100020D7
:1059800008B5FFF7D5FFFFF7C7FF08BD10B5A02387
:10599000DB051C6A0005064A000D010422400A438B
:1059A0001A621A6A120B12031043186210BDC04625
:1059B000FFFF00F073B5174BA0221B68D20591685A
:1059C000D96C4C3391601C78FFF7A0FA124D002877
:1059D00012D0124B124A1B7812782E6852B25BB268
:1059E0000092201C1021D12202F0E0F82B68C4366E
:1059F0003060C4331B68E418002C01DA002402E094
:105A0000FF2C00DDFF242B68E0B2C0331C60FFF7E1
:105A10004CFE73BDF01000208400002053000200F3
:105A20005200020008B5002801D0012801D100F081
:105A3000A5FCFFF7BFFFFFF737FBFFF7E7FA08BD4D
:105A400070B51F4B13211B68A0B0DA7A0023133AFC
:105A5000D2B291425B410221C91AA023DB055869E9
:105A60003F2210405C688022D20322435A60421ECB
:105A7000A023D2B2DB05FF2A11D05E683F25114C6E
:105A800015402D0434402C435C60C0460C1C24346B
:105A900064001C5B6D465300EC52013AE8E759681C
:105AA000094A0A4009495A6002234870CB70032012
:105AB000B3236A460B7101F08BFF20B070BDC04666
:105AC000F4100020FFFFC0FFFFFFBFFF8C0000208D
:105AD000084B0948196810B5046808688B680130DC
