:1000000000B3000000020000BC7A00000000000005
:1000100000000000000000000000000000000000E0
:10002000801878FFE4B8200118F6D8F99000007F16
:10003000007E07E4F0A3DFFCDEFA7581210233685D
:10004000EFB4100575B2928007EFB4040B75B28E51
:1000500075B6F9E4F5B7800DEFB4080975B28E7581
:10006000B6F375B70143B201223200022BDD7F05E2
:100070001210DB12396A1234A49002367401F002B5
:100080003050000236B175B28E75B6F9E4F5B7435B
:10009000B20143AA01023B1500000002104990037F
:1000A000D47410F0A3E4F0A3743FF0A374FFF0E461
:1000B000FDFCF9758A10538AEF0000009003D4E02C
:1000C000FEA3E0123762FF69F90DBD00010CBC2FE1
:1000D000EBBDFFE89003D6E0FEA3E0F5828E83E45B
:1000E000936970089003497402F08005E490034915
:1000F000F0758A50538AEF00000022EFD3940F501E
:100100000874972F121436E4F0220000000000005B
:100110000200ABB325E025E0241EF582E43403F5AC
:1001200083E0F8A3E0F9A3E0FAA3E0FB90032AE060
:10013000FCA3E0FDA3E0FEA3E02275F00212252758
:1001400075F099E0FCA3E0FDEFA42451F582E5F001
:100150003400F583229003D3E0FBEF2466FFEE34F6
:10016000FEFE7C007D0A1224107D32122422EF2430
:100170009AFFEE3401FEEB75F002A42433F582E51C
:10018000F03400F5832275F00212252775F099E00E
:10019000FCA3E0FDEFA42463F582E5F03400F583D1
:1001A000229021C4C39BFBEE9AFAED99F9EC98F8E2
:1001B000E493FE740193FFE4FCFDC30224D975F0BF
:1001C00099EEA424B4F582E5F03400F583E5822F9E
:1001D000F582E43583F583E4F075F099EEA424BD4F
:1001E000F582E5F03400F583E5822FF582E435836E
:1001F000F58322E0FEA3E0FF9003E6E0FD75F00248
:10020000A42487F582E5F03400F583EE8FF0122404
:10021000AD75F002EDA42487F582E5F03400F58396
:1002200022F583E493FC740193FD75F002EFA422A0
:100230009003D2E0FE75F099A4243FF582E5F034F6
:1002400000F583EF75F0020225279003D3E0FBEF62
:100250002424FFEE34FAFE7C007D0A1224107D1E59
:10026000122422EF24DCFFEE3405FEEB75F002A42D
:10027000242DF582E5F03400F5832275F002EBA41D
:100280002427F582E5F03400F583E0FCA3E0FDEBE4
:1002900075F002A42421F582E5F03400F5832224D0
:1002A00010F582E5F03402F583ECF0A3EDF0900355
:1002B000D3E0229003D3E075F099A42475F582E58C
:1002C000F03400F583229003E6E0FD75F099A42454
:1002D00099F582E5F03400F5832275F099EFA424B6
:1002E0003FF582E5F03400F583EE75F00202252734
:1002F000C39BFBEE9AFAED99F9EC98F822E04401E1
:10030000F0E4900020F0900318229003E675F09935
:10031000E0FFA4243FF582E5F03400F58322F0A34A
:10032000F0A3F0A3F0A3F0A3F0A32275F002EC1267
:100330002527E0FEA3E0FFD322E0FEA3E0C39DFF5C
:10034000EE9C229003D3E025E024D5F582E434032B
:10035000F58322C3E0FDEF9D7480F86E982275F05E
:1003600002EDA42427F582E5F03400F5832275F030
:1003700002A4240AF582E5F0340222E0241CF5826E
:10038000E43402F583229003E6E0FF75F09922F54C
:1003900083E0FCA3E0FD75F00222F0900348E054F6
:1003A000F0F022FFEB25E025E022F583E4F07F0169
:1003B00022CBEFCBEBD394032275F002A42416F5E5
:1003C00082E5F03402229003E6E0FF241FF582E488
:1003D0003402F5832274222EF582E43402F583225E
:1003E0009003EEE0FF24B4F582E43400F58322E4C8
:1003F000F0A3F075F00222E0FCA3E0FD75F0992275
:10040000ECF0A3EDF09003E7E004F022E04406F006
:100410009000207401F0229003E9E0FEA3E0FF9039
:1004200003E6E0FD75F09922EE8FF01224AD75F031
:100430009922EF25E024DBF582E43403F583229052
:10044000001FE0FF9003D3E0C39F22E4F0A3F07508
:10045000F0992274972BF582E43402F583227449D3
:100460002BF582E43402F5832274F02BF582E43418
:1004700002F5832274302BF582E43403F583227471
:10048000092BF582E43403F5832274382BF582E4DA
:100490003402F5832274032BF582E43400F58322C1
:1004A00074582BF582E43402F5832274192BF582FB
:1004B000E43403F58322742E2EF582E43402F583AE
:1004C0002275F099A424B4F582E5F03400222401C9
:1004D000FFE43EFEE43DFDE43CFC90032A0224EAF6
:1004E000F0A3F0A3F0A3F0A322E0FFA3E09002FFAB
:1004F000CFF0A3EFF09002FFE022F074BD2FF58261
:10050000E43400F5832290022DE0640122E490039C
:10051000C8F09002367402F022E4900226F09003B4
:1005200002F0222439F582E5F03400229003E6E05F
:10053000FF75F00222F583E0FEA3E0780322E0FEDF
:10054000A3E0C39DEE9C22F074232EF582E43402D6
:10055000F583E4F02225E02476F582E43423F58364
:10056000E49322E025E024B6F582E43421F58322E9
:10057000E0FEC8EDC80822FBEA541FF0EBA3F075BB
:10058000F002ED22902EC5E4F0902ECDF0A3F022E3
:10059000F582E43403F583229402EE648094802291
:1005A00075F002EC122527E475F00122F0902EC3BD
:1005B00074ADF0A37406F022E0FCA3E0FDC3EF9D50
:1005C000FFEE9C22902EC6F0902EC57401F0229072
:1005D0002EC97428F022C3EF94FEEE6480947F222B
:1005E000C3EF94F6EE6480947F229DEC6480F8EE75
:1005F00064809822ECF0A3EDF09003E6E0229003F3
:10060000E7E0FF9003E6E022900235E004F0C394B7
:100610000A22E0FCA3E0C39F22F0900227F090039F
:1006200003F022FE9003D3E0FD229003E6EFF012E8
:10063000134E121515CEC313CE13D8F99003EDF057
:10064000E4A3F09003E8F09003E7F09003E7E0FF05
:10065000C3940940030217F5EF70030217EF9003EC
:10066000EB7408F02407A3F0121366121175C0830F
:10067000C0829003E7E0FED082D08312111AEE12FE
:1006800012241213199003E9F0A3EFF01213A6E05D
:10069000601A75F099EF1211F5C083C0829003E7DC
:1006A000E0D082D083121224E4F0A3F01218CC9090
:1006B00003EBE0FD3395E0FCC3EF1215CA50401286
:1006C00013F71211F5C083C0829003E7E0FCD082DB
:1006D000D0831212241214081211F4EC1212CA124E
:1006E00013129407EE64809480400302176BC3EFEB
:1006F00094F9EE6480947F40030217B802179212B7
:1007000018CC9003ED1213335004A3E004F09003CF
:10071000EBE0FF3395E0FEC3E49FFDE49EFC900315
:10072000E91213121215CA50069003E8E004F01201
:1007300014E660030217B8123BA69003EC121333C1
:100740005021121366121129C083C0829003E7E082
:10075000FED082D0831211661212C9ECF0A3EDF024
:100760000217B81213F71211F5C083C0829003E785
:10077000E0FCD082D0831212241214081211F41259
:10078000130B940AEE6480948040221213FF12111E
:10079000F5C083C0829003E7E0FCD082D0831212C0
:1007A0002412142BED12117512158080281215C019
:1007B00050261213661211F5C083C0829003E7E041
:1007C000FED082D08312122412142B121174121232
:1007D000C974FFF5F01224AD121366121175C083AF
:1007E000C0829003E7E0FED082D08312111A121269
:1007F000C9121319FE9003E6121296C083C08290AC
:1008000003E7E0D082D083121224EEF0A3EFF012BF
:1008100013E502162B1214E6703B9003E6E0FF246A
:100820002E121499E0702E742E2F1214997401F068
:10083000E49003E7F0121366121129C083C082907E
:1008400003E7E0FED082D0831211661212C91213A0
:10085000E0E0B409E09003E8E0C39404403A900378
:10086000E6E0FF123A059003E6E0FF1237B3EF60CF
:100870002FE49003E7F0121366121129C083C0829F
:100880009003E7E0FED082D0831211661212C912E3
:1008900013E0E0B409E080089003E6E0FF123B4C6F
:1008A0009003EEE0C39404403A1213A6E0703412B1
:1008B00039E19003E6E0FF123864EF602EE4900324
:1008C000E7F0121366121129C083C0829003E7E09B
:1008D000FED082D0831211661212C91213E0E0B466
:1008E00009E0229003E6E0FF123B3D229003E9E09D
:1008F000FEA3E0FF123BA6221228B7E49003D3F038
:1009000090001FE0FF9003D3E0C39F4003021B72DF
:10091000E0FF121327E4F0A3F0121412E4F0A3F0A6
:100920009003E11214C07409F0EF7003021B691206
:100930001FAD9003D3E0FF12160AE49003D4F090A9
:1009400003D4E0FFC394094003021AA11214E66025
:1009500006900305E06023900020E0701D900318CE
:10096000E070179003D3E075F099A42475F582E543
:10097000F03400121221E4F0A3F09003D4E0FD70F3
:1009800003021A989003D312135BE0702A9003D3EA
:10099000E0FC12134E121515CEC313CE13D8F9FF77
:1009A00075F099EC12129A75F002ED1225271215C6
:1009B000F2EC9E504880309003D3E0FD1213991260
:1009C0001515CEC313CE13D8F9FF75F099ED121299
:1009D0009AC083C0829003D4E0D082D083121224C4
:1009E0001215F2EC9E5016121293C083C08290032F
:1009F000D4E0D082D083121224E4F0A3F09003D389
:100A0000E0FF75F099121175C083C0829003D4E0A5
:100A1000FED082D083121224E0FCA3E0FD12141257
:100A2000EC8DF01224AD9003D3E0FF12129775F015
:100A300002EE121169C083C0829003D4E0D082D04C
:100A400083121224E0FEA3E02DFFEE3CFE9003D3C0
:100A5000E0FD121327121408ED12129AC083C0820F
:100A60009003D4E0D082D083121224E0FEA3E0FFF2
:100A7000C39003E2E09FEE6480F89003E1E06480BD
:100A80009850129003D4E0FD9003E1EEF0A3EFF054
:100A90009003E5EDF0121293C083C0829003D4E07E
:100AA000D082D083121224E0FEA3E0FF9003E4E0A2
:100AB0002FF09003E3E03EF09003D4E004F002193D
:100AC0001F9003E1E0FAA3E0FBC39003E4E09BF096
:100AD0009003E3E09AF0E0FEA3E0FF7C007D0712C4
:100AE00024779003E3EEF0A3EFF0C3EB9FFFEA9EC1
:100AF000FED3EF1215784031A3E06409602B121386
:100B000023C083C082E0FEA3E0FF9003E1121598AA
:100B1000D082D083F0A3EFF09003E3E0FEA3E0FFE8
:100B2000121323EE8FF01224AD9003D3E0FF1213C3
:100B300027E0FCA3E0121209121274ECF0A3EDF00E
:100B40009003D3E0FF121413E0FCA3E01212091289
:100B50001343ECF0A3EDF09003F7E0602C9003D387
:100B6000E0B4010F121270E0FFA3E09002EECFF0AC
:100B7000A3EFF09003D3E0B4020F121270E0FFA3D2
:100B8000E0900233CFF0A3EFF09003D3E004F00243
:100B900018E0E4900228F0229003D3EFF0E0FF7514
:100BA000F002121342E0FCA3E0121209121274E0E8
:100BB000FEA3E0FFC39DEE9C5003021CA69003D34E
:100BC000E0FDE42FFFEE3404FE12133E12159812DE
:100BD000160312124CEEF0A3EFF012133EE0FEA348
:100BE000E0FFED1212701215F2FFEC9E12160312C6
:100BF0001157EEF0A3EFF0ED121535FE740193FFDF
:100C000075F002ED12115AE0FCA3E0D39FEC9E4078
:100C1000699003D3E0FF121535FC740193FD75F064
:100C200002EF12115A121319C313FEEF13FFED2F27
:100C3000FFEC3E121603121157EEF0A3EFF09003F3
:100C4000C8E064036003021CE9EDB4010F12115700
:100C5000E0FFA3E0900231CFF0A3EFF0ED6402607B
:100C600003021CE975F002ED12115AE0FFA3E090B7
:100C7000032ECFF0A3EFF0021CE99003D3E0121192
:100C800057C083C082E0FAA3E0FB7C007D64FFCE06
:100C9000EACE122422C3EB9FFFEA9ED082D083F0DB
:100CA000A3EFF09003C8E0B4030E9003D3E0B401C7
:100CB00007E4900231F0A3F09003D3E0640270499E
:100CC00090032E021CE69003D3E0FF121270E0FCAA
:100CD000A3E012120912134312151EC394049003C9
:100CE000D3E0FF75F002501312115AE4F0A3F0EFB5
:100CF00012124C7404F0A3E4F0800E12115A121375
:100D0000CFEF12124FE4F0A3F09003D3E0FF6401A1
:100D1000705675F002EF12115A121312949AEE9453
:100D2000014008121135EEF0A3EFF09003D3E0FD7F
:100D3000121157E0FAA3E090035212155712124F06
:100D400012131294DCEE9405400812122AEEF0A35E
:100D5000EFF09003D3E012124C1214C9900356F036
:100D6000900300E0900357F09003D3E0FF6402701B
:100D70005675F002EF12115A121312949AEE940162
:100D80004008121135EEF0A3EFF09003D3E0FD120E
:100D90001157E0FAA3E090035412155712124F12A4
:100DA000131294DCEE9405400812122AEEF0A3EF21
:100DB000F09003D3E012124C1214C9900358F09033
:100DC0000300E0900359F022123126758A30538ACD
:100DD000EF0000007F08121020E49003D4F090038D
:100DE000D4E0FFC394094003021F8FEF902EC87018
:100DF00013E0545FF0A3746AF0902EC374A5F0A3BF
:100E0000E4F0800EE044F0F0902EC374C0F0A374C0
:100E100003F09003D4E09021AD93902ECAF0E490BB
:100E200003D3F090001FE0FF9003D3E0FEC39F4088
:100E300003021F8674062E121570E0FFFDE4F5E232
:100E4000EDC394085038743D1215A4C083C08212BB
:100E500015508002C333D8FCD082D083F0902ECDC1
:100E60007401F0C083C0821215508002C333D8FCD5
:100E7000D082D083F0902EC074C1F0021EDB74F8D3
:100E80002DFD743E1215A4C083C08212155080023D
:100E9000C333D8FCD082D083F0902ECE7401F0C042
:100EA00083C0821215508002C333D8FCD082D08315
:100EB000F0902ECB74F4F0EDB40510902EC9742090
:100EC000F0902EC374C0F0A37404F0EDB4060B12BE
:100ED00015AF902E4E748412158CEDB4070B1215BD
:100EE000AF902E4F740212158CEDC39406400690FD
:100EF00003D4E06006902EC074C2F0EDC3940640A7
:100F00000B9003D4E07005CDEFCD8027E4FFFE9079
:100F10000001742EF0A3E4F09003D3E02406121530
:100F200070E0FDE5E220E20B0FBF00010EBE07DF1F
:100F3000BFD0DC53E2FB121564ED75F002A4FFAEE6
:100F4000F0900002E02FF0900001E03EF0ED9021E3
:100F5000E693FFEDC39408400474F82DFDEDC394AF
:100F60000640109003D4E0FE70091212BAE4F0A318
:100F7000F0802A900001E475F0021224C385F0820B
:100F8000F5831213D7EF1212F2C083C0829003D4FC
:100F9000E0D082D083121224ECF0A3EDF09003D3C2
:100FA000E004F0021E039003D4E004F0021DBE90A2
:100FB0002ECBE4F0902EC6F0758A50538AEF0000D5
:100FC000007F041210209002287401F0229003E6A2
:100FD000EFF0E49003EBF09003EA7409F0E490037F
:100FE000E7F09003E7E0FFC3940940030221ACEF70
:100FF00070030221A31214E670321212EAC083C0F9
:10100000829003E7E0FED082D08312111A1212C937
:101010001215D41212ABC083C0829003E7E0D082D5
:10102000D083121224E4F0A3F00221A39003E6E09F
:10103000FF75F099121129C083C0829003E7E0FE8A
:10104000D082D083121224E0FCA3E0FD1212BA1267
:101050001319FE9003E8F0A3EFF0123BA69003EA09
:1010600012133340030221299003E8E0FEA3E0FFBE
:101070009400EE64809480400DE024FFF09003E83B
:10108000E034FFF08022C3EF94FFEE6480947F5041
:10109000109003E9E02402F09003E8E03400F080CF
:1010A00007E49003E8F0A3F01215DE1214A1121168
:1010B000C6E0B401189003E61212131213D7EE1211
:1010C0001129121223ECF0A3EDF002217C9003E829
:1010D000E0FEA3E0FF1212A6C083C0829003E7E007
:1010E000FCD082D083121224121408ED1212AE1218
:1010F000130B121578401F1212A6C083C0829003F2
:10110000E7E0FCD082D08312122412142BED1211CE
:1011100029121580802D1215B6400302217C900300
:10112000E6E0FF1212ABC083C0829003E7E0FED07E
:1011300082D08312122412142B1211281212C97495
:10114000FFF5F01224AD02217C9003EBE004F012D5
:1011500012EAC083C0829003E7E0FED082D08312FF
:10116000111A1212C91215D4FF121297C083C0822D
:101170009003E7E0FED082D083121224E0FCA3E0CB
:10118000C3940AEC64809480401275F099EF1214B5
:10119000A4F583E5822E1211CB7401F01215DEFE48
:1011A0001214A11211C6E0640170181211B9E00402
:1011B0001211B8E0D39405400A9003E7E0FF121142
:1011C0009EE4F09003E7E004F0021FC2223F3F3F9D
:1011D0003F3F3F3F3F3F003200320064012C025846
:1011E000006402580004001E000A000A000F006498
:1011F000000A000C000C00000000000000000000CD
:101200000000000101010D0E0F0304050607080987
:101210000A0B0C00010200320032003200320032B0
:10122000003200320032003200320032003200322E
:101230000032003200320037003700370037003705
:1012400000370037003700370037003700370037E6
:101250000037003700370028002800280028002821
:10126000002800280028002800280028002800283E
:10127000002800280028002D002D002D002D002D15
:10128000002D002D002D002D002D002D002D002DF6
:10129000002D002D002D00640064006400640064D3
:1012A000006400640064006400640064006400641E
:1012B00000640064006400690069006900690069F5
:1012C00000690069006900690069006900690069D6
:1012D000006900690069005C005C005C005C005C07
:1012E000005C005C005C005C005C005C005C005C1E
:1012F000005C005C005C002D002D002D002D002DF9
:10130000002D002D002D002D002D002D002D002D75
:10131000002D002D002D00C800C800C800C800C85E
:1013200000C800C800C800C800C800C800C800C87D
:1013300000C800C800C800CD00CD00CD00CD00CD54
:1013400000CD00CD00CD00CD00CD00CD00CD00CD35
:1013500000CD00CD00CD00BE00BE00BE00BE00BE70
:1013600000BE00BE00BE00BE00BE00BE00BE00BE8D
:1013700000BE00BE00BE002D002D002D002D002D52
:10138000002D002D002D002D002D002D002D002DF5
:10139000002D002D002D00FA00FA00FA00FA00FAE4
:1013A00000FA00FA00FA00FA00FA00FA00FA00FA6D
:1013B00000FA00FA00FABB010689828A83E0225013
:1013C00002E722BBFE02E32289828A83E49322BBE6
:1013D000010CE58229F582E5833AF583E022500687
:1013E000E92582F8E622BBFE06E92582F8E222E53D
:1013F0008229F582E5833AF583E49322BB010689CD
:10140000828A83F0225002F722BBFE01F322F8BB4E
:10141000010DE58229F582E5833AF583E8F0225053
:1014200006E92582C8F622BBFE05E92582C8F2221C
:10143000EF8DF0A4A8F0CF8CF0A428CE8DF0A42ED0
:10144000FE22BC000BBE0029EF8DF084FFADF02220
:10145000E4CCF875F008EF2FFFEE33FEEC33FCEE32
:101460009DEC984005FCEE9DFE0FD5F0E9E4CEFD25
:1014700022EDF8F5F0EE8420D21CFEADF075F008F8
:10148000EF2FFFED33FD4007985006D5F0F222C351
:1014900098FD0FD5F0EA22C2D5EC30E709B2D5E4C9
:1014A000C39DFDE49CFCEE30E715B2D5E4C39FFF7D
:1014B000E49EFE122422C3E49DFDE49CFC80031202
:1014C000242230D507C3E49FFFE49EFE22C5F0F836
:1014D000A3E028F0C5F0F8E582158270021583E0DC
:1014E00038F022A3F8E0C5F025F0F0E5821582700F
:1014F000021583E0C838F0E822EB9FF5F0EA9E423F
:10150000F0E99D42F0E89C45F022ECF0A3EDF0A359
:10151000EEF0A3EFF022A8828583F0D083D0821270
:10152000250D12250D12250D12250DE473E493A34C
:10153000C583C5F0C583C8C582C8F0A3C583C5F0FF
:10154000C583C8C582C822A42582F582E5F035830B
:10155000F58322EF4E6012EF60010EEDBB010B89A7
:10156000828A83F0A3DFFCDEFA2289F05007F709B4
:10157000DFFCA9F022BBFEFCF309DFFCA9F02290FE
:1015800003D3747EF0E4A3F090001FE0FE9003D438
:10159000E0FFC39E40030227001238D2EF6003121F
:1015A00014F99003D4E0FA12135CE06003022617EA
:1015B0009003D4E0FF12134E12136FEF12115A1260
:1015C000151E404C9003D4E09003D3F012135C74CA
:1015D00001F0900226E004F0900302F09003D4E0C2
:1015E000FF24221213B87401F0123B6A9003D4E076
:1015F000FF123B799003D4E0FF123A719003D4E0DC
:10160000FF123AB99003D4E01213AB7401F08012C8
:10161000CFEACF123829EF60099003D4E01213AB60
:10162000E4F09003D4E0FF123907EF70030226F7CD
:10163000E49002270226F29003D4E0FF12139912DD
:10164000136FEF12115A12151E50030226BC90039D
:10165000D4E09003D3F012354FEF70030226F7E485
:10166000FF9003D4E0FE75F0991211291212231293
:1016700013D7EE121175121223ECF0A3EDF00FEF59
:10168000B409DE9003D412135BE4F0900020E0FF75
:101690007009900318E0700302270EEF60109003AA
:1016A00018E0600A1212E112137A4405802A9000B1
:1016B00020E06010900318E0700A1212E212137A10
:1016C00044018014900020E07064900318E0605E94
:1016D0001212E112137A4404F0C28A229003D4E079
:1016E000FF12135CE4F0123B979003D4E0FF123A30
:1016F0004D9003D4E0FF123B889003D4E0FF123AF0
:10170000959003D4E024221213B87401F0900227BC
:10171000E004F0900303F09003D4E004F0022568A5
:101720009003D3E0FF90022BE06F6002EFF0229075
:101730000236E06402703090030404F09003CCE0C1
:10174000B4010890033F7401F08005E490033FF07A
:10175000900346E0B401089000007401F08005E4B5
:10176000900000F07F0222E4FE90001FE0FFEEC335
:101770009F40030228B41213B5E0640160030228FD
:10178000B0741C2E12135EE0FC60030227FCEE64B2
:1017900001703D12137B900303E0FD6401701B9008
:1017A0000302E0900348B40109E044091212E00486
:1017B00080151212DD1215F98016ED900348B4025F
:1017C0000BE044051212E012152780041212DDF01E
:1017D000EE640260030228A912137B900303E0FD6C
:1017E0006401701C900302E0900348B401061213D8
:1017F000ECE48021E044041212E01215F90228A959
:10180000ED900348B40205E044058003E04404F091
:10181000E4900020F0900318F00228A9EC64016025
:10182000030228A9EE6401704F12137B900302E0BB
:10183000FFB4020B900348E0440A1213EF8013EF49
:1018400064017026900227E0900348B4010C121343
:10185000ECE4900318121527801EE044021213EFE7
:10186000E4900318F01214FA800E900348E044024A
:101870001213EFE4900318F0EE6402704C12137B25
:10188000900302E0B40213900348E0440AF090038E
:10189000187401F0900020F0802F900226E064017F
:1018A000701C900303E0900348B40105E0440980F4
:1018B00013E044081212E004F01214F9800B9003B4
:1018C00048E044081212E004F01213B5E4F0C28AB2
:1018D0000E0227497F0422E49003E7F0A3F090036F
:1018E000EB7403F02405A3F0122D62E49003E6F0FC
:1018F0009003E6E0FFC3940940030229C675F00295
:10190000121174121371121128121319FE9003E9A7
:10191000F0A3EFF0123BA69003EB12133350249088
:1019200003E8E004F0A31211D3121312940AEE6438
:1019300080948040030229681215C0400302299E4A
:1019400002298B9003E7E004F01214E67070900314
:10195000E9E0FEA3E0FF123BA69003ECD3121334A0
:10196000401412150C12112975F00212116FECF0CF
:10197000A3EDF002299E9003E91211D312131294E1
:1019800064EE6480948040189003E6E0FD75F002F8
:101990001211F51213CFED121175E475F001801BD1
:1019A000C3EF949CEE6480947F501312150C1211B7
:1019B000F51213CF12117474FFF5F01224AD121545
:1019C0000C121175121371121128121319FE9003C3
:1019D000E6E075F00212129AEEF0A3EFF09003E643
:1019E000E004F00228D09003E7E0C39404400280B2
:1019F00031C3900111E09408900110E0648094805C
:101A000040269001AAE094089001A9E064809480A7
:101A10004016900078E09403900077E06480948012
:101A2000400690022D7401F09003E8E0C394064054
:101A30003790022DE06031E4FF123A29E4FF1237BB
:101A4000EEEF6029E490022DF09003EDF090001F7E
:101A5000E0FF9003EDE0FEC39F5012121496E4F0F5
:101A60009003EDE004F080E5E4FF123B5B2290037D
:101A7000CDE060069003C8E004F09003C8E0B40134
:101A80000BE49003CDF09003C8E004F09003C8E0AD
:101A9000B40320D3900232E09464900231E09400C9
:101AA000500E90032FE0946490032EE094004003C6
:101AB0001214ED9003CCE06401705B9003D3F0123C
:101AC000141F4003022BB2E0FF25E02416F582E448
:101AD000342212120112127FFF25E024F6F582E46F
:101AE0003421121201121352121287FF25E02436FC
:101AF000F582E4342212120112139D121287FF257F
:101B0000E02456F582E43422121201121503121257
:101B10008704F0022A9F900346E06401705B900303
:101B2000D3F012141F504FE0FF25E02416F582E495
:101B3000342312120112127FFF25E024F6F582E40D
:101B40003422121201121352121287FF25E024369A
:101B5000F582E4342312120112139D121287FF251D
:101B6000E02456F582E434231212011215031212F6
:101B70008704F0022B02022BB2E49003D3F012147C
:101B80001F504FE0FF25E02496F582E43422121224
:101B90000112127FFF25E02476F582E4342212122E
:101BA00001121352121287FF25E024B6F582E434A5
:101BB0002212120112139D121287FF25E024D6F57E
:101BC00082E4342212120112150312128704F00269
:101BD0002B5E90020CA3E090034CF0900349E0B41C
:101BE000AA0312107E900363E07011A3E0B4100CFE
:101BF000E4900363F0A37410F012350022C0E0C03B
:101C000083C082C0D0E8C0E0E9C0E0EAC0E0EBC039
:101C1000E0EFC0E0D2AFE5DB30E418D20812374085
:101C200030E1028034900347E5DFF09003C9E4F02F
:101C3000022D47E5DB30E5169003437401F0900375
:101C4000CEE06005E4F0022D47C208022D471237AE
:101C50004030E12AE5DB30E00FA312373712374E70
:101C60001223AFF5DF022D479003CAE06401600341
:101C7000022D47308A03022D47D28A022D47900356
:101C8000C9E07011A3E5DFF09003C97401F090037F
:101C9000CEF0022D479003CAE09033AD93FFB4FF1E
:101CA0000F900347E5DFF09003CAE004F0022D41F6
:101CB000EF640F702F9003CF1237379003CAE0FF05
:101CC00012376C540F1223DC9003CF123737900376
:101CD000CAE0FF04F012376CFFE5DF54F04F122327
:101CE000DC022D419003CF12373712374EE5DF1259
:101CF00023EE9003CAE0FF64147044E5DFB42025AE
:101D0000900340E06004E4F0800B9003CD7401F098
:101D10009003C8E4F09003CC7401F0900346E4F023
:101D200090024804F0E5DFB410159003CDE4F09084
:101D300003C8F0900346F09003CCF0900248F0EF17
:101D4000B4161EE5DFB4200B9003467401F0900337
:101D5000CCE4F0E5DFB41009900346E4F09003CC46
:101D6000F0900345E004F075DBFFD0E0FFD0E0FB2E
:101D7000D0E0FAD0E0F9D0E0F8D0D0D082D083D053
:101D8000E032E49003F2F09003F17404F0E4900385
:101D9000EEF09003EEE0FFC394094003022EDF75DE
:101DA000F002121128E0FCA3E01212091212F31241
:101DB0001319FE9003EFF0A3EFF0123BA69003F18E
:101DC0001213334003022E719003EFE0FEA3E09460
:101DD00000EE64809480400DE024FFF09003EFE07B
:101DE00034FFF08016C3EE64809480500E9003F0B0
:101DF000E004F070069003EFE004F01213C0E0B4CA
:101E0000013075F002EF12129AE0FEA3E0C3941EB7
:101E1000EE648094804003022EAD9003EEE075F0F6
:101E2000021212F275F002121123ECF0A3EDF0028F
:101E30002EAD9003EFE0FEA3E0FF9003EEE0FD7512
:101E4000F0021212AEEE8FF01224AD75F002ED1218
:101E500012AE12131212157840189003EEE0FD75C1
:101E6000F0021212AE1213CFED121129E475F00137
:101E7000801A1215B650569003EEE0FF75F002126C
:101E800012AE1213CF12112874FFF5F01224AD8098
:101E90003C9003F2E004F09003EE75F0021212F0B1
:101EA000121371121128ECF0A3EDF09003EEE0FF95
:101EB00075F00212129AE0FCA3E0C3941EEC648059
:101EC0009480400974B42F1213C77401F09003EE8C
:101ED000E01213C5E0B4011E9003EEE0FF24BD1232
:101EE00014DEE0041214DAE0D3940540091213C0A2
:101EF000E41214DAE4F09003EEE004F0022D722212
:101F00007F051235E2EF600AE4900340F07F05128E
:101F100010DB900236E024FE601814601E1470037B
:101F2000022FD72403600302304F1214F2E490030F
:101F300001F09002367403F0023050121DA8900296
:101F400028E07003022FB0900301E004F0E4900356
:101F5000D2F090001FE0FF9003D2E0C39F5071E4E5
:101F6000FF1212101213D7EE121175121223ECF099
:101F7000A3EDF01212101213D7EE12112912122330
:101F8000ECF0A3EDF00FEFB409D79003D2E0FF120D
:101F900011571213CFEF12124F7404F0A3E4F0EFB5
:101FA000B40110E4900352F0A3F09003567404F0CF
:101FB000E4A3F0EFB40210E4900354F0A3F0900314
:101FC000587404F0E4A3F09003D2E004F0022F323E
:101FD000900301E0C39403500302304F9000127449
:101FE0007EF0E4900229F0900301F07F0E123B2E68
:101FF0009002367404F0229003C8E0B4020B74031C
:10200000F07F041210DB12396A9003C8E0B40310A9
:102010007F041235E2EF60087F041210DB1214ED2A
:1020200012359B121DA812359B900228E0604012C9
:1020300018D812359BE49003D2F090001FE0FE9078
:1020400003D2E0FFC39E50191236F3123775900386
:10205000D2E0FF121B7812359B9003D2E004F0808F
:10206000D912393C12255F12270F900236EFF02269
:102070007E027F107D007B017A00792112253312C8
:10208000366EE490023BF090033FE090035B7005F6
:102090007410F080037420F0900000E090035D70F5
:1020A000057410F080037420F0122A4EE4FE9000B4
:1020B0001FE0FFEEC39F5079E4FF75F099EE121117
:1020C000F512122312142BEEA424ABF582E5F034A2
:1020D000001211C6E4F075F099EEA42499F582E59A
:1020E000F03400121221E4F0A3F012119EE4F00F7C
:1020F000EF640970C5CFEECF123B4C123B5B12145C
:1021000096E4F0123B6A123B88123B79123B9774BB
:102110001C2E12135EE4F01213B5E4F09002257445
:102120007EF0E4A3F0A3F0900302F0A3F00E0230DF
:102130008EE490022DF090022B747EF0900012F04D
:10214000E490022AF0229003CBE06013D3940A407B
:1021500003740AF09003CBE014F0E07002C2083080
:1021600008030231DDE5DB30E2030231DDD2AF539B
:10217000A88053A90853AA0843A908758DA0758E95
:102180001C758B0843AA08E4F58620085FE5DB2070
:10219000E25A758A30538AEF438A84200845E5DB8A
:1021A00020E240758703000000AF8E90031CE4F02E
:1021B000A3EFF090031CE4F0A37415F090031CE06F
:1021C0007002A3E0601D90031DE024FFF090031C4B
:1021D000E034FFF01215E840E3E4F012110C1214A1
:1021E000AE80D9758A50538AEF000000758B0D754B
:1021F0008EFF758DE053AA0143AA01D2AF22E4906D
:1022000003D4F0FF9003D3F0EF14601E1460351474
:10221000604C14605B240470749003D57401F0A3C7
:10222000742FF0A37458F002326712373490000113
:102230001223AFFED3941F400312375B1223966E16
:10224000704B80431237349000021223AFFED394B8
:1022500006400312375B1223966E703180291237C5
:10226000349000031223AFFE1223966E701F801766
:102270001237349000041223AFFE648B60031237D0
:102280005B1223966E70069003D3E004F00FEF64A8
:102290000560030231E89003D3E0B40504A37401A0
:1022A000F09003D4E0FD600790035CE0547FF0CF32
:1022B000EDCF22758A50538AEF9003F57411F09098
:1022C00003F47422F09003F67433F075997F759AD5
:1022D00080E4FFFEC29600000020970ED296000018
:1022E000003097069003F57487F00FBF00010EEFE2
:1022F000640A4E70DF7590FF75993F759AC0E4FED1
:10230000FF3096032097069003F47487F00FBF0008
:10231000010EEF640A4E70E9E4F5AD75AEE075AFFD
:102320001DF5AC75800C7589FF75913E75991FF58B
:102330009675931CF59BF595F592F59AD28A9003C4
:10234000F704F0758B0D758EFF758DE02202389CB9
:10235000E493A3F8E493A34003F68001F208DFF4CA
:102360008029E493A3F85407240CC8C333C4540F42
:102370004420C8834004F456800146F6DFE4800B15
:10238000010204081020408090342DE47E01936007
:10239000BCA3FF543F30E509541FFEE493A3600142
:1023A0000ECF54C025E060A840B8E493A3FAE493AC
:1023B000A3F8E493A3C8C582C8CAC583CAF0A3C85A
:1023C000C582C8CAC583CADFE9DEE780BE0F000048
:1023D00000FFFF00000000FFFFFFFFFFFFFFFFFF08
:1023E00000000000000000000000000000000000ED
:1023F00000000000000000000000000000000000DD
:1024000000000000000000000000000000000000CC
:1024100000000000000000000000000000000000BC
:1024200000000000000000000000000000000000AC
:10243000000000000000000000000000000000009C
:102440000000000000000000000000000041030147
:1024500000410235004103040041002000410318FF
:102460000041033F004100000042023100004203EE
:102470002E00004102480041023B0041023700416A
:1024800003050042031C00004103C9004103CA00C8
:10249000420341000041034300410345004103441E
:1024A00000410347104103CD004103C800410340F0
:1024B000014103CC0041034600C1084103CB004168
:1024C00003CE0000902EC0E4F0902ECB74F4F09078
:1024D0002F58E0540F24F0902EC8F0902ECC744862
:1024E000F01215AFA3743FF0902E4074811212FECB
:1024F000F0A3F0A3041212FE7402F0A3F0902EC613
:10250000743CF0902EC174B0F0A3E4F0A37480F09A
:10251000A37407F043E310123AFA90001FEFF02281
:102520007F007E10E4FDFC9003D4F0A3F0758A10C8
:10253000538AEF000000EF123762FB9003D5E02BC7
:10254000F09003D4E03400F00DBD00010CED7003F9
:10255000EC643070E19003D4E0FCA3E0FDEC900368
:1025600063F0EDA3F0758A50538AEF0000002290CB
:1025700003D5EFF0E0FF241912148EE0603A9002C8
:1025800048E064017011EF1210F41212D09021BCD7
:10259000121190402380129003D5E01210F4121211
:1025A000D09021C2121190400F9003D5E02419F56C
:1025B00082E4340312138A227F0022900237E0243F
:1025C000FE60111460252403703730883490023780
:1025D0007402F02220882A9002377403F0900305D9
:1025E0007401F07F0E123B2E0239927F0E123628B4
:1025F000EF600E7F0E123B2EE4900237F090030541
:10260000F0229003D3EFF0C3940F5039E0FF2497EA
:10261000121436E0602FEF25E025E024B2F582E4C5
:1026200034021210FF1212D09003D312154312116C
:1026300090400F9003D3E02497F582E43402121304
:102640008A227F00227F00229003D3EFF0C3940FF1
:102650005039E0FF2449121441E0602FEF25E025B6
:10266000E0245BF582E434021210FF1212D09003D2
:10267000D3121543121190400F9003D3E02449F573
:1026800082E4340212138A227F00227F00227E001D
:102690007F807D007B017A037948122533900348BF
:1026A0007405F0A37402F0E4A3F090035A74ABF045
:1026B00090035C74B3F09003F5E090034EF0900348
:1026C000F4E090034FF09003F6E0900350F00231F5
:1026D000DEC0E0C0F0C083C082C0D0E8C0E0ECC083
:1026E000E0EDC0E0EEC0E0EFC0E0D2AF1215E84090
:1026F00008E4F012110C1214AED0E0FFD0E0FED0CE
:10270000E0FDD0E0FCD0E0F8D0D0D082D083D0F093
:10271000D0E032CBEFCBE49003D31214C0F0A3F09F
:10272000EB6401701212125BE0900398F012126FCA
:10273000A3E09003998015EB6402701712125BE01E
:1027400090039CF012126FA3E090039DF0ECA3F0B5
:10275000EDA3F0229003D5E0FBA3E0FAA3E0F92279
:102760009003CB740AF09003CEE4F0E5DB229003F3
:10277000CAE0FF04F08F82758300229003D47401B5
:10278000F0222DF582EE3CF583E49322E92FF9E463
:102790003AFA0223969003F7E06037C39002EFE025
:1027A00094E09002EEE0942E50069003F67487F0C9
:1027B000C3900234E094E0900233E0942E500690EF
:1027C00003F67487F0E49003F7F09003F6E09003CB
:1027D00050F0229003EFEFF0E0FF2430121457E0A6
:1027E0006029EF25E025E02433F582E4340312105C
:1027F000FF1212D09021C8121190400F9003EFE009
:102800002430F582E4340312138A227F00229003DD
:10281000EEEFF0E0FF2409121462E06029EF25E0FA
:1028200025E0240CF582E434031210FF1212D0903C
:1028300021CA121190400F9003EEE02409F582E4C2
:10284000340312138A227F00229003D5EFF0E0FFB9
:10285000243812146DE06029EF25E025E0243CF5D2
:1028600082E434021210FF1212D09021B81211909B
:10287000400F9003D5E02438F582E4340212138A25
:10288000227F00229003EFEFF0E0FF24F012144CBF
:10289000E06026EF25E025E024F3F582E43402121F
:1028A00010FF9021BA121184400F9003EFE024F042
:1028B000F582E4340212138A227F0022752001532C
:1028C000A87F1232931239BA43A88012104E121008
:1028D00066123ADDEF24E0600A2410700AC283C257
:1028E000828004D283D282122A4E758DE0122EE0AD
:1028F00080DF9003D5EFF0E0FF2403121478E0604E
:1029000023EF25E025E02406F582E434001210FFD1
:10291000121181400F9003D5E02403F582E43400C6
:1029200012138A227F00229003D5EFF0E0FF245893
:10293000121483E06023EF25E025E024A6F582E46D
:1029400034021210FF121181400F9003D5E0245879
:10295000F582E4340212138A227F0022E4FFFE9003
:10296000001FE0FDEEC39D501BEF121157121371B3
:10297000EE12115AE0FAA3E0D39DEA9C4003CFEE99
:10298000CF0E80DB90022CEFF022CBEFCBEBD39479
:102990000F501E121433E070181214337401F01229
:1029A000110C12138324B2F582E43402F58312244D
:1029B000EA22CBEFCBEBD3940F501E12143EE07003
:1029C0001812143E7401F012110C121383245BF5DB
:1029D00082E43402F5831224EA229003CF7401F0DA
:1029E000A37403F0A37448F0E4F5DA75DA4043DA2F
:1029F0002075D74075DA5843A90875B80875F808E6
:102A000022121391501E121449E0701812144974C6
:102A100001F012110C12138324F3F582E43402F551
:102A2000831224EA22121391501E121454E07018DB
:102A30001214547401F012110C1213832433F58212
:102A4000E43403F5831224EA22121391501E121467
:102A50005FE0701812145F7401F012110C121383EE
:102A6000240CF582E43403F5831224EA2212139134
:102A7000501E12146AE0701812146A7401F01211D8
:102A80000C121383243CF582E43402F5831224EA09
:102A900022121391501E121475E0701812147574DE
:102AA00001F012110C1213832406F582E43400F5B0
:102AB000831224EA22121391501E121480E070181F
:102AC0001214807401F012110C12138324A6F582E3
:102AD000E43402F5831224EA22121391501E1214D8
:102AE0008BE0701812148B7401F012110C12138306
:102AF000241EF582E43403F5831224EA22E4FD90D7
:102B00000343E06011900348E0FE54F0FDEE540FE3
:102B1000F0E4900343F0CFEDCF22121564FFFEEEF8
:102B20009021D693600974062F121570EEF00F0EE7
:102B3000EEB410EB2290032A1224F6000000007E6F
:102B4000007F0F7D007B017A027949022533EFD3A4
:102B5000940F500874492F121441E4F022EFD394DB
:102B600003500874F02F12144CE4F022EFD39403B6
:102B7000500874302F121457E4F022EFD39403500E
:102B80000874092F121462E4F022EFD39403500862
:102B900074382F12146DE4F022EFD39403500874AC
:102BA000032F121478E4F022EFD3940350087458E2
:102BB0002F121483E4F022EFD39403500874192FDA
:102BC00012148EE4F022EE30E707C3E49FFFE49E88
:102BD000FE220000000000000000000000000000D5
:102BE00000000000000000000000000000000000E5
:102BF00000000000000000000000000000000000D5
:102C000000000000000000000000000000000000C4
:102C100000000000000000000000000000000000B4
:10301000000000000000000000000000000000A808
:00000001FF
