:1000000000B5000000020000CF94000000000000D6
:1000100000000000000000000000000000000000E0
:10002000801878FFE4B8200118F6D8F99000007F16
:10003000007E07E4F0A3DFFCDEFA75812102338E37
:10004000EFB4100575B2928007EFB4040B75B28E51
:1000500075B6F9E4F5B7800DEFB4080975B28E7581
:10006000B6F375B70143B201223200022C037F05BB
:100070001210DD12399112107E9002367401F002D6
:100080003076000236D875B28E75B6F9E4F5B7430E
:10009000B20143AA01023B3C000000021049902E2D
:1000A000C0E4F0902ECB74F4F0902F58E0540F245D
:1000B000F0902EC8F0902ECC7448F0902EC9742881
:1000C000F0A3743FF0902E4074811212FEF0A3F062
:1000D000A3041212FE7402F0A3F0902EC6743CF03A
:1000E000902EC174B0F0A3E4F0A37480F0A3740761
:1000F000F043E310123B2190001FEFF022EFD39466
:100100000F500874972F121436E4F02200000000FC
:100110000200ABB525E025E0241EF582E43403F5AA
:1001200083E0F8A3E0F9A3E0FAA3E0FB90032AE060
:10013000FCA3E0FDA3E0FEA3E02275F00212254D32
:1001400075F099E0FCA3E0FDEFA42451F582E5F001
:100150003400F583229003D3E0FBEF2466FFEE34F6
:10016000FEFE7C007D0A1224367D32122448EF24E4
:100170009AFFEE3401FEEB75F002A42433F582E51C
:10018000F03400F5832275F00212254D75F099E0E8
:10019000FCA3E0FDEFA42463F582E5F03400F583D1
:1001A000229021EAC39BFBEE9AFAED99F9EC98F8BC
:1001B000E493FE740193FFE4FCFDC30224FF75F099
:1001C00099EEA424B4F582E5F03400F583E5822F9E
:1001D000F582E43583F583E4F075F099EEA424BD4F
:1001E000F582E5F03400F583E5822FF582E435836E
:1001F000F58322E0FEA3E0FF9003E6E0FD75F00248
:10020000A42487F582E5F03400F583EE8FF0122404
:10021000D375F002EDA42487F582E5F03400F58370
:1002200022F583E493FC740193FD75F002EFA422A0
:100230009003D2E0FE75F099A4243FF582E5F034F6
:1002400000F583EF75F00202254D9003D3E0FBEF3C
:100250002424FFEE34FAFE7C007D0A1224367D1E33
:10026000122448EF24DCFFEE3405FEEB75F002A407
:10027000242DF582E5F03400F5832275F002EBA41D
:100280002427F582E5F03400F583E0FCA3E0FDEBE4
:1002900075F002A42421F582E5F03400F5832224D0
:1002A00010F582E5F03402F583ECF0A3EDF0900355
:1002B000D3E0229003D3E075F099A42475F582E58C
:1002C000F03400F583229003E6E0FD75F099A42454
:1002D00099F582E5F03400F5832275F099EFA424B6
:1002E0003FF582E5F03400F583EE75F00202254D0E
:1002F000C39BFBEE9AFAED99F9EC98F822E04401E1
:10030000F0E4900020F0900318229003E675F09935
:10031000E0FFA4243FF582E5F03400F58322F0A34A
:10032000F0A3F0A3F0A3F0A3F0A32275F002EC1267
:10033000254DE0FEA3E0FFD322E0FEA3E0C39DFF36
:10034000EE9C229003D3E025E024D5F582E434032B
:10035000F58322C3E0FDEF9D7480F86E982275F05E
:1003600002EDA42427F582E5F03400F5832275F030
:1003700002A4240AF582E5F0340222E0241CF5826E
:10038000E43402F583229003E6E0FF75F09922F54C
:1003900083E0FCA3E0FD75F00222F0900348E054F6
:1003A000F0F022FFEB25E025E022F583E4F07F0169
:1003B00022CBEFCBEBD394032275F002A42416F5E5
:1003C00082E5F03402229003E6E0FF241FF582E488
:1003D0003402F5832274222EF582E43402F583225E
:1003E0009003EEE0FF24B4F582E43400F58322E4C8
:1003F000F0A3F075F00222E0FCA3E0FD75F0992275
:10040000ECF0A3EDF09003E7E004F022E04406F006
:100410009000207401F0229003E9E0FEA3E0FF9039
:1004200003E6E0FD75F09922EE8FF01224D375F00B
:100430009922EF25E024DBF582E43403F583229052
:10044000001FE0FF9003D3E0C39F22E4F0A3F07508
:10045000F0992274972BF582E43402F583227449D3
:100460002BF582E43402F5832274F02BF582E43418
:1004700002F5832274302BF582E43403F583227471
:10048000092BF582E43403F5832274382BF582E4DA
:100490003402F5832274032BF582E43400F58322C1
:1004A00074582BF582E43402F5832274192BF582FB
:1004B000E43403F58322742E2EF582E43402F583AE
:1004C0002275F099A424B4F582E5F03400222401C9
:1004D000FFE43EFEE43DFDE43CFC90032A022510CF
:1004E000F0A3F0A3F0A3F0A322E0FFA3E09002FFAB
:1004F000CFF0A3EFF09002FFE022F074BD2FF58261
:10050000E43400F5832290022DE0640122E490039C
:10051000C8F09002367402F022E4900226F09003B4
:1005200002F0222439F582E5F03400229003E6E05F
:10053000FF75F00222F583E0FEA3E0780322E0FEDF
:10054000A3E0C39DEE9C22F074232EF582E43402D6
:10055000F583E4F02225E0249CF582E43423F5833E
:10056000E49322E025E024DCF582E43421F58322C3
:10057000E0FEC8EDC80822FBEA541FF0EBA3F075BB
:10058000F002ED22902EC5E4F0902ECDF0A3F022E3
:10059000F582E43403F583229402EE648094802291
:1005A00075F002EC12254DE475F00122E0FCA3E0A9
:1005B000FDC3EF9DFFEE9C22902EC6F0902EC574D9
:1005C00001F022902EC97428F09003D4E022C3EFEA
:1005D00094FEEE6480947F22C3EF94F6EE648094E0
:1005E0007F229DEC6480F8EE64809822ECF0A3ED0D
:1005F000F09003E6E0229003E7E0FF9003E6E022BC
:10060000900235E004F0C3940A22E0FCA3E0C39F0B
:1006100022F0900227F0900303F022FE9003D3E033
:10062000FD229003E6EFF012134E121515CEC31300
:10063000CE13D8F99003EDF0E4A3F09003E8F09026
:1006400003E7F09003E7E0FFC3940940030217EDCE
:10065000EF70030217E79003EB7408F02407A3F090
:10066000121366121175C083C0829003E7E0FED0BA
:1006700082D08312111AEE1212241213199003E978
:10068000F0A3EFF01213A6E0601A75F099EF1211C3
:10069000F5C083C0829003E7E0D082D08312122499
:1006A000E4F0A3F01218C49003EBE0FD3395E0FCF6
:1006B000C3EF1215C250401213F71211F5C083C0D8
:1006C000829003E7E0FCD082D08312122412140837
:1006D0001211F4EC1212CA1213129407EE648094F1
:1006E000804003021763C3EF94F9EE6480947F4067
:1006F000030217B002178A1218C49003ED121333C5
:100700005004A3E004F09003EBE0FF3395E0FEC358
:10071000E49FFDE49EFC9003E91213121215C250EF
:10072000069003E8E004F01214E660030217B0122A
:100730003BCD9003EC121333502112136612112992
:10074000C083C0829003E7E0FED082D0831211669E
:100750001212C9ECF0A3EDF00217B01213F7121148
:10076000F5C083C0829003E7E0FCD082D0831212F0
:10077000241214081211F412130B940AEE648094DC
:100780008040221213FF1211F5C083C0829003E74C
:10079000E0FCD082D08312122412142BED121175BA
:1007A00012158080281215B850261213661211F502
:1007B000C083C0829003E7E0FED082D0831212246F
:1007C00012142B1211741212C974FFF5F01224D3F3
:1007D000121366121175C083C0829003E7E0FED049
:1007E00082D08312111A1212C9121319FE9003E655
:1007F000121296C083C0829003E7E0D082D08312A9
:100800001224EEF0A3EFF01213E50216231214E601
:10081000703B9003E6E0FF242E121499E0702E74D2
:100820002E2F1214997401F0E49003E7F01213666E
:10083000121129C083C0829003E7E0FED082D083EA
:100840001211661212C91213E0E0B409E09003E835
:10085000E0C39404403A9003E6E0FF123A2C900380
:10086000E6E0FF1237DAEF602FE49003E7F01213AF
:1008700066121129C083C0829003E7E0FED082D0C7
:10088000831211661212C91213E0E0B409E0800865
:100890009003E6E0FF123B739003EEE0C394044044
:1008A0003A1213A6E07034123A089003E6E0FF1201
:1008B000388BEF602EE49003E7F0121366121129D3
:1008C000C083C0829003E7E0FED082D0831211661D
:1008D0001212C91213E0E0B409E0229003E6E0FF2F
:1008E000123B64229003E9E0FEA3E0FF123BCD221D
:1008F0001228DDE49003D3F090001FE0FF9003D3B3
:10090000E0C39F4003021B6AE0FF121327E4F0A339
:10091000F0121412E4F0A3F09003E11214C0740971
:10092000F0EF7003021B61121FD39003D3E0FF129C
:100930001602E49003D4F09003D4E0FFC39409407E
:1009400003021A991214E66006900305E0602390F2
:100950000020E0701D900318E070179003D3E0753D
:10096000F099A42475F582E5F03400121221E4F028
:10097000A3F09003D4E0FD7003021A909003D31209
:10098000135BE0702A9003D3E0FC12134E1215158E
:10099000CEC313CE13D8F9FF75F099EC12129A75E5
:1009A000F002ED12254D1215EAEC9E504880309071
:1009B00003D3E0FD121399121515CEC313CE13D82D
:1009C000F9FF75F099ED12129AC083C0829003D49A
:1009D000E0D082D0831212241215EAEC9E50161237
:1009E0001293C083C0829003D4E0D082D0831212CD
:1009F00024E4F0A3F09003D3E0FF75F09912117591
:100A0000C083C0829003D4E0FED082D0831212242F
:100A1000E0FCA3E0FD121412EC8DF01224D390033D
:100A2000D3E0FF12129775F002EE121169C083C075
:100A3000829003D4E0D082D083121224E0FEA3E09F
:100A40002DFFEE3CFE9003D3E0FD12132712140895
:100A5000ED12129AC083C0829003D4E0D082D0837A
:100A6000121224E0FEA3E0FFC39003E2E09FEE64D5
:100A700080F89003E1E064809850129003D4E0FD88
:100A80009003E1EEF0A3EFF09003E5EDF012129386
:100A9000C083C0829003D4E0D082D083121224E0BD
:100AA000FEA3E0FF9003E4E02FF09003E3E03EF0CC
:100AB0009003D4E004F00219179003E1E0FAA3E0F8
:100AC000FBC39003E4E09BF09003E3E09AF0E0FEC8
:100AD000A3E0FF7C007D0712249D9003E3EEF0A3CA
:100AE000EFF0C3EB9FFFEA9EFED3EF121578403183
:100AF000A3E06409602B121323C083C082E0FEA32D
:100B0000E0FF9003E112158CD082D083F0A3EFF0C8
:100B10009003E3E0FEA3E0FF121323EE8FF0122414
:100B2000D39003D3E0FF121327E0FCA3E0121209D5
:100B3000121274ECF0A3EDF09003D3E0FF12141343
:100B4000E0FCA3E0121209121343ECF0A3EDF090C5
:100B500003F7E0602C9003D3E0B4010F121270E0B1
:100B6000FFA3E09002EECFF0A3EFF09003D3E0B448
:100B7000020F121270E0FFA3E0900233CFF0A3EF58
:100B8000F09003D3E004F00218D8E4900228F02299
:100B900012314C758A30538AEF0000007F08121022
:100BA00020E49003D4F09003D4E0FFC39409400301
:100BB000021D85EF902EC87013E0545FF0A3746A95
:100BC000F0902EC374A5F0A3E4F0800EE044F0F0A2
:100BD000902EC374C0F0A37403F09003D4E090216E
:100BE000D393902ECAF0E49003D3F090001FE0FF5F
:100BF0009003D3E0FEC39F4003021D7C74062E12B7
:100C00001570E0FFFDE4F5E2EDC394085038743D43
:100C1000121598C083C0821215508002C333D8FCCD
:100C2000D082D083F0902ECD7401F0C083C08212A8
:100C300015508002C333D8FCD082D083F0902EC0F0
:100C400074C1F0021CD174F82DFD743E121598C0C9
:100C500083C0821215508002C333D8FCD082D08367
:100C6000F0902ECE7401F0C083C082121550800225
:100C7000C333D8FCD082D083F0902ECB74F4F0ED47
:100C8000B40510902EC97420F0902EC374C0F0A348
:100C90007404F0ED640670201215A3600B902E4EC4
:100CA00030E0087488F08006902E4E7404F0902E88
:100CB000C37440F0A37403F0ED640770221215A30F
:100CC000600D902E4F30E00280087482F080069014
:100CD0002E4F7402F0902EC3740CF0A37404F0ED48
:100CE000C3940640069003D4E06006902EC074C200
:100CF000F0EDC39406400B9003D4E07005CDEFCD2A
:100D00008027E4FFFE900001742EF0A3E4F090032E
:100D1000D3E02406121570E0FDE5E220E20B0FBFE0
:100D200000010EBE07DFBFD0DC53E2FB121564EDFD
:100D300075F002A4FFAEF0900002E02FF0900001E9
:100D4000E03EF0ED90220C93FFEDC3940840047454
:100D5000F82DFDEDC3940640109003D4E0FE700919
:100D60001212BAE4F0A3F0802A900001E475F002B8
:100D70001224E985F082F5831213D7EF1212F2C024
:100D800083C0829003D4E0D082D083121224ECF08E
:100D9000A3EDF09003D3E004F0021BCB9003D4E06A
:100DA00004F0021B86902ECBE4F0902EC6F0758ADC
:100DB00050538AEF0000007F041210209002287424
:100DC00001F0229003D3EFF0E0FF75F0021213421E
:100DD000E0FCA3E0121209121274E0FEA3E0FFC3CC
:100DE0009DEE9C5003021ED19003D3E0FDE42FFF43
:100DF000EE3404FE12133E12158C1215FB12124C27
:100E0000EEF0A3EFF012133EE0FEA3E0FFED1212AE
:100E1000701215EAFFEC9E1215FB121157EEF0A3AB
:100E2000EFF0ED121535FE740193FF75F002ED122F
:100E3000115AE0FCA3E0D39FEC9E40699003D3E0FD
:100E4000FF121535FC740193FD75F002EF12115A73
:100E5000121319C313FEEF13FFED2FFFEC3E121513
:100E6000FB121157EEF0A3EFF09003C8E0640360AB
:100E700003021F14EDB4010F121157E0FFA3E0901D
:100E80000231CFF0A3EFF0ED64026003021F14758E
:100E9000F002ED12115AE0FFA3E090032ECFF0A371
:100EA000EFF0021F149003D3E0121157C083C082E9
:100EB000E0FAA3E0FB7C007D64FFCEEACE1224487A
:100EC000C3EB9FFFEA9ED082D083F0A3EFF09003A4
:100ED000C8E0B4030E9003D3E0B40107E4900231FC
:100EE000F0A3F09003D3E06402704990032E021F38
:100EF000119003D3E0FF121270E0FCA3E01212097C
:100F000012134312151EC394049003D3E0FF75F02F
:100F100002501312115AE4F0A3F0EF12124C7404B1
:100F2000F0A3E4F0800E12115A1213CFEF12124FF9
:100F3000E4F0A3F09003D3E0FF6401705675F00273
:100F4000EF12115A121312949AEE940140081211E2
:100F500035EEF0A3EFF09003D3E0FD121157E0FA65
:100F6000A3E090035212155712124F12131294DC81
:100F7000EE9405400812122AEEF0A3EFF09003D38E
:100F8000E012124C1214C9900356F0900300E09046
:100F90000357F09003D3E0FF6402705675F002EF40
:100FA00012115A121312949AEE940140081211353C
:100FB000EEF0A3EFF09003D3E0FD121157E0FAA397
:100FC000E090035412155712124F12131294DCEED4
:100FD0009405400812122AEEF0A3EFF09003D3E03C
:100FE00012124C1214C9900358F0900300E09003C1
:100FF00059F0229003E6EFF0E49003EBF09003EA5F
:101000007409F0E49003E7F09003E7E0FFC394096C
:1010100040030221D2EF70030221C91214E670329C
:101020001212EAC083C0829003E7E0FED082D08330
:1010300012111A1212C91215CC1212ABC083C0823F
:101040009003E7E0D082D083121224E4F0A3F002F0
:1010500021C99003E6E0FF75F099121129C083C001
:10106000829003E7E0FED082D083121224E0FCA33A
:10107000E0FD1212BA121319FE9003E8F0A3EFF08C
:10108000123BCD9003EA121333400302214F900329
:10109000E8E0FEA3E0FF9400EE64809480400DE061
:1010A00024FFF09003E8E034FFF08022C3EF94FFC8
:1010B000EE6480947F50109003E9E02402F09003E6
:1010C000E8E03400F08007E49003E8F0A3F01215A4
:1010D000D61214A11211C6E0B401189003E6121240
:1010E000131213D7EE121129121223ECF0A3EDF014
:1010F0000221A29003E8E0FEA3E0FF1212A6C08343
:10110000C0829003E7E0FCD082D083121224121434
:1011100008ED1212AE12130B121578401F1212A610
:10112000C083C0829003E7E0FCD082D083121224F7
:1011300012142BED121129121580802D1215AE40BC
:10114000030221A29003E6E0FF1212ABC083C0822B
:101150009003E7E0FED082D08312122412142B12E7
:1011600011281212C974FFF5F01224D30221A290A3
:1011700003EBE004F01212EAC083C0829003E7E0C0
:10118000FED082D08312111A1212C91215CCFF128E
:101190001297C083C0829003E7E0FED082D0831212
:1011A0001224E0FCA3E0C3940AEC64809480401213
:1011B00075F099EF1214A4F583E5822E1211CB7409
:1011C00001F01215D6FE1214A11211C6E0640170CE
:1011D000181211B9E0041211B8E0D39405400A9036
:1011E00003E7E0FF12119EE4F09003E7E004F00251
:1011F0001FE8223F3F3F3F3F3F3F3F3F003200322B
:101200000064012C0258006402580004001E000A09
:10121000000A000F0064000A000C000C000000002F
:101220000000000000000000000101010D0E0F038E
:101230000405060708090A0B0C00010200320032FF
:10124000003200320032003200320032003200320E
:1012500000320032003200320032003200370037F4
:1012600000370037003700370037003700370037C6
:1012700000370037003700370037003700280028D4
:10128000002800280028002800280028002800281E
:10129000002800280028002800280028002D002D04
:1012A000002D002D002D002D002D002D002D002DD6
:1012B000002D002D002D002D002D002D006E006E44
:1012C000006E006E006E006E006E006E006E006EAE
:1012D000006E006E006E006E006E006E0073007394
:1012E0000073007300730073007300730073007366
:1012F0000073007300730073007300730066006670
:1013000000660066006600660066006600660066AD
:10131000006600660066006600660066002D002D0F
:10132000002D002D002D002D002D002D002D002D55
:10133000002D002D002D002D002D002D00C800C80F
:1013400000C800C800C800C800C800C800C800C85D
:1013500000C800C800C800C800C800C800CD00CD43
:1013600000CD00CD00CD00CD00CD00CD00CD00CD15
:1013700000CD00CD00CD00CD00CD00CD00BE00BE23
:1013800000BE00BE00BE00BE00BE00BE00BE00BE6D
:1013900000BE00BE00BE00BE00BE00BE002D002D7F
:1013A000002D002D002D002D002D002D002D002DD5
:1013B000002D002D002D002D002D002D00FA00FA2B
:1013C00000FA00FA00FA00FA00FA00FA00FA00FA4D
:1013D00000FA00FA00FA00FA00FA00FABB010689E6
:1013E000828A83E0225002E722BBFE02E322898246
:1013F0008A83E49322BB010CE58229F582E5833AD6
:10140000F583E0225006E92582F8E622BBFE06E9D4
:101410002582F8E222E58229F582E5833AF583E424
:101420009322BB010689828A83F0225002F722BBF5
:10143000FE01F322F8BB010DE58229F582E5833A2E
:10144000F583E8F0225006E92582C8F622BBFE05A6
:10145000E92582C8F222EF8DF0A4A8F0CF8CF0A489
:1014600028CE8DF0A42EFE22BC000BBE0029EF8DED
:10147000F084FFADF022E4CCF875F008EF2FFFEE1A
:1014800033FEEC33FCEE9DEC984005FCEE9DFE0F28
:10149000D5F0E9E4CEFD22EDF8F5F0EE8420D21C83
:1014A000FEADF075F008EF2FFFED33FD40079850CB
:1014B00006D5F0F222C398FD0FD5F0EA22C2D5EC92
:1014C00030E709B2D5E4C39DFDE49CFCEE30E7159E
:1014D000B2D5E4C39FFFE49EFE122448C3E49DFD01
:1014E000E49CFC800312244830D507C3E49FFFE44A
:1014F0009EFE22C5F0F8A3E028F0C5F0F8E58215BD
:101500008270021583E038F022A3F8E0C5F025F0E0
:10151000F0E582158270021583E0C838F0E822EB0E
:101520009FF5F0EA9E42F0E99D42F0E89C45F022EA
:10153000ECF0A3EDF0A3EEF0A3EFF022A8828583F8
:10154000F0D083D082122533122533122533122591
:1015500033E473E493A3C583C5F0C583C8C582C8CB
:10156000F0A3C583C5F0C583C8C582C822A425825F
:10157000F582E5F03583F58322EF4E6012EF6001CE
:101580000EEDBB010B89828A83F0A3DFFCDEFA2219
:1015900089F05007F709DFFCA9F022BBFEFCF30934
:1015A000DFFCA9F0229003D3747EF0E4A3F0900056
:1015B0001FE0FE9003D4E0FFC39E400302272612E3
:1015C00038F9EF60031214F99003D4E0FA12135CB7
:1015D000E0600302263D9003D4E0FF12134E121385
:1015E0006FEF12115A12151E404C9003D4E0900375
:1015F000D3F012135C7401F0900226E004F0900323
:1016000002F09003D4E0FF24221213B87401F01208
:101610003B919003D4E0FF123BA09003D4E0FF1273
:101620003A989003D4E0FF123AE09003D4E012130A
:10163000AB7401F08012CFEACF123850EF600990FE
:1016400003D4E01213ABE4F09003D4E0FF12392E80
:10165000EF700302271DE49002270227189003D49D
:10166000E0FF12139912136FEF12115A12151E5048
:10167000030226E29003D4E09003D3F0123576EF14
:10168000700302271DE4FF9003D4E0FE75F0991269
:1016900011291212231213D7EE121175121223EC14
:1016A000F0A3EDF00FEFB409DE9003D412135BE466
:1016B000F0900020E0FF7009900318E0700302270B
:1016C00034EF6010900318E0600A1212E112137AEE
:1016D0004405802A900020E06010900318E0700A12
:1016E0001212E212137A44018014900020E0706418
:1016F000900318E0605E1212E112137A4404F0C203
:101700008A229003D4E0FF12135CE4F0123BBE90F7
:1017100003D4E0FF123A749003D4E0FF123BAF9081
:1017200003D4E0FF123ABC9003D4E024221213B891
:101730007401F0900227E004F0900303F09003D4CA
:10174000E004F002258E9003D3E0FF90022BE06FBF
:101750006002EFF022900236E064027030900304E1
:1017600004F09003CCE0B4010890033F7401F080D2
:1017700005E490033FF0900346E0B40108900000B8
:101780007401F08005E4900000F07F0222E4FE90F6
:10179000001FE0FFEEC39F40030228DA1213B5E0FA
:1017A000640160030228D6741C2E12135EE0FC60F4
:1017B00003022822EE6401703D12137B900303E0C4
:1017C000FD6401701B900302E0900348B40109E03E
:1017D00044091212E00480151212DD1215F1801670
:1017E000ED900348B4020BE044051212E0121527F5
:1017F00080041212DDF0EE640260030228CF12139F
:101800007B900303E0FD6401701C900302E09003F1
:1018100048B401061213ECE48021E044041212E003
:101820001215F10228CFED900348B40205E04405FB
:101830008003E04404F0E4900020F0900318F002EC
:1018400028CFEC640160030228CFEE6401704F12D0
:10185000137B900302E0FFB4020B900348E0440ABC
:101860001213EF8013EF64017026900227E09003BB
:1018700048B4010C1213ECE4900318121527801ED3
:10188000E044021213EFE4900318F01214FA800EF1
:10189000900348E044021213EFE4900318F0EE6462
:1018A00002704C12137B900302E0B40213900348C1
:1018B000E0440AF09003187401F0900020F0802FAB
:1018C000900226E06401701C900303E0900348B48A
:1018D0000105E044098013E044081212E004F0120C
:1018E00014F9800B900348E044081212E004F0124F
:1018F00013B5E4F0C28A0E02276F7F0422E490033E
:10190000E7F0A3F09003EB7403F02405A3F0122D8D
:1019100088E49003E6F09003E6E0FFC394094003F7
:101920000229EC75F00212117412137112112812AF
:101930001319FE9003E9F0A3EFF0123BCD9003EBF7
:1019400012133350249003E8E004F0A31211D312D1
:101950001312940AEE64809480400302298E1215BB
:10196000B840030229C40229B19003E7E004F01251
:1019700014E670709003E9E0FEA3E0FF123BCD9007
:1019800003ECD3121334401412150C12112975F004
:101990000212116FECF0A3EDF00229C49003E912DA
:1019A00011D31213129464EE648094804018900353
:1019B000E6E0FD75F0021211F51213CFED1211756C
:1019C000E475F001801BC3EF949CEE6480947F501B
:1019D0001312150C1211F51213CF12117474FFF5B6
:1019E000F01224D312150C12117512137112112852
:1019F000121319FE9003E6E075F00212129AEEF04F
:101A0000A3EFF09003E6E004F00228F69003E7E08D
:101A1000C3940440028031C3900111E09408900106
:101A200010E06480948040269001AAE09408900120
:101A3000A9E0648094804016900078E094039000C0
:101A400077E064809480400690022D7401F090034A
:101A5000E8E0C39406403790022DE06031E4FF12C5
:101A60003A50E4FF123815EF6029E490022DF0900F
:101A700003EDF090001FE0FF9003EDE0FEC39F50E8
:101A800012121496E4F09003EDE004F080E5E4FF18
:101A9000123B82229003CDE060069003C8E004F080
:101AA0009003C8E0B4010BE49003CDF09003C8E0CC
:101AB00004F09003C8E0B40320D3900232E09464B1
:101AC000900231E09400500E90032FE09464900354
:101AD0002EE0940040031214ED9003CCE0640170FA
:101AE0005B9003D3F012141F4003022BD8E0FF25B4
:101AF000E0243CF582E4342212120112127FFF2509
:101B0000E0241CF582E43422121201121352121244
:101B100087FF25E0245CF582E434221212011213BF
:101B20009D121287FF25E0247CF582E434221212F4
:101B30000112150312128704F0022AC5900346E031
:101B40006401705B9003D3F012141F504FE0FF2527
:101B5000E0243CF582E4342312120112127FFF25A7
:101B6000E0241CF582E434231212011213521212E3
:101B700087FF25E0245CF582E4342312120112135E
:101B80009D121287FF25E0247CF582E43423121293
:101B90000112150312128704F0022B28022BD8E43D
:101BA0009003D3F012141F504FE0FF25E024BCF542
:101BB00082E4342212120112127FFF25E0249CF5E8
:101BC00082E43422121201121352121287FF25E00E
:101BD00024DCF582E4342212120112139D121287C2
:101BE000FF25E024FCF582E43422121201121503D1
:101BF00012128704F0022B8490020CA3E090034C95
:101C0000F0900349E0B4AA031234CA900363E07071
:101C100011A3E0B4100CE4900363F0A37410F0126D
:101C2000352722C0E0C083C082C0D0E8C0E0E9C050
:101C3000E0EAC0E0EBC0E0EFC0E0D2AFE5DB30E4CB
:101C400018D20812376730E1028034900347E5DF8D
:101C5000F09003C9E4F0022D6DE5DB30E51690034A
:101C6000437401F09003CEE06005E4F0022D6DC2F4
:101C700008022D6D12376730E12AE5DB30E00FA353
:101C800012375E1237751223D5F5DF022D6D9003E2
:101C9000CAE064016003022D6D308A03022D6DD20B
:101CA0008A022D6D9003C9E07011A3E5DFF0900367
:101CB000C97401F09003CEF0022D6D9003CAE0903C
:101CC00033D393FFB4FF0F900347E5DFF09003CACF
:101CD000E004F0022D67EF640F702F9003CF1237EE
:101CE0005E9003CAE0FF123793540F122402900350
:101CF000CF12375E9003CAE0FF04F0123793FFE57E
:101D0000DF54F04F122402022D679003CF12375E8A
:101D1000123775E5DF1224149003CAE0FF641470D3
:101D200044E5DFB42025900340E06004E4F0800B3C
:101D30009003CD7401F09003C8E4F09003CC7401DB
:101D4000F0900346E4F090024804F0E5DFB410158B
:101D50009003CDE4F09003C8F0900346F09003CCDC
:101D6000F0900248F0EFB4161EE5DFB4200B9003AC
:101D7000467401F09003CCE4F0E5DFB41009900361
:101D800046E4F09003CCF0900345E004F075DBFFEF
:101D9000D0E0FFD0E0FBD0E0FAD0E0F9D0E0F8D01E
:101DA000D0D082D083D0E032E49003F2F09003F1FF
:101DB0007404F0E49003EEF09003EEE0FFC39409A6
:101DC0004003022F0575F002121128E0FCA3E01277
:101DD00012091212F3121319FE9003EFF0A3EFF0A1
:101DE000123BCD9003F11213334003022E97900360
:101DF000EFE0FEA3E09400EE64809480400DE024C8
:101E0000FFF09003EFE034FFF08016C3EE6480949F
:101E100080500E9003F0E004F070069003EFE004B1
:101E2000F01213C0E0B4013075F002EF12129AE024
:101E3000FEA3E0C3941EEE648094804003022ED380
:101E40009003EEE075F0021212F275F00212112307
:101E5000ECF0A3EDF0022ED39003EFE0FEA3E0FF41
:101E60009003EEE0FD75F0021212AEEE8FF0122438
:101E7000D375F002ED1212AE12131212157840183B
:101E80009003EEE0FD75F0021212AE1213CFED12C8
:101E90001129E475F001801A1215AE50569003EE28
:101EA000E0FF75F0021212AE1213CF12112874FF68
:101EB000F5F01224D3803C9003F2E004F09003EE9E
:101EC00075F0021212F0121371121128ECF0A3ED4A
:101ED000F09003EEE0FF75F00212129AE0FCA3E02E
:101EE000C3941EEC64809480400974B42F1213C70D
:101EF0007401F09003EEE01213C5E0B4011E9003EC
:101F0000EEE0FF24BD1214DEE0041214DAE0D394F4
:101F10000540091213C0E41214DAE4F09003EEE075
:101F200004F0022D98227F05123609EF600AE49032
:101F30000340F07F051210DD900236E024FE6018A9
:101F400014601E147003022FFD2403600302307519
:101F50001214F2E4900301F09002367403F00230A0
:101F600076121B70900228E07003022FD6900301B6
:101F7000E004F0E49003D2F090001FE0FF9003D261
:101F8000E0C39F5071E4FF1212101213D7EE12112A
:101F900075121223ECF0A3EDF01212101213D7EE0B
:101FA000121129121223ECF0A3EDF00FEFB409D7B0
:101FB0009003D2E0FF1211571213CFEF12124F7499
:101FC00004F0A3E4F0EFB40110E4900352F0A3F0A6
:101FD0009003567404F0E4A3F0EFB40210E490030D
:101FE00054F0A3F09003587404F0E4A3F09003D2EB
:101FF000E004F0022F58900301E0C3940350030261
:102000003075900012747EF0E4900229F090030184
:10201000F07F0E123B559002367404F0229003C8F4
:10202000E0B4020B7403F07F041210DD12399190BA
:1020300003C8E0B403107F04123609EF60087F0480
:102040001210DD1214ED1235C2121B701235C2903F
:102050000228E060401218D01235C2E49003D2F09A
:1020600090001FE0FE9003D2E0FFC39E501912378C
:102070001A12379C9003D2E0FF121DA31235C290B2
:1020800003D2E004F080D912396312258512273576
:10209000900236EFF0227E027F107D007B017A00F5
:1020A0007921122559123695E490023BF090033FB6
:1020B000E090035B70057410F080037420F09000D2
:1020C00000E090035D70057410F080037420F0123E
:1020D0002A74E4FE90001FE0FFEEC39F5079E4FFF6
:1020E00075F099EE1211F512122312142BEEA4249E
:1020F000ABF582E5F034001211C6E4F075F099EE0C
:10210000A42499F582E5F03400121221E4F0A3F042
:1021100012119EE4F00FEF640970C5CFEECF123BB1
:1021200073123B82121496E4F0123B91123BAF12F1
:102130003BA0123BBE741C2E12135EE4F01213B5CA
:10214000E4F0900225747EF0E4A3F0A3F090030283
:10215000F0A3F00E0230B4E490022DF090022B7444
:102160007EF0900012F0E490022AF0229003CBE07F
:102170006013D3940A4003740AF09003CBE014F088
:10218000E07002C208300803023203E5DB30E203EC
:10219000023203D2AF53A88053A90853AA0843A917
:1021A00008758DA0758E1C758B0843AA08E4F5860A
:1021B00020085FE5DB20E25A758A30538AEF438AB4
:1021C00084200845E5DB20E240758703000000AF6E
:1021D0008E90031CE4F0A3EFF090031CE4F0A374D2
:1021E00015F090031CE07002A3E0601D90031DE059
:1021F00024FFF090031CE034FFF01215E040E3E40C
:10220000F012110C1214AE80D9758A50538AEF0067
:102210000000758B0D758EFF758DE053AA0143AAE2
:1022200001D2AF22E49003D4F0FF9003D3F0EF1477
:10223000601E14603514604C14605B24047074904C
:1022400003D57401F0A3742FF0A37458F002328DFB
:1022500012375B9000011223D5FED3941F40031266
:1022600037821223BC6E704B804312375B900002A2
:102270001223D5FED3940640031237821223BC6E7C
:102280007031802912375B9000031223D5FE122390
:10229000BC6E701F801712375B9000041223D5FEAE
:1022A000648B60031237821223BC6E70069003D3D6
:1022B000E004F00FEF6405600302320E9003D3E0F8
:1022C000B40504A37401F09003D4E0FD600790030B
:1022D0005CE0547FF0CFEDCF22758A50538AEF90A7
:1022E00003F57411F09003F47422F09003F6743344
:1022F000F075997F759A80E4FFFEC2960000002079
:10230000970ED2960000003097069003F57487F080
:102310000FBF00010EEF640A4E70DF7590FF7599D4
:102320003F759AC0E4FEFF3096032097069003F4B1
:102330007487F00FBF00010EEF640A4E70E9E4F5F8
:10234000AD75AEE075AF1DF5AC75800C7589FF7588
:10235000913E75991FF59675931CF59BF595F59231
:10236000F59AD28A9003F704F0758B0D758EFF7580
:102370008DE0220238C3E493A3F8E493A34003F66C
:102380008001F208DFF48029E493A3F85407240CB9
:10239000C8C333C4540F4420C8834004F45680019A
:1023A00046F6DFE4800B01020408102040809034E0
:1023B00053E47E019360BCA3FF543F30E509541FF2
:1023C000FEE493A360010ECF54C025E060A840B89E
:1023D000E493A3FAE493A3F8E493A3C8C582C8CA1C
:1023E000C583CAF0A3C8C582C8CAC583CADFE9DEEF
:1023F000E780BE0F000000FFFF00000000FFFFFFAE
:10240000FFFFFFFFFFFF00000000000000000000D2
:1024100000000000000000000000000000000000BC
:1024200000000000000000000000000000000000AC
:10243000000000000000000000000000000000009C
:10244000000000000000000000000000000000008C
:10245000000000000000000000000000000000007C
:10246000000000000000000000000000000000006C
:102470000000004103010041023500410304004116
:102480000020004103180041033F004100000042CA
:102490000231000042032E00004102480041023B8D
:1024A00000410237004103050042031C00004103C4
:1024B000C9004103CA0042034100004103430041F7
:1024C00003450041034400410347104103CD00414F
:1024D00003C800410340014103CC0041034600C151
:1024E000084103CB004103CE00009003D47410F0E8
:1024F000A3E4F0A3743FF0A374FFF0E4FDFCF975CE
:102500008A10538AEF0000009003D4E0FEA3E0128B
:102510003789FF69F90DBD00010CBC2FEBBDFFE849
:102520009003D6E0FEA3E0F5828E83E49369700801
:102530009003497402F08005E4900349F0758A50D5
:10254000538AEF000000227F007E10E4FDFC900320
:10255000D4F0A3F0758A10538AEF000000EF123711
:1025600089FB9003D5E02BF09003D4E03400F00D0C
:10257000BD00010CED7003EC643070E19003D4E019
:10258000FCA3E0FDEC900363F0EDA3F0758A5053DB
:102590008AEF000000229003D5EFF0E0FF2419122B
:1025A000148EE0603A900248E064017011EF12105E
:1025B000F41212D09021E212119040238012900365
:1025C000D5E01210F41212D09021E8121190400FB1
:1025D0009003D5E02419F582E4340312138A227F94
:1025E0000022900237E024FE60111460252403705D
:1025F000373088349002377402F02220882A900203
:10260000377403F09003057401F07F0E123B5502FE
:1026100039B97F0E12364FEF600E7F0E123B55E434
:10262000900237F0900305F0229003D3EFF0C394AB
:102630000F5039E0FF2497121436E0602FEF25E0A9
:1026400025E024B2F582E434021210FF1212D09079
:1026500003D3121543121190400F9003D3E0249737
:10266000F582E4340212138A227F00227F00229036
:1026700003D3EFF0C3940F5039E0FF244912144103
:10268000E0602FEF25E025E0245BF582E4340212C0
:1026900010FF1212D09003D3121543121190400F65
:1026A0009003D3E02449F582E4340212138A227F96
:1026B00000227F00227E007F807D007B017A0379EB
:1026C000481225599003487405F0A37402F0E4A35E
:1026D000F090035A74ABF090035C74B5F09003F57E
:1026E000E090034EF09003F4E090034FF09003F677
:1026F000E0900350F0023204C0E0C0F0C083C0821A
:10270000C0D0E8C0E0ECC0E0EDC0E0EEC0E0EFC05B
:10271000E0D2AF1215E04008E4F012110C1214AE32
:10272000D0E0FFD0E0FED0E0FDD0E0FCD0E0F8D07B
:10273000D0D082D083D0F0D0E032CBEFCBE4900386
:10274000D31214C0F0A3F0EB6401701212125BE01C
:10275000900398F012126FA3E09003998015EB6438
:1027600002701712125BE090039CF012126FA3E04C
:1027700090039DF0ECA3F0EDA3F0229003D5E0FBD5
:10278000A3E0FAA3E0F9229003CB740AF09003CE01
:10279000E4F0E5DB229003CAE0FF04F08F8275834A
:1027A00000229003D47401F0222DF582EE3CF583D3
:1027B000E49322E92FF9E43AFA0223BC9003F7E00C
:1027C0006037C39002EFE094E09002EEE0942E5068
:1027D000069003F67487F0C3900234E094E0900210
:1027E00033E0942E50069003F67487F0E49003F7DC
:1027F000F09003F6E0900350F0229003EFEFF0E04A
:10280000FF2430121457E06029EF25E025E024333F
:10281000F582E434031210FF1212D09021EE12114F
:1028200090400F9003EFE02430F582E4340312135C
:102830008A227F00229003EEEFF0E0FF24091214B9
:1028400062E06029EF25E025E0240CF582E4340302
:102850001210FF1212D09021F0121190400F90032D
:10286000EEE02409F582E4340312138A227F002269
:102870009003D5EFF0E0FF243812146DE06029EFEB
:1028800025E025E0243CF582E434021210FF121208
:10289000D09021DE121190400F9003D5E02438F53E
:1028A00082E4340212138A227F00229003EFEFF0B9
:1028B000E0FF24F012144CE06026EF25E025E02430
:1028C000F3F582E434021210FF9021E012118440EB
:1028D0000F9003EFE024F0F582E4340212138A2211
:1028E0007F002275200153A87F1232B91239E143CB
:1028F000A88012104E121066123B04EF24E0600A0A
:102900002410700AC283C2828004D283D282122A27
:1029100074758DE0122F0680DF9003D5EFF0E0FF95
:102920002403121478E06023EF25E025E02406F567
:1029300082E434001210FF121181400F9003D5E0A1
:102940002403F582E4340012138A227F00229003CC
:10295000D5EFF0E0FF2458121483E06023EF25E068
:1029600025E024A6F582E434021210FF1211814002
:102970000F9003D5E02458F582E4340212138A2222
:102980007F0022E4FFFE90001FE0FDEEC39D501B80
:10299000EF121157121371EE12115AE0FAA3E0D39D
:1029A0009DEA9C4003CFEECF0E80DB90022CEFF02F
:1029B00022CBEFCBEBD3940F501E121433E07018E0
:1029C0001214337401F012110C12138324B2F58225
:1029D000E43402F58312251022CBEFCBEBD3940F16
:1029E000501E12143EE0701812143E7401F01211C1
:1029F0000C121383245BF582E43402F58312251054
:102A0000229003CF7401F0A37403F0A37448F0E4A0
:102A1000F5DA75DA4043DA2075D74075DA5843A9FC
:102A20000875B80875F80822121391501E1214493F
:102A3000E070181214497401F012110C121383245F
:102A4000F3F582E43402F58312251022121391501B
:102A50001E121454E070181214547401F012110C68
:102A60001213832433F582E43403F58312251022F4
:102A7000121391501E12145FE0701812145F74014B
:102A8000F012110C121383240CF582E43403F58345
:102A900012251022121391501E12146AE07018129F
:102AA000146A7401F012110C121383243CF582E4B1
:102AB0003402F58312251022121391501E12147540
:102AC000E070181214757401F012110C12138324A3
:102AD00006F582E43400F58312251022121391507A
:102AE0001E121480E070181214807401F012110C80
:102AF00012138324A6F582E43402F58312251022F2
:102B0000121391501E12148BE0701812148B740162
:102B1000F012110C121383241EF582E43403F583A2
:102B200012251022E4FD900343E06011900348E079
:102B3000FE54F0FDEE540FF0E4900343F0CFEDCFE0
:102B400022121564FFFEEE9021FC93600974062F9B
:102B5000121570EEF00F0EEEB410EB2290032A1255
:102B6000251C000000007E007F0F7D007B017A02A3
:102B70007949022559EFD3940F500874492F121444
:102B800041E4F022EFD39403500874F02F12144C58
:102B9000E4F022EFD39403500874302F121457E45A
:102BA000F022EFD39403500874092F121462E4F05A
:102BB00022EFD39403500874382F12146DE4F022DE
:102BC000EFD39403500874032F121478E4F022EF2B
:102BD000D39403500874582F121483E4F022EFD3D7
:102BE0009403500874192F12148EE4F022EE30E78B
:102BF00007C3E49FFFE49EFE2200000000000000E7
:102C000000000000000000000000000000000000C4
:102C100000000000000000000000000000000000B4
:102C200000000000000000000000000000000000A4
:102C30000000000000000000000000000000000094
:10301000000000000000000000000000000000169A
:00000001FF
