:100000000110050019000000C0340000FF000000CE
:100010000219EA12250022FFFFFFFF022F2B75AA0B
:100020003B75BA0843BA2043B92053B9BFE4F5B3CE
:1000300075B28875B1B875BB8675A9C0F5AB75ACDE
:100040000375ADC075AEC022FFFFFF0226DCAB0713
:10005000AA06D3EB9DEA9C4007EB9DFFEA9CFE229B
:10006000C3ED9BFFEC9AFE22FFFFFF021F279001CA
:100070007FEEF0A3EFF0E4A3F0A3F0900105E070B1
:1000800003020391D390011EE0940090011DE094BF
:1000900000404074FFF5F012047E90016D12066E70
:1000A0000000000190011DE0FEA3E0FFE4FCFD90D4
:1000B00001711206567F0F12312A900131EEF0A322
:1000C000EFF07816E2FF08E29000F5CFF0A3EFF032
:1000D0000203C8D3900132E09400900131E0940013
:1000E000400974FFF5F012047E801B7F0F12312A45
:1000F000900131EEF0A3EFF07816E2FF08E29000F5
:10010000F5CFF0A3EFF09000F5E0C313FEA3E013EA
:10011000FFC37817E29F18E29E50187F1012312A11
:10012000EF7803C333CE33CED8F9FF9000F7EEF06B
:10013000A3EFF0D39000F8E094009000F7E0940073
:10014000400774FFF5F012047E9000F7E07002A300
:10015000E06037E49000FDF0A3F09000F9F0A3F028
:100160009000E01206259000E412065690016D12F0
:10017000066E000000029000F7E0FEA3E0FFE4FC42
:10018000FD9001711206560203C8900074E0FEA3B0
:10019000E0FFA3E0FCA3E0FD12003ED3EF9432EEBB
:1001A00094004040E49000FDF0A3F09000F9F0A32B
:1001B000F09000E01206259000E412065690016DC2
:1001C00012066E00000003900074E0FEA3E0FFA39F
:1001D000E0FCA3E0FD12003EE4FCFD90017112067C
:1001E000560203C8900076E0FEA3E0FFC3900075BE
:1001F000E09FFF900074E09E9000F98FF012047E63
:100200009000FDE475F00112047E90017FE0FEA3F2
:10021000E0FFC39000FEE09F9000FDE09E500302CF
:1002200002DB9000E412062590018712065690002A
:10023000E01206251230BCE47B78FAF9F8C3120507
:10024000E240030202CE9000F9E0FEA3E07802CE85
:10025000A2E713CE13D8F8FF7C007D031204179099
:100260000181EEF0A3EFF09000A5EE8FF012047E76
:10027000C3EE64809480401E900181E0FEA3E0FF05
:10028000EE3395E0FDFC90017112065690016D125F
:10029000066E00000004900181E0FEA3E0FFC3EEC3
:1002A00064809480501CC3E49FFFE49EFE3395E07D
:1002B000FDFC90017112065690016D12066E000051
:1002C0000005E49000FDF0A3F09000F9F0A3F09099
:1002D00000E01206259000E41206560203C89001C1
:1002E0006D12066E000000060203C89000E41206BC
:1002F000259001871206569000E01206251230BCA8
:10030000E47B78FAF9F8C31205E240030203859012
:1003100000F9E0FEA3E0FF900181EEF0A3EFF09082
:1003200000A5EE8FF012047EC3EE64809480401E20
:1003300090016D12066E00000007900181E0FEA39F
:10034000E0FFEE3395E0FDFC90017112065690013E
:1003500081E0FEA3E0FFC3EE64809480501CC3E400
:100360009FFFE49EFE3395E0FDFC9001711206565E
:1003700090016D12066E00000008E49000FDF0A3ED
:10038000F09000F9F0A3F09000E01206259000E450
:10039000120656804390016D12066E00000009801F
:1003A00037E4FF12312A90011DEEF0A3EFF0E49044
:1003B00000FDF0A3F09000F9F0A3F09000E0120629
:1003C000259000E4120656E49000F5F0A3F0A3F0A7
:1003D000A3F0900131F0A3F09000E4120625900103
:1003E000871206569000E01206251230BC90017567
:1003F000120656900074E0FEA3E0FFA3E0FCA3E029
:10040000FD12003EE4FCFD90017912065622BB016C
:100410000689828A83E0225002E722BBFE02E322A1
:1004200089828A83E49322EF8DF0A4A8F0CF8CF028
:10043000A428CE8DF0A42EFE22BC000BBE0029EF16
:100440008DF084FFADF022E4CCF875F008EF2FFFBB
:10045000EE33FEEC33FCEE9DEC984005FCEE9DFE89
:100460000FD5F0E9E4CEFD22EDF8F5F0EE8420D2D0
:100470001CFEADF075F008EF2FFFED33FD4007983F
:100480005006D5F0F222C398FD0FD5F0EA22C5F050
:10049000F8A3E028F0C5F0F8E58215827002158314
:1004A000E038F022EF2BFFEE3AFEED39FDEC38FCA0
:1004B00022C3EF9BFFEE9AFEED99FDEC98FC22E83B
:1004C0008FF0A4CC8BF0A42CFCE98EF0A42CFC8A39
:1004D000F0EDA42CFCEA8EF0A4CDA8F08BF0A42DB6
:1004E000CC3825F0FDE98FF0A42CCD35F0FCEB8E57
:1004F000F0A4FEA9F0EB8FF0A4CFC5F02ECD39FE0D
:10050000E43CFCEAA42DCE35F0FDE43CFC2275F081
:1005100008758200EF2FFFEE33FECD33CDCC33CC08
:10052000C58233C5829BED9AEC99E58298400CF523
:1005300082EE9BFEED9AFDEC99FC0FD5F0D6E4CE51
:10054000FBE4CDFAE4CCF9A88222B800C1B9005985
:10055000BA002DEC8BF084CFCECDFCE5F0CBF97852
:1005600018EF2FFFEE33FEED33FDEC33FCEB33FBE6
:1005700010D703994004EB99FB0FD8E5E4F9FA2270
:100580007818EF2FFFEE33FEED33FDEC33FCC9336B
:10059000C910D7059BE99A4007EC9BFCE99AF90F33
:1005A000D8E0E4C9FAE4CCFB2275F010EF2FFFEE9F
:1005B00033FEED33FDCC33CCC833C810D7079BECEA
:1005C0009AE899400AED9BFDEC9AFCE899F80FD562
:1005D000F0DAE4CDFBE4CCFAE4C8F922EB9FF5F0C5
:1005E000EA9E42F0E99D42F0EC6480C86480984540
:1005F000F022EB9FF5F0EA9E42F0E99D42F0E89C84
:1006000045F022E8600FECC313FCED13FDEE13FE82
:10061000EF13FFD8F122E8600FEFC333FFEE33FE94
:10062000ED33FDEC33FCD8F122E6FC08E6FD08E6EC
:10063000FE08E6FF22E0FCA3E0FDA3E0FEA3E0FF4E
:1006400022E2FC08E2FD08E2FE08E2FF22E0F8A355
:10065000E0F9A3E0FAA3E0FB22E2FB08E2F908E2FA
:10066000FA08E2CBF822ECF0A3EDF0A3EEF0A3EF52
:10067000F022ECF208EDF208EEF208EFF222A88286
:100680008583F0D083D082120685120685120685F6
:10069000120685E473E493A3C583C5F0C583C8C57A
:1006A00082C8F0A3C583C5F0C583C8C582C822D05F
:1006B00083D082E493F208740193F208740293F2F7
:1006C00008740393F2740473A42582F582E5F0356F
:1006D00083F58322FAE6FB0808E6F925F0F618E62A
:1006E000CA3AF622E493FB740193FA740293F92256
:1006F000D083D082F8E4937012740193700DA3A399
:1007000093F8740193F5828883E4737402936860AC
:10071000EFA3A3A380DFEC8EF0A4CCC5F0CCCDF882
:10072000EFA4CEC5F02DFDE43CFCE8A42EC8C5F036
:100730003DFDE43CFCEFA4FFE5F028FEE43DFDE4D4
:100740003CFC2290017E12066E00000000900068C2
:1007500012062590018212065690018212062590FB
:100760000078E025E025E02454F582E43400F583A8
:1007700012063D1204A190018212065690018212C7
:10078000062590016912063D12049490018212061A
:1007900056900169120625900078E025E025E024B6
:1007A00054F582E43400F583120656900078E00494
:1007B000F0E075F00584E5F0F090018212062590D6
:1007C000006812065690006812062590018A1206EB
:1007D0005690018E7402F090006C120625122A2E9B
:1007E00090006C1206569000D8120625AB07AA0698
:1007F000A905A80490006C1206251204A1900149D5
:1008000012063D12049490017E120656E4FFFEFD8E
:10081000FC90017E12063DC31205CC50037F0222DC
:10082000E47FFF7EFFFDFC90017E12063DD31205A2
:10083000CC400A90017E12066E0000FFFF90017E00
:10084000120625900070EEF0FCA3EFF0FDA3E0FE91
:10085000A3E0FF12003EAC06AD07902F84E493C3E3
:1008600013FE74019313FFD3ED9FEC9E400F900095
:1008700070E0FFA3E0A3CFF0A3EFF0807B30063D54
:10088000900072E0FEA3E0FFE4FCFDC004C005C0E0
:1008900006C007900070E0FEA3E0FFE490018A121A
:1008A000065690018E7404F0D007D006D005D0040F
:1008B000122A2E900072EEF0A3EFF0803B900072AF
:1008C000E0FEA3E0FFE4FCFDC004C005C006C007D5
:1008D000900070E0FEA3E0FFE490018A12065690BB
:1008E000018E7420F0D007D006D005D004122A2E35
:1008F000900072EEF0A3EFF0900074E0FFA3E0A38D
:10090000CFF0A3EFF0900072E0FEA3E0FF120F31F2
:10091000900074EEF0A3EFF09000A5E0FCA3E0FDE2
:10092000C3EF9DFFEE9CFEE4FCFD90017E12065697
:10093000E47FFF7EFFFDFC90017E12063DC31205A1
:10094000CC400974FF7806F208F280189000A5E008
:10095000FEA3E0FFC3900075E09F7807F29000745B
:10096000E09E18F27F0622AB07E4900182F0A3120A
:10097000066E00000000EB60741233607B01E4FD42
:10098000FF122EDF784012069F000000001232D2C4
:100990007840120649C000900138E0FF122B93D036
:1009A000001204947840120662900182E004F0E0A4
:1009B000C3940540D8782DE6FFE4FCFDFE78401294
:1009C00006491204AFC007900182E0FFFBE4FAF988
:1009D000F8D00712053A78071205F3900183120642
:1009E00056900183120625900169120656E4900183
:1009F00081F0900181E0FBC39405501F90016912C2
:100A00000625EB25E025E02454F582E43400F58347
:100A1000120656900181E004F080D7E47F05FEFDC8
:100A2000FC90016912063D1204AF90006812065650
:100A300090006812062590006C12065690007074A3
:100A400075F0A37430F0A37475F0A37430F0A37440
:100A500075F0A37430F0A37475F0A37430F09000B7
:100A6000D8120625AB07AA06A905A80490006C12A7
:100A700006251204A1C374309FFF74759EFEE49D89
:100A8000FDE49CFC90014912065678067475F20844
:100A90007430F2E47816F208F2780E7475F2087485
:100AA00030F2784012069F00000000E47852F2080D
:100AB000F2900181F0900181E0FFC39414501BEF8C
:100AC00025E02479F582E43400F5837475F0A3748D
:100AD00030F0900181E004F080DBE49000A3F0A30B
:100AE00004F09000A17475F0A37430F0D20AE49081
:100AF00000A5F0A3F0900078F0900181F0900181C2
:100B0000E0FBC39405501F900068120625EB25E01A
:100B100025E024A7F582E43400F5831206569001FF
:100B200081E004F080D7E49000BBF09000681206EA
:100B3000259000BC120656E490012FF0A3F090011E
:100B40006112062590015D12063D1204949000F199
:100B500012065690016112062590015D12063D12A3
:100B600004949000ED12065622E490017DF0A3F06B
:100B7000A3F0FCA3F020CA03020D467866E67003DA
:100B8000020D46E490017DF090017DE0FE2466F8C0
:100B9000E6FD74A62EF582E43401F583EDF0E4F66B
:100BA00090017DE004F0E0B40ADE9001A6E0FE547E
:100BB000F0FCEE540F900180F0AF04EF1206E00B52
:100BC000CB500BD5600BDF700BE9800C5D900D0EE8
:100BD000A00C8EB00D43C000000D467827E64401FE
:100BE000F61232F8227827E654FEF61232F822E4A2
:100BF000FF1234167829A607229001A7E07F00FE95
:100C000090017EF0A3EFF09001A8E0FDEEEDFF90E3
:100C1000017EEEF0A3EFF0D3940AEE9400400302BD
:100C20000D46900180E0FFB40F2DE490017DF0901F
:100C3000017DE0FEC394044003020D46A3E0FCA343
:100C4000E0FDEE75F008A42434F8A60408A605908B
:100C5000017DE004F080D890017EE0FCA3E0FDEF90
:100C600075F008A42434F8A60408A6052290018093
:100C7000E0FF70117827E6FE20E103020D4654FDE7
:100C8000F6751C0222EF64016003020D467827E628
:100C9000FF30E103020D464402F6751C022290016A
:100CA00080E0FF703A7827E654DFF6E490017DF0AB
:100CB00090017DE0FE25E0247EF582E4342FF5836B
:100CC000E493FC740193FDEE75F008A42434F8A6B7
:100CD0000408A60590017DE004F0E0B402D222EF02
:100CE000640170727827E64420F6E490017DF0906C
:100CF000017DE0FF25E024AEF582E4342FF583E4A6
:100D000093FC740193FDEF75F008A42434F8A60455
:100D100008A60590017DE004F0E0B402D222900123
:100D200080E0FD70157827E6FE30E22A54FBF6904D
:100D30000121E04408F0751C0222EDB40118782767
:100D4000E6FF20E2114404F6900121E04404F0752E
:100D50001C02221232F822E490017EF0123360E489
:100D6000FB7D017F01122EDFE490017DF090017D7B
:100D7000E0FFC394025017EF25E025E02434F81279
:100D8000069F0000000090017DE004F080DF123239
:100D9000D2E490017DF090017DE0FFC394025047C2
:100DA000EF25E025E02434F8C000120631C004C06D
:100DB00005C006C00790017DE02435F582E43401CA
:100DC000F583E0FF122B93A804A905AA06AB07D070
:100DD00007D006D005D004120494D0001206629009
:100DE000017DE004F080AF90017EE004F0E0C39468
:100DF00005409BE490017DF090017EE0FFE4FCFD66
:100E0000FEC004C005C006C00790017DE025E025B6
:100E1000E02434F8120631D003D002D001D0001201
:100E2000053AC004A905AA06AB0790017DE0242A73
:100E3000F8E6FFE4FCFDFED0001204AF78071205CF
:100E4000F390017DE0FB25E025E0245DF582E434AC
:100E500001F583120656EB25E025E0245DF582E4DA
:100E60003401F583120625E47B107A27F9F8C312C2
:100E700005E2504890017DE0FB25E025E0245DF58A
:100E800082E43401F583120625EF24F0FFEE34D816
:100E9000FEED34FFFDEC34FFFCEB25E025E0243DC6
:100EA000F582E43401F58312065690017DE025E0D9
:100EB0002400F87427F2087410F2803890017DE065
:100EC000FB25E025E0243DF582E43401F58312069C
:100ED0006E00000000EB25E025E0245DF582E4349F
:100EE00001F58312062590017DE025E02400F8EE4F
:100EF000F208EFF290017DE0FB25E025E02434F8D4
:100F000012069F00000000EB25E0244CF8E4F208F4
:100F1000F290017DE0FF25E02400F8E2FC08E2FD0C
:100F2000EF25E02408F8ECF208EDF2E025E02410CB
:100F3000F8E4F208F2E004F0E064026003020DE875
:100F400022900186EEF0A3EFF0E4FFA3F0A3F0A35C
:100F5000F0A3F0A3F0A3F0A3F0A20B300601B3506E
:100F600028E4FF900186E0FCA3E0FDEF25E0247972
:100F7000F582E43400F583ECF0A3EDF00FEFB41448
:100F8000E2E49000A3F0A304F03006089001887416
:100F900005F080069001887414F0900186E0FEA3AD
:100FA000E0FF9000A3E0FD25E02479F582E4340021
:100FB000F583EEF0A3EFF0ED25E02479F582E4343B
:100FC00000F583E0FEA3E0FF9000A4E025E0247993
:100FD000F582E43400F583E0FCA3E0FD12003E90CE
:100FE0000189EEF0A3EFF09000A3E004F0E0FF90A1
:100FF0000188E0FEEF8EF084AFF09000A3EFF004E4
:10100000A3F08EF084E5F0F0900111E07002A3E00F
:1010100060030210EA900189E0FEA3E0FFD3940A86
:10102000EE940050129000A1E0FDA3E090018DCD60
:10103000F0A3EDF00210FBD3EF94C8EE9400400350
:101040000210D79000A1E0FEA3E0FF900186E0FC33
:10105000A3E0FD12003E90018BEEF0A3EFF09001B3
:1010600086E0FCA3E0FD9000A1E0FAA3E0FBD39DA5
:10107000EA9C403190018BE0FEA3E0FFD39464EE44
:1010800094004015EE13FEEF13FFC3EB9FFFEA9EA3
:101090009000A1F0A3EFF0803D9000A174FFF5F067
:1010A00012047E8031C3EB9DEA9C502A90018BE0B4
:1010B000FEA3E0FF9464EE94004011EE13FEEF13E4
:1010C000FF9000A1EE8FF012047E800A9000A1E450
:1010D00075F00112047E9000A1E0FFA3E090018D65
:1010E000CFF0A3EFF08024D20A900186E0FFA3E0C6
:1010F00090018DCFF0A3EFF08011D20A900186E02D
:10110000FFA3E090018DCFF0A3EFF0300A11900122
:1011100086E0FFA3E09000A1CFF0A3EFF0C20A9019
:10112000018DE0FEA3E0FF2290017DEEF0A3EFF041
:10113000E4900180F0A3F0A3F0900122E0FFA3E08F
:10114000900181CFF0A3EFF0E490017FF090017F58
:10115000E0FBC3940240030212549001B0E0701609
:10116000900109E0B4030FD3900114E094009001C2
:1011700013E09400402090017FE0FF25E0244CF82C
:10118000E4F208F2EF25E025E02434F812069F008F
:1011900000000002124BEB25E0244DF9E370021928
:1011A000E3701C90017FE0FF25E02400F8E2FC08DA
:1011B000E2FDEF25E02444F8ECF208EDF2805E90C9
:1011C000017FE0FD25E02444F8E2FE08E2FFED2582
:1011D000E02400F8E2FC08E2FD12003EC390018228
:1011E000E09F900181E09E503490017FE0FF25E078
:1011F0002400F8E2FC08E2FDEF25E02444F8ECF2DC
:1012000008EDF2E0FF25E0244CF8E4F208F2EF25C7
:10121000E025E02434F812069F0000000090017FD2
:10122000E0FF25E02400F8E2FC08E2FDEF25E025E0
:10123000E02434F8C000120649AE04AF05E4FCFD1A
:10124000120494D00012066290017FE025E0244C45
:10125000F808E22401F218E23400F290017FE00481
:10126000F002113DE490017FF090017FE0FFC39414
:10127000025024EF25E0244DF990017DE0FEA3E02B
:10128000FFC3E39F19E39E4006900180E004F090C5
:10129000017FE004F080D2900180E06402706F90E2
:1012A000017FF090017FE0FFC394025061EF25E0E1
:1012B000244CF8E2FE08E2FF4E6053E4FCFDC0045B
:1012C000C005C006C007E025E025E02434F812067A
:1012D00031D003D002D001D00012053A90017FE056
:1012E000FD25E02408F8EEF208EFF2ED25E0244CAD
:1012F000F8E4F208F2ED25E025E02434F812069F28
:1013000000000000C21890017FE004F080952212D6
:101310003360E4FB7D017F01122EDF900183E5BA8B
:10132000F053BA0F43BA10E490017DF090017DE0D4
:10133000FFC39402501DEF25E025E0244DF582E423
:101340003401F58312066E0000000090017DE00478
:10135000F080D990015512066E0000000090017DCA
:101360007405F075ABFF1232D2E490017EF090016B
:101370007EE0FFC39402503DEF25E025E0244DF5CB
:1013800082E43401F583C083C08212063DC0009020
:10139000017EE02435F582E43401F583E0FF122B71
:1013A00093D000120494D082D08312065690017E0E
:1013B000E004F080B990015512063DC0009001375D
:1013C000E0FF122B93D000120494900155120656A0
:1013D000E4F5AB1232D2E490017EF090017EE0FFA2
:1013E000C394025051EF25E025E0244DF582E4340A
:1013F00001F583C083C082120625C004C005C00663
:10140000C00790017EE02435F582E43401F583E0E5
:10141000FF122B93A804A905AA06AB07D007D00694
:10142000D005D0041204A1D082D0831206569001B8
:101430007EE004F080A5900155120625C004C00589
:10144000C006C007900137E0FF122B93A804A9053E
:10145000AA06AB07D007D006D005D0041204A1908D
:10146000015512065690017DE014F0E0600302136E
:1014700053E490017EF090017EE0FBC39402503073
:10148000A312066E00203A00EB25E025E0244DF57E
:1014900082E43401F58312063D90017F1206251285
:1014A000053A90017EE0242AF8A607E004F080C601
:1014B00090017F12066E00203A0090015512063D01
:1014C00090017F12062512053A782CA60790018319
:1014D000E0F5BA900137E0902F7593F5AB22E4FD6B
:1014E000301426ED25E0248EF582E4342FF583E4D4
:1014F00093FE740193FFED25E0247DF582E4340131
:10150000F583EEF0A3EFF0804D301526ED25E024B5
:10151000AEF582E4342FF583E493FE740193FFED7E
:1015200025E0247DF582E43401F583EEF0A3EFF0AD
:101530008024ED25E0247EF582E4342FF583E493C6
:10154000FE740193FFED25E0247DF582E43401F57E
:1015500083EEF0A3EFF00DED64027084E4FDED2561
:10156000E02420F8E2FE08E2FFED25E02419F9D39B
:10157000E39F19E39E4016ED25E02418F8E2FE08EB
:10158000E2FFED25E02420F8EEF208EFF2ED25E091
:10159000247DF582E43401F583E0C313FEA3E01358
:1015A000FFED25E02419F9D3E39F19E39E5047EDA1
:1015B00025E0247DF582E43401F583E0FEA3E0FF1D
:1015C000ED75F008A42434F8A60608A607ED25E07A
:1015D000247DF582E43401F583A3E025E0FF058254
:1015E000D5820215831582E033F8ED25E02420C86A
:1015F000F208EFF2803CED25E0249EF582E4342FE2
:10160000F583E493FE740193FFED25E02419F9D3EB
:10161000E39F19E39E401BED25E02420F9E3C3136B
:10162000FE09E313FFED75F008A42434F8A60608BC
:10163000A6070DED6402600302154E2290017D7431
:1016400007F0A3F0A312066E00000000123360E45E
:10165000FB7D017F01122EDF90017DE0FF60207491
:10166000017E00A807088005C333CE33CED8F9FF2A
:10167000ADACE4EF5D700890017DE014F080D9908E
:10168000017EE0FF602074017E00A807088005C38A
:1016900033CE33CED8F9FFADAEE4EF5D70089001E4
:1016A0007EE014F080D990017DE0FF7401A8070866
:1016B0008002C333D8FCF5AC90017EE0FF7401A832
:1016C00007088002C333D8FCFFF5AD8FAE53AACF15
:1016D000900187E5BAF053BA0F43BA101232D2E440
:1016E00090017DF090017DE0FFC39403503B743581
:1016F0002FF582E43401F583E0FF122B93900183F0
:1017000012065690018312062590017F12063DC3F2
:101710001205E2500C90018312062590017F1206FB
:101720005690017DE004F080BB90017F12063DC021
:101730000090017F12062578041205F3D0001204F0
:101740009490017F12065690017F12062590012782
:1017500012065690017F12062578101205F38FB3FA
:1017600090017F12062578081205F38FB290017F51
:101770001206258FB143AA30900187E0F5BA75AC07
:101780000375ADC075AEC0221234AC900104EFF009
:1017900070179000F11206259000E9120656E490A9
:1017A000011FF0A3F0C20E80669000F11206259092
:1017B00001871206569000E91206251230BCE47B20
:1017C000207A03F9F8C31205E2502090011FE47556
:1017D000F00112047E7F0412312AD3900120E09F91
:1017E00090011FE09E400BD20E8007E490011FF095
:1017F000A3F0300E1A902F8474019325E0FFE49338
:1018000033FEC3781FE29F18E29E50031232F81293
:101810003001900104E0FF1231C6EF70030218C1DD
:101820007F0512312AD3900130E09F90012FE09E76
:101830004002D21A7F0212312A90017DEEF0A3EF0E
:10184000F0D3900112E09400900111E09400401850
:1018500090017DE0FEA3E07805CEC313CE13D8F946
:10186000F0EE90017DF08021D3900134E09400905F
:101870000133E09400401290017DE0C4F854F0C8B8
:1018800068F0A3E0C4540F48F090017DE0FEA3E0AF
:10189000FF1220147F0D12312A90017DEEF0A3EF8C
:1018A000F012005E900105E0FFA3E06F6023122DAF
:1018B000F8900105E0A3F0A3E054F060147F081253
:1018C000312AEEC313FEEF13FF900115EEF0A3EFE4
:1018D000F022E490017DF090017DE0FE75F008A417
:1018E000243AFBEE25E025E0245DF582E43401F5A1
:1018F0008312062578041205F3AD07AC06AF031278
:10190000347F90017DE0FE75F008A42438FFEE25B9
:10191000E02410F8E2FC08E2FD12347F90017DE043
:10192000FE75F008A42436FFEE25E02418F8E2FC4A
:1019300008E2FD12347F90017DE004F0E0C39402E0
:1019400040957F4AC007900068120625780412056A
:10195000F3AD07AC06D00712347F7F46C007900076
:10196000D412062578041205F3AD07AC06D0071291
:10197000347F7F52900074E0FCA3E0FD12347F7F3F
:101980004E7827E6FD7C0012347F7F54902F84E44C
:1019900093FC740193FD12347F7F56902F84740161
:1019A0009324CEFDE49334FFFC12347F7F587D6492
:1019B0007C0012347F7F5E7806E2FC08E2FD123480
:1019C0007F7F5C7816E2FC08E2FD12347F7F5A7854
:1019D0001EE2FC08E2FD12347F7F60780EE2FC0814
:1019E000E2FD12347F900068120625780A1205F392
:1019F0007862A6077827E6F52222439F04E453C6BF
:101A0000DFE5C600B5C6F375830075820775FD0D69
:101A1000E4E5FEF4FF75830075820675FD0DE4E5CF
:101A2000FEB50704F59E8003759E0078100000D86F
:101A3000FC53C6E043C60843C680759607759705F4
:101A400075830075820475FD0DE5FD0404F58F7541
:101A5000830075820375FD0DE4E5FEF4FF758300D8
:101A600075820275FD0DE4E5FEB50704F59580036A
:101A700075958375BE0E5392FE9001007F007E0225
:101A8000E4F0A3DFFCDEFA78007F00E4F208DFFC7C
:101A900078FFE4F6D8FD758174021ACA02000002CC
:101AA0002803E493A3F8E493A34003F68001F2082B
:101AB000DFF48029E493A3F85407240CC8C333C48B
:101AC000540F4420C8834004F456800146F6DFE4F6
:101AD000800B0102040810204080902E93E47E01C8
:101AE0009360BCA3FF543F30E509541FFEE493A369
:101AF00060010ECF54C025E060A840B8E493A3FA7B
:101B0000E493A3F8E493A3C8C582C8CAC583CAF006
:101B1000A3C8C582C8CAC583CADFE9DEE780BE9014
:101B2000017D7407F0A3F0A312066E00000000E42C
:101B3000F5B375B28875B1B81233607B01E4FDFF6F
:101B4000122EDF90017DE0FF602074017E00A80767
:101B5000088005C333CE33CED8F9FFADACE4EF5DDA
:101B6000700890017DE014F080D990017EE0FF6064
:101B70002074017E00A807088005C333CE33CED879
:101B8000F9FFADAEE4EF5D700890017EE014F080E7
:101B9000D990017DE0FF7401A807088002C333D803
:101BA000FCF5AC90017EE0FF7401A807088002C339
:101BB00033D8FCFFF5AD8FAE53AACF900187E5BABD
:101BC000F053BA0F43BA101232D2900138E0FF122C
:101BD0002B939001831206569001831206259001E3
:101BE0007F12063DC31205E2500C900183120625B8
:101BF00090017F12065690017F12063DC0009001B1
:101C00007F12062578031205F3D000120494900188
:101C10007F12065690017F12062590012B12065660
:101C200043AA30900187E0F5BA75AC0375ADC07575
:101C3000AEC02290017E12066E00000000300076D9
:101C4000E490017DF090017DE0FB242AF8E6FFE4BA
:101C5000FCFDFEEB25E025E0244DF582E43401F5A2
:101C60008312063D1204AF78071205F390017DE060
:101C7000FB25E025E0245DF582E43401F5831206BE
:101C800056EB25E025E0243DF582E43401F583128E
:101C90000625EB25E025E0245DF582E43401F5839B
:101CA00012063DC31205E250037F022290017DE03F
:101CB00004F0E0B4028F782CE6FFE4FCFDFE900116
:101CC0005512063D1204AF78071205F39001651214
:101CD0000656782DE6FFE4FCFDFE90015912063D04
:101CE0001204AF90017E12065690017E12062578EE
:101CF000071205F390017E12065690017E1206250A
:101D0000900169120656E490017DF090017DE0FF9C
:101D1000C394045022EF25E025E0245DF582E434ED
:101D200001F583120625EC4D4E4F70037F02229081
:101D3000017DE004F080D47F0522E4900181F0EF82
:101D40006069123360E4FB7D017F01122EDF783C75
:101D500012069F000000001232D2783C120649C0E1
:101D600000900137E0FF122B93D000120494783CCE
:101D7000120662900181E004F0E0C3940540D87837
:101D80002CE6FFE4FCFDFE783C1206491204AFC0CD
:101D900007900181E0FFFBE4FAF9F8D00712053A59
:101DA00078071205F3900165120656E4FB90016571
:101DB000120625EB25E025E024C0F582E43400F589
:101DC000831206560BEBB405E4E47F05FEFDFC90A0
:101DD000016512063D1204AF9000D4120656900021
:101DE000D41206259000E0120656E47F2BFEFDFC7F
:101DF0009000D412063D1204AF78041205F390004F
:101E0000D81206569000D81206259000DC1206560D
:101E10009000D8120625EF24D0FFEE348AFEED3470
:101E2000FFFDEC34FFFC90014512065678047475F2
:101E3000F2087430F2E49000E8F022E490017DF0C2
:101E400090017DE0FFC394024003021F26EF25E0CE
:101E500025E0245DF582E43401F583120625E47B58
:101E6000107A27F9F8C31205E2506090017DE0FB7B
:101E700025E025E0245DF582E43401F58312062592
:101E8000EF24F0FFEE34D8FEED34FFFDEC34FFFC20
:101E9000EB25E025E0243DF582E43401F5831206CC
:101EA0005690017DE0FF25E02400F87427F20874C5
:101EB00010F2EF25E02410F8E4F208F2EF25E02418
:101EC00008F87427F2087410F2806290017DE0FB3C
:101ED00025E025E0243DF582E43401F58312066E09
:101EE00000000000EB25E025E0245DF582E43401EC
:101EF000F58312062590017DE0FD25E02400F8EE33
:101F0000F208EFF2ED25E02410F8E4F208F2ED25F6
:101F1000E025E0245DF582E43401F5831206259086
:101F2000017DE025E02408F8EEF208EFF290017D53
:101F3000E004F0021E3022C0E0C0F0C083C082C0C6
:101F4000D075D008C2CFD20730CD0302200930CBE4
:101F50003A20CC377870A6CEE6FFC3948040237534
:101F6000F003EF9025F01206B81206D48B198A1AE6
:101F7000891B7819E475F0011206C41203FEF5CE30
:101F800080097870E62518F8E6F5CE30CC487870F0
:101F9000E6FFB4C006786676C0807CEFB4C10678F0
:101FA0006676908072EFB4C206786676918068EFAC
:101FB00064C36063EFC3948040107819E475F00146
:101FC0001206C41203FEF5CE804D787006E6251881
:101FD000F8E6F5CE804120CB3E85CE1D7870E6FF39
:101FE0007024E51DB410099001B6E0F452808027FA
:101FF000E51DB420089001B6E04280801A7866A6FC
:102000001D7870068011EFC3940A50087870E6249A
:1020100066F8A61D787006D205D0D0D082D083D0C5
:10202000F0D0E03290017FEEF0A3EFF09001B5E048
:10203000701990010AE0B40512201A2BD3900116F2
:10204000E09400900115E09400401CE47852F208FE
:10205000F2784012069F000000009000D81206257A
:102060009000DC120656227840120649C00078061D
:10207000E2FE08E2FFE4FCFDD00012049478401276
:1020800006627853E22401F218E23400F290017FF4
:10209000E0FEA3E0FFC308E29F18E29E502C9000F0
:1020A000DC1206259001871206569000D8120625EC
:1020B0001230BCE47B78FAF9F8C31205E2400BA2B7
:1020C0000B300601B34003301A467852E2FE08E2B4
:1020D000FFE4FCFDC004C005C006C007784012063E
:1020E00031D003D002D001D00012053A780EEEF2C2
:1020F00008EFF2E47852F208F2784012069F0000EE
:1021000000009000D81206259000DC120656C21A74
:1021100022E490017EF090017EE0FF25E02408F8A3
:10212000E2FC08E2FDEF25E02400F8E2FE08E2FF11
:10213000D39DEE9C401BE025E02408F8E2FC08E279
:10214000FDC3EF9DFFEE9CFEE4FCFDA3120656804E
:102150000A90017F12066E0000000090017F1206B7
:1021600025780712060690017F12065690017EE040
:1021700025E02410F8E2FE08E2FFE4FCFD780712F7
:102180000606900183120656900100E070247F033A
:10219000FEFDFC90017F12063D1204AF90018312F8
:1021A000063D12049478021205F39001831206563C
:1021B000801A90017F12062590018312063D1204B9
:1021C0009478011205F39001831206569001831250
:1021D000062578071205F390017EE025E02410F82B
:1021E000EEF208EFF2E004F0E06402600302210680
:1021F000229000D412062590017E12065690017E90
:102200001206259000E8E025E025E024C0F582E4F0
:102210003400F58312063D1204A190017E12065689
:1022200090017E12062590016512063D12049490DD
:10223000017E1206569001651206259000E8E02501
:10224000E025E024C0F582E43400F58312065690C0
:1022500000E8E004F0E075F00584E5F0F090017E20
:102260001206259000D41206569000D4120625902E
:10227000018A12065690018E7410F09000E012064A
:1022800025122A2E9000E0120656E47F2BFEFDFC5C
:102290009000E012063D1204AF78041205F390009E
:1022A000D8120656900145120625AB07AA069000E3
:1022B000D8120625C3EF9B7805F2EE9A18F27F0636
:1022C000221229A9122B261233DE9000FFEFF01202
:1022D00031F6EF700302237F7F0112312AAD07AC84
:1022E00006D3900112E09400900111E09400401098
:1022F000ECC4F854F0C868FCEDC4540F48FD802DC0
:10230000301810ECC4F854F0C868FCEDC4540F4801
:10231000FD801AC37829E2941E18E29400500EEC56
:10232000C4F854F0C868FCEDC4540F48FDAE04AFC7
:1023300005121118900100E060287F0612312AD39F
:10234000900110E09F90010FE09E400AE49000FF92
:10235000F0A3F0121E2B90010FE475F00112047E21
:102360008007E490010FF0A3F0900100E0FFA3E0EC
:102370006F601C122895900100E0A3F0A3E054F0D8
:10238000600D7F0712312A900113EEF0A3EFF022C7
:10239000E490017FF0A312066E000000009001059A
:1023A000E0706ED3900134E09400900133E094002B
:1023B00040429000BC120625AB07AA06A905A80456
:1023C0009000681206251204A19001801206569012
:1023D0002F8474019325E0FFE49333FEE4FCFD9029
:1023E000018012063DD31205CC406890017FE04485
:1023F00004F0805F902F84E493FE740193FFC37810
:102400001FE29F18E29E404B90017FE04404F08061
:1024100042300D20902F8474019325E0FFE4933324
:10242000FEC3781FE29F18E29E402890017FE0449F
:1024300004F0801F902F8474019324CEFFE4933422
:10244000FFFEC3781FE29F18E29E400790017FE0E5
:102450004404F090017FE09001B5F022E490017D0A
:10246000F0A3F030071790010DF0A37441F07F0C3A
:1024700012312A900119EEF0A3EFF0C207A20692E2
:102480000B7827E6FF20E10330E20D90010DE4F028
:10249000A37441F0C2068038D3900112E0940090FA
:1024A0000111E09400501190011AE094009001197C
:1024B000E09400500320050D90010DE4F0A3744159
:1024C000F0C206800B90010DE4F0A37404F0D20674
:1024D000300608E4FF123192123282A20B3006015C
:1024E000B3501EE490011FF0A3F0900105E06004DA
:1024F000D20D800D7F0312312A900133EEF0A3EF4D
:10250000F0900105E07008300D031232F8C20D2280
:10251000E490017DF0900121E054036032C2057F18
:102520000A12312A90011BEEF0A3EFF0900121E096
:1025300054FCF0C29278647600087696786408E6D7
:10254000161886067001164E60030080EFD2929036
:102550000121E0FF30E214900107E0540F6022787F
:1025600024760490017D7401F08016EF30E3129020
:102570000107E0540F600A7824764090017D7401D1
:10258000F0900121E054F3F090017DE0602BC20552
:102590007F0A12312A90011BEEF0A3EFF0786476E7
:1025A00000087696C292786408E6161886067001CE
:1025B000164E60030080EFD29222D3900112E09475
:1025C00000900111E09400400774FFF5F012047EC2
:1025D000D3900114E09400900113E094004007743C
:1025E000FFF5F012047ED390011CE0940090011BD3
:1025F000E09400401374FFF5F012047E90011BE09C
:102600007002A3E07002D20590010BE475F0011294
:10261000047ED3900116E09400900115E0940040F0
:102620000774FFF5F012047ED390011AE094009035
:102630000119E09400400774FFF5F012047ED39076
:102640000134E09400900133E09400400774FFF5FA
:10265000F012047E22E490017DF07824F6FF12341B
:102660001690017DEFF0BFFF06782576058004788F
:102670002576FF78267619E408F6782976FFFFEFAD
:1026800025E0247EF582E4342FF583E493FC740185
:1026900093FDEF75F008A42434F8A60408A605EF0E
:1026A00075F008A42436F8E4F608F6EF75F008A4EF
:1026B0002438F8E4F608F6EF75F008A4243AF8E4B4
:1026C000F608F60FEFB402B7E47854F608F608F609
:1026D00008F608F608F608F608F608F608F608F60A
:1026E00008F608F608F608F675182422C0E0C0F0CF
:1026F000C083C082C0D075D01053B9FD900124E0D2
:10270000FB64017059FA74352AF582E43401F583CB
:10271000E0FF122B93EA25E025E0244DF582E43416
:1027200001F5831206560AEAB402DB900137E0FF96
:10273000122B93900155120656900138E0902F7598
:1027400093F5B490012CE0F5B3A3E0F5B2A3E0F566
:10275000B143B901D2D89001247402F08017EBB4D0
:102760000213900138E0FF122B9390015912065684
:10277000900124E4F0D0D0D082D083D0F0D0E032E9
:10278000FE0000FE0008FE0008FE0010FE0010FE25
:102790000018FE0018FE002001014D010155010145
:1027A0005D0101650101B00101B10101B20100FF4C
:1027B000FE0034FE0038FE004CFE004E0101060112
:1027C000010201010701010F01010B01010D0101CE
:1027D0001101011901011B01011101013D01014517
:1027E00001012501012601012701012B01016D01D4
:1027F000017501006801006C0100700100720100A8
:10280000740100D40100D80100E001013100002A68
:1028100000002C1233C012346D12349F1226451260
:10282000331C12315E123381D2AF751C01E51C24BA
:10283000FE601C24FE602D14604114604B24057062
:102840005812348F12345912342D7F02122FBED2F7
:10285000D8122C58900124E070FA7F01122BF675E3
:102860001C048038D2D8900124E070FA121C238F07
:102870001C12244C7F01122BF68021122DAA8F1CD2
:102880001218C21225AA80143000031222B11217A6
:1028900078123043751C048003751C01120003126A
:1028A0000B5980892290017DEFF0900121E06003B7
:1028B000022923F9FFFE7401A806088002C333D859
:1028C000FCFD90017DE05DFC900101E05D6C600726
:1028D000900121E04401F0900101E05DB50513EEA7
:1028E0002404FC7401A804088002C333D8FC49F90D
:1028F000800D7401A806088002C333D8FC49F99002
:10290000017DE05DB5050F7401A806088002C333A0
:10291000D8FC4FFF8011EE2404FD7401A805088047
:1029200002C333D8FC4FFF0EEE64027089E95F905A
:102930000102F02290017F12066E0000000090005C
:10294000681206259000BBE025E025E024A7F5826B
:10295000E43400F5831206569000BBE004F0E07505
:10296000F00584E5F0F0A20B300601B3504AE49084
:10297000017EF090017EE0FFC394055026A312066D
:102980003DEF25E025E024A7F582E43400F583122D
:10299000062512049490017F12065690017EE004F1
:1029A000F080D0E47B05FAF9F890017F1206251239
:1029B000053A9000BC120656227818E2FE08E2FFA3
:1029C00090017DEEF0A3EFF0A3EEF0A3EFF07F0116
:1029D000EF25E02418F8E2FC08E2FDD390017EE048
:1029E0009D90017DE09C400FEF25E02418F8E2FD6A
:1029F00008E2CDF0A3EDF0EF25E02418F8E2FC08A2
:102A0000E2FDC3900180E09D90017FE09C500FEFBC
:102A100025E02418F8E2FD08E2CDF0A3EDF00FEF79
:102A2000B402AD90017DE0FFA3E0782ACFF208EF79
:102A3000F2A3E0FFA3E07828CFF208EFF2229001A2
:102A40008612065690018F12066E0000000090015B
:102A50008612062578041206069001861206569004
:102A6000018A120625780412060690018A1206567B
:102A700090018EE024FFFFE434FFFEE4FCFD9001B2
:102A80008612063D1204AF90018A12063D1204948C
:102A9000C00790018EE0FFFBE4FAF9F8D0071205B9
:102AA0003A90018F12065690018F12062578041273
:102AB00005F390018F12065690018F12062522E42D
:102AC00090017EF090017EE0FFC394025065EF25F7
:102AD000E025E0243DF582E43401F583120625ABC0
:102AE00007AA06A905A80490017EE025E025E024B8
:102AF0005DF582E43401F5831206251204A19001EC
:102B00007F120656E47FFF7EFFFDFC90017F1206D8
:102B10003DC31205E240037F022290017F12062589
:102B200090017EE025E02400F8EEF208EFF2E004E8
:102B3000F080917F0622E490017DF090017DE0FF1E
:102B400025E02408F8E2FC08E2FDEF25E02400F887
:102B5000E2FE08E2FFC39DEE9C503DE025E0240923
:102B6000F8C3E29FFF18E29EFE7C007D6412070618
:102B7000C006C007E025E0242CF8E2FE08E2FFFBD7
:102B8000AA06E4F9F8D007D00612053AD3EF940A62
:102B9000EE94004003D2182290017DE004F0E0B4EE
:102BA000029922EFC39404500553B9EF800343B94F
:102BB00010EF6003B4040C7872A6B708A6B608A696
:102BC000B5803DEF64016004EFB4050C7872A6EBAC
:102BD00008A6EA08A6E98028EF64026004EFB406BC
:102BE0000C7872A6F308A6F208A6F18013EF64032E
:102BF0006004EFB4070A7872A6FB08A6FA08A6F9E3
:102C000078711206192290017DEFF0E0900124F016
:102C10006401702530000AFB7D017F01122EDF80E8
:102C200008E4FB7D01FF122EDF900128E0F5B3A33D
:102C3000E0F5B2A3E0F5B1801D90017DE0B402168D
:102C40007B01E4FDFF122EDF90012CE0F5B3A3E041
:102C5000F5B2A3E0F5B175BF0F43B92053B9FD43F9
:102C6000BA0143B901D2D8227827E6FF30E104D275
:102C7000008002C200EF30E204D2018002C201E40F
:102C800090010BF0A3F0900193F0A3F0A2023000AA
:102C900001B35012A2009202122D59300005121EEB
:102CA0002B8003121E2B300805120D47C208A20309
:102CB000300101B35004A20192033009051232F829
:102CC000C20922A907E4FF7E04EEC39404501474E1
:102CD000352EF582E43401F583E0902F75934FFF94
:102CE0000E80E6E96005EF42D48004EFF452D4EFA1
:102CF000F4FE52F4EF42E4ED6005EF42EC8003EEA7
:102D000052ECEFF4FE52DCEB6005EF42808003EE04
:102D100052809001B6EFF022E490017EF090017EA7
:102D2000E0FFC394025041EF25E02410F8E2FE08D2
:102D3000E2FF7C007D64120706C006C007E025E0C4
:102D4000242CF8E2FE08E2FFFBAA06E4F9F8D0071B
:102D5000D00612053A90017EE025E02418F8EEF244
:102D600008EFF2E004F080B522E4FF900100F0A348
:102D7000F0900109F090010FF0A3F0900113F0A37F
:102D8000F0900102F0A3F0F523EF25E0242CF8E207
:102D9000FC08E2FD900122EC8DF012047E0FEFB4EE
:102DA00002E7900122E0FEA3E0FF7C007D0A12040E
:102DB00029900122EEF0A3EFF02290017D7406F03D
:102DC000300016122AAF90017DEFF0BF0205D20845
:102DD000E0FF22122101122D081221E190017DEF66
:102DE000F0BF0205D208E0FF2212073390017DEF09
:102DF000F0BF0205D209E0FF221229241232261266
:102E0000325490017DE0FF22AA07900121E0F97081
:102E100044FCFF7E04EA540FFD900106E0540F6D60
:102E2000600A300107E94402900121F0900106E0B8
:102E3000540F6008EEC454F04CFC8003EC4EFCEAE6
:102E4000540F6005EF4EFF8006EEC454F04FFFECC8
:102E50005F900107F02290017D12066E00000000D5
:102E6000E4900181F090017D12063DC00090018147
:102E7000E0242AF8E6FFE4FCFDFED0001204949062
:102E8000017D120656900181E004F0E0B402D6E420
:102E90007B02FAF9F890017D12062512053A782D89
:102EA000A60722603600FF000000000000000000BE
:102EB0000000000000000000000000000000000012
:102EC0000000000000000000000000000000000002
:102ED0000000000000000000000000000048013574
:102EE00005060002FFFFFFFF04710000000000A9BB
:102EF00005E4FEFDEF6018E4FF74352FF582E4343D
:102F000001F583E0902F75934EFE0FEFB402EAE9CE
:102F1000600A900137E0902F75934EFEEB600A90A7
:102F20000138E0902F75934DFD900125EEF0AF052F
:102F3000A3EFF0900125E04FF5B422C0E0C0F0C04F
:102F400083C082C0D075D000C000C28D758C327530
:102F50008AEB900193E475F00112047EC390019412
:102F6000E09414900193E09400400D90010BE4F084
:102F7000A3F0900193F0A3F0D000D0D0D082D08302
:102F8000D0F0D0E0320102040810204080CB0032A3
:102F90000032003C00FA003C003C003C003C003C9D
:102FA000003C003C003C003C003C003C003C007805
:102FB0000078003C003C003C003C003C003C03E846
:102FC00003E8003C003C003C003C003C003C78270F
:102FD000A607EFB40208D202D200C203C201EFB4C6
:102FE0000408C202C200D203D201EFB40608D20222
:102FF000D200D203D20190010DE4F0A37441F07F1E
:103000000B12312A900111EEF0A3EFF0C206C20BB1
:1030100022780EE2FE08E2FF7806E2FC08E2FDC339
:103020009FEC9E5026C3780FE29DFF18E29CFED3D2
:10303000EF9464EE9400400B90012FE475F00112C0
:10304000047E22E490012FF0A3F022E490012FF0FF
:10305000A3F022E4FFFE300010900103E0FD900198
:1030600002E0FC6D6003ECFF0E300112900108E0FD
:10307000FD900107E0FC6D6005EC4FFF7E01EE6006
:10308000047824A607900102E0A3F0900107E0A3D2
:10309000F022E4FFFEEE75F008A42435F8E624FDE6
:1030A000FD18E634FFFCEE25E02419F9C3E39D1971
:1030B000E39C400D7401A806088002C333D8FC4F7E
:1030C000FF0EEEB402CF9001B2EFF0229001831216
:1030D000065690018712062590018312063DD312F1
:1030E00005E2401090018712063D900183120625EB
:1030F0001204A12290018312063D90018712062539
:103100001204A122E4FFFEEE75F008A42434F8E6D0
:10311000FC08E6FDEE25E02419F9C3E39D19E39CC4
:10312000400D7401A806088002C333D8FC4FFF0E7F
:10313000EEB402D39001B0EFF0227B017A00EFC32E
:10314000941140057F017E0022EF25E0243FF582A7
:10315000E43433F583E493FF7E0090010DE0FCA39B
:10316000E0FD120417AA06AB07AE02AF032243F834
:103170000875CD4053CC7F43CC4043CC2043CC108A
:1031800043CC0453CCFD43CB0243CB0153CBBF43D1
:10319000E80853E5FC43E30243F50343900343EDA2
:1031A0000322E4900124F053B9FD43CC02C2D94379
:1031B0009F10539FFD438760759262C28DEF70062A
:1031C00075BD0D75BC0112344475BE0CD28C43879D
:1031D0000300000000227E05900105E06F6007EF0C
:1031E000F0E490010AF0900105E070027E02AF0663
:1031F00090010AE004F0C39F50037F002290010A6F
:103200007405F07F01227E03900100E06F6007EFFC
:10321000F0E4900109F0900100E070027E01AF0639
:10322000900109E004F0C39F50037F002290010940
:103230007403F07F0122780EE2FC08E2FD7806E2DA
:10324000FA08E2FBD39DEA9C400F780EE2FC08E20C
:10325000FDEB9DFFEA9CFE8003E4FEFF7816EEF294
:1032600008EFF2227816E2FE08E2FF7C007D64128D
:103270000706C006C0077832E2FE08E2FFFBAA0696
:10328000E4F9F8D007D00612053A781EEEF208EFFE
:10329000F222E4FF75BE0E439F100FEFB4FFFB4315
:1032A0009F02539FEFE4FF0FEFB4FFFB75BC027565
:1032B0009276E4F5BFD2D953CCFD22E4FFFE7435FB
:1032C0002EF582E43401F583E0902F75934FFF0EC5
:1032D000EEB404EAEF42D4EF42F4EF42E4EFF452EA
:1032E000DC2275BF0F00000000000000000000009D
:1032F00000000000000000D2D853B9FD43B901E539
:10330000B930E1FBE4F5BF22900124E070FAE4FF5C
:10331000120957E4FF121D2AE4900105F090010AFA
:10332000F0900115F0A3F0900107F022438901C24B
:103330008DD2A953B8FDE4900193F0A3F090010B56
:10334000F0A3F0758C32758AEBD28CD2AF220002DA
:103350000101020803010405050106060701080131
:1033600009020A010B030C010D0F0E040F01103CA2
:1033700053BAFEE5B920E006900124E06005E5B906
:1033800030E1FBE4F5BF53B9FD53B9FE900124F0E1
:1033900022782C7402F208748AF2087402F208741B
:1033A00026F208E4F2087464F208E4F2087464F2A5
:1033B00022EF600543D504800353D5FB53F5FB533F
:1033C000E5FB43E30443ED04E4900121F0D29222B3
:1033D000E4F5E3439F10439F02FF0FEFB4FFFB535D
:1033E0009FEF75BE0EE4F5BFF5B975927622121403
:1033F000CE1230F4123082900100E070079001B0DC
:10340000E0FB80059001B2E0FBAF0322E4900105F0
:10341000F0A3F090010AF0900115F0A3F0900107DD
:10342000F0A3F0C20D22E4FFF582F5837440FEE4C0
:1034300093F42FFFA3EEB583F6227F0022E49001E0
:103440001BF0A3F07F0C12312A900119EEF0A3EFCC
:10345000F0D20522438901C28CC28FE4900193F01F
:10346000A3F0758CFB758AED227F01121D2A122EA6
:1034700046121B0F7F011209571233FC221232AB86
:103480007B017D01E4FF122CB37F011233A12220C6
:10349000C90CC2AFA807A60408A605D2AF22221203
:1034A000000E1212FF12162C120D47122D5922C2B5
:1034B000DA53D80F43D8D0D2D8D2D9221223809051
:1034C00001B5E0FF22FFFFFFFFFFFFFFFFFFFFFF50
:00000001FF
